{
  "_format": "hh-sol-artifact-1",
  "contractName": "WiFeeRegistry",
  "sourceName": "contracts/WiFeeRegistry.sol",
  "abi": [
    {
      "anonymous": false,
      "inputs": [
        {
          "indexed": true,
          "internalType": "address",
          "name": "_owner",
          "type": "address"
        },
        {
          "indexed": false,
          "internalType": "string",
          "name": "_ssid",
          "type": "string"
        },
        {
          "indexed": false,
          "internalType": "string",
          "name": "_mac",
          "type": "string"
        },
        {
          "indexed": false,
          "internalType": "uint256",
          "name": "_price",
          "type": "uint256"
        },
        {
          "indexed": false,
          "internalType": "uint256",
          "name": "_maxTime",
          "type": "uint256"
        },
        {
          "indexed": false,
          "internalType": "uint256",
          "name": "_dataLimit",
          "type": "uint256"
        },
        {
          "indexed": false,
          "internalType": "uint256",
          "name": "_bandwidthLimit",
          "type": "uint256"
        }
      ],
      "name": "APModified",
      "type": "event"
    },
    {
      "anonymous": false,
      "inputs": [
        {
          "indexed": true,
          "internalType": "address",
          "name": "_owner",
          "type": "address"
        },
        {
          "indexed": false,
          "internalType": "string",
          "name": "_ssid",
          "type": "string"
        },
        {
          "indexed": false,
          "internalType": "string",
          "name": "_mac",
          "type": "string"
        },
        {
          "indexed": false,
          "internalType": "uint256",
          "name": "_price",
          "type": "uint256"
        },
        {
          "indexed": false,
          "internalType": "uint256",
          "name": "_maxTime",
          "type": "uint256"
        },
        {
          "indexed": false,
          "internalType": "uint256",
          "name": "_dataLimit",
          "type": "uint256"
        },
        {
          "indexed": false,
          "internalType": "uint256",
          "name": "_bandwidthLimit",
          "type": "uint256"
        },
        {
          "indexed": false,
          "internalType": "uint256",
          "name": "_timeRegistered",
          "type": "uint256"
        }
      ],
      "name": "APRegistered",
      "type": "event"
    },
    {
      "anonymous": false,
      "inputs": [
        {
          "indexed": true,
          "internalType": "address",
          "name": "_owner",
          "type": "address"
        },
        {
          "indexed": false,
          "internalType": "string",
          "name": "_ssid",
          "type": "string"
        },
        {
          "indexed": false,
          "internalType": "string",
          "name": "_mac",
          "type": "string"
        }
      ],
      "name": "APRemoved",
      "type": "event"
    },
    {
      "inputs": [
        {
          "internalType": "string",
          "name": "_mac",
          "type": "string"
        }
      ],
      "name": "getAPInfo",
      "outputs": [
        {
          "components": [
            {
              "internalType": "address",
              "name": "owner",
              "type": "address"
            },
            {
              "internalType": "string",
              "name": "ssid",
              "type": "string"
            },
            {
              "internalType": "string",
              "name": "mac",
              "type": "string"
            },
            {
              "internalType": "uint256",
              "name": "price",
              "type": "uint256"
            },
            {
              "internalType": "uint256",
              "name": "maxTime",
              "type": "uint256"
            },
            {
              "internalType": "uint256",
              "name": "dataLimit",
              "type": "uint256"
            },
            {
              "internalType": "uint256",
              "name": "bandwidthLimit",
              "type": "uint256"
            },
            {
              "internalType": "uint256",
              "name": "timeRegistered",
              "type": "uint256"
            },
            {
              "internalType": "bool",
              "name": "active",
              "type": "bool"
            }
          ],
          "internalType": "struct WiFeeRegistry.AccessPoint",
          "name": "",
          "type": "tuple"
        }
      ],
      "stateMutability": "view",
      "type": "function"
    },
    {
      "inputs": [],
      "name": "getAPOfOwner",
      "outputs": [
        {
          "components": [
            {
              "internalType": "address",
              "name": "owner",
              "type": "address"
            },
            {
              "internalType": "string",
              "name": "ssid",
              "type": "string"
            },
            {
              "internalType": "string",
              "name": "mac",
              "type": "string"
            },
            {
              "internalType": "uint256",
              "name": "price",
              "type": "uint256"
            },
            {
              "internalType": "uint256",
              "name": "maxTime",
              "type": "uint256"
            },
            {
              "internalType": "uint256",
              "name": "dataLimit",
              "type": "uint256"
            },
            {
              "internalType": "uint256",
              "name": "bandwidthLimit",
              "type": "uint256"
            },
            {
              "internalType": "uint256",
              "name": "timeRegistered",
              "type": "uint256"
            },
            {
              "internalType": "bool",
              "name": "active",
              "type": "bool"
            }
          ],
          "internalType": "struct WiFeeRegistry.AccessPoint[]",
          "name": "",
          "type": "tuple[]"
        }
      ],
      "stateMutability": "view",
      "type": "function"
    },
    {
      "inputs": [
        {
          "internalType": "string",
          "name": "_mac",
          "type": "string"
        }
      ],
      "name": "isOwner",
      "outputs": [
        {
          "internalType": "bool",
          "name": "",
          "type": "bool"
        }
      ],
      "stateMutability": "view",
      "type": "function"
    },
    {
      "inputs": [
        {
          "internalType": "string",
          "name": "_ssid",
          "type": "string"
        },
        {
          "internalType": "string",
          "name": "_mac",
          "type": "string"
        },
        {
          "internalType": "uint256",
          "name": "_price",
          "type": "uint256"
        },
        {
          "internalType": "uint256",
          "name": "_maxTime",
          "type": "uint256"
        },
        {
          "internalType": "uint256",
          "name": "_dataLimit",
          "type": "uint256"
        },
        {
          "internalType": "uint256",
          "name": "_bandwidthLimit",
          "type": "uint256"
        }
      ],
      "name": "registerAP",
      "outputs": [],
      "stateMutability": "nonpayable",
      "type": "function"
    },
    {
      "inputs": [
        {
          "internalType": "string",
          "name": "_mac",
          "type": "string"
        }
      ],
      "name": "removeAP",
      "outputs": [],
      "stateMutability": "nonpayable",
      "type": "function"
    },
    {
      "inputs": [
        {
          "internalType": "string",
          "name": "_mac",
          "type": "string"
        },
        {
          "internalType": "string",
          "name": "_ssid",
          "type": "string"
        },
        {
          "internalType": "uint256",
          "name": "_price",
          "type": "uint256"
        },
        {
          "internalType": "uint256",
          "name": "_maxTime",
          "type": "uint256"
        },
        {
          "internalType": "uint256",
          "name": "_dataLimit",
          "type": "uint256"
        },
        {
          "internalType": "uint256",
          "name": "_bandwidthLimit",
          "type": "uint256"
        }
      ],
      "name": "setAPInfo",
      "outputs": [],
      "stateMutability": "nonpayable",
      "type": "function"
    }
  ],
  "bytecode": "0x608060405234801561001057600080fd5b50612547806100206000396000f3fe608060405234801561001057600080fd5b50600436106100625760003560e01c80630d2f6042146100675780634feaad2d1461009757806364c79697146100b3578063b85e943d146100cf578063cc782df0146100ff578063fa204bd51461011b575b600080fd5b610081600480360381019061007c919061173e565b610139565b60405161008e919061221a565b60405180910390f35b6100b160048036038101906100ac919061177f565b610381565b005b6100cd60048036038101906100c8919061173e565b61063a565b005b6100e960048036038101906100e4919061173e565b610a16565b6040516100f69190611f7c565b60405180910390f35b6101196004803603810190610114919061177f565b610a8f565b005b610123610fc7565b6040516101309190611f5a565b60405180910390f35b6101416114ed565b61014a826113fe565b610189576040517f08c379a0000000000000000000000000000000000000000000000000000000008152600401610180906120da565b60405180910390fd5b6000826040516101999190611f2c565b9081526020016040518091039020604051806101200160405290816000820160009054906101000a900473ffffffffffffffffffffffffffffffffffffffff1673ffffffffffffffffffffffffffffffffffffffff1673ffffffffffffffffffffffffffffffffffffffff168152602001600182018054610219906123e1565b80601f0160208091040260200160405190810160405280929190818152602001828054610245906123e1565b80156102925780601f1061026757610100808354040283529160200191610292565b820191906000526020600020905b81548152906001019060200180831161027557829003601f168201915b505050505081526020016002820180546102ab906123e1565b80601f01602080910402602001604051908101604052809291908181526020018280546102d7906123e1565b80156103245780601f106102f957610100808354040283529160200191610324565b820191906000526020600020905b81548152906001019060200180831161030757829003601f168201915b5050505050815260200160038201548152602001600482015481526020016005820154815260200160068201548152602001600782015481526020016008820160009054906101000a900460ff1615151515815250509050919050565b8561038b81610a16565b6103ca576040517f08c379a00000000000000000000000000000000000000000000000000000000081526004016103c1906120fa565b60405180910390fd5b6103d3876113fe565b610412576040517f08c379a00000000000000000000000000000000000000000000000000000000081526004016104099061211a565b60405180910390fd5b61041b86611478565b61045a576040517f08c379a00000000000000000000000000000000000000000000000000000000081526004016104519061213a565b60405180910390fd5b61046385611493565b6104a2576040517f08c379a0000000000000000000000000000000000000000000000000000000008152600401610499906121fa565b60405180910390fd5b6104ab8461149f565b6104ea576040517f08c379a00000000000000000000000000000000000000000000000000000000081526004016104e19061217a565b60405180910390fd5b6104f3836114ba565b610532576040517f08c379a0000000000000000000000000000000000000000000000000000000008152600401610529906120ba565b60405180910390fd5b61053b826114c6565b61057a576040517f08c379a00000000000000000000000000000000000000000000000000000000081526004016105719061219a565b60405180910390fd5b6000808860405161058b9190611f2c565b90815260200160405180910390209050868160010190805190602001906105b3929190611551565b508581600301819055508481600401819055508381600501819055508281600601819055503373ffffffffffffffffffffffffffffffffffffffff167fbf2fcd07aa9bacece56458b94260876fca74431e05371028339954442af40a32888a8989898960405161062896959493929190611f97565b60405180910390a25050505050505050565b8061064481610a16565b610683576040517f08c379a000000000000000000000000000000000000000000000000000000000815260040161067a906120fa565b60405180910390fd5b61068c826113fe565b6106cb576040517f08c379a00000000000000000000000000000000000000000000000000000000081526004016106c29061211a565b60405180910390fd5b3373ffffffffffffffffffffffffffffffffffffffff167f1d4528bbaa57c275c35e5462b048aeaaea47e8e37f9d5fa09bf196803a2f5aae6000846040516107139190611f2c565b908152602001604051809103902060010184604051610733929190612083565b60405180910390a260028260405161074b9190611f2c565b908152602001604051809103902060006101000a81549060ff02191690556000826040516107799190611f2c565b9081526020016040518091039020600080820160006101000a81549073ffffffffffffffffffffffffffffffffffffffff02191690556001820160006107bf91906115d7565b6002820160006107cf91906115d7565b600382016000905560048201600090556005820160009055600682016000905560078201600090556008820160006101000a81549060ff021916905550506000600160003373ffffffffffffffffffffffffffffffffffffffff1673ffffffffffffffffffffffffffffffffffffffff168152602001908152602001600020905060005b8180549050811015610a1057836040516020016108709190611f2c565b604051602081830303815290604052805190602001208282815481106108bf577f4e487b7100000000000000000000000000000000000000000000000000000000600052603260045260246000fd5b906000526020600020016040516020016108d99190611f43565b6040516020818303038152906040528051906020012014156109fd5781600183805490506109079190612323565b8154811061093e577f4e487b7100000000000000000000000000000000000000000000000000000000600052603260045260246000fd5b90600052602060002001828281548110610981577f4e487b7100000000000000000000000000000000000000000000000000000000600052603260045260246000fd5b90600052602060002001908054610997906123e1565b6109a2929190611617565b50818054806109da577f4e487b7100000000000000000000000000000000000000000000000000000000600052603160045260246000fd5b6001900381819060005260206000200160006109f691906115d7565b9055610a10565b8080610a0890612413565b915050610853565b50505050565b60003373ffffffffffffffffffffffffffffffffffffffff16600083604051610a3f9190611f2c565b908152602001604051809103902060000160009054906101000a900473ffffffffffffffffffffffffffffffffffffffff1673ffffffffffffffffffffffffffffffffffffffff16149050919050565b600073ffffffffffffffffffffffffffffffffffffffff16600086604051610ab79190611f2c565b908152602001604051809103902060000160009054906101000a900473ffffffffffffffffffffffffffffffffffffffff1673ffffffffffffffffffffffffffffffffffffffff1614610b3f576040517f08c379a0000000000000000000000000000000000000000000000000000000008152600401610b36906121ba565b60405180910390fd5b600285604051610b4f9190611f2c565b908152602001604051809103902060009054906101000a900460ff1615610bab576040517f08c379a0000000000000000000000000000000000000000000000000000000008152600401610ba29061215a565b60405180910390fd5b610bb486611478565b610bf3576040517f08c379a0000000000000000000000000000000000000000000000000000000008152600401610bea9061213a565b60405180910390fd5b610bfc856114d2565b610c3b576040517f08c379a0000000000000000000000000000000000000000000000000000000008152600401610c32906121da565b60405180910390fd5b610c4484611493565b610c83576040517f08c379a0000000000000000000000000000000000000000000000000000000008152600401610c7a906121fa565b60405180910390fd5b610c8c8361149f565b610ccb576040517f08c379a0000000000000000000000000000000000000000000000000000000008152600401610cc29061217a565b60405180910390fd5b610cd4826114ba565b610d13576040517f08c379a0000000000000000000000000000000000000000000000000000000008152600401610d0a906120ba565b60405180910390fd5b610d1c816114c6565b610d5b576040517f08c379a0000000000000000000000000000000000000000000000000000000008152600401610d529061219a565b60405180910390fd5b600042905060006040518061012001604052803373ffffffffffffffffffffffffffffffffffffffff16815260200189815260200188815260200187815260200186815260200185815260200184815260200183815260200160011515815250905080600088604051610dce9190611f2c565b908152602001604051809103902060008201518160000160006101000a81548173ffffffffffffffffffffffffffffffffffffffff021916908373ffffffffffffffffffffffffffffffffffffffff1602179055506020820151816001019080519060200190610e3f929190611551565b506040820151816002019080519060200190610e5c929190611551565b50606082015181600301556080820151816004015560a0820151816005015560c0820151816006015560e082015181600701556101008201518160080160006101000a81548160ff0219169083151502179055509050506001600288604051610ec59190611f2c565b908152602001604051809103902060006101000a81548160ff021916908315150217905550600160003373ffffffffffffffffffffffffffffffffffffffff1673ffffffffffffffffffffffffffffffffffffffff16815260200190815260200160002087908060018154018082558091505060019003906000526020600020016000909190919091509080519060200190610f62929190611551565b503373ffffffffffffffffffffffffffffffffffffffff167f5fbec35e9b300bdacfaa98e1c044d0f9d1030ed9221a36cac1ae1174d350900489898989898989604051610fb59796959493929190612006565b60405180910390a25050505050505050565b606060003390506000600160008373ffffffffffffffffffffffffffffffffffffffff1673ffffffffffffffffffffffffffffffffffffffff168152602001908152602001600020805480602002602001604051908101604052809291908181526020016000905b828210156110db57838290600052602060002001805461104e906123e1565b80601f016020809104026020016040519081016040528092919081815260200182805461107a906123e1565b80156110c75780601f1061109c576101008083540402835291602001916110c7565b820191906000526020600020905b8154815290600101906020018083116110aa57829003601f168201915b50505050508152602001906001019061102f565b5050505090506000815167ffffffffffffffff811115611124577f4e487b7100000000000000000000000000000000000000000000000000000000600052604160045260246000fd5b60405190808252806020026020018201604052801561115d57816020015b61114a6114ed565b8152602001906001900390816111425790505b50905060005b82518110156113f45760008382815181106111a7577f4e487b7100000000000000000000000000000000000000000000000000000000600052603260045260246000fd5b60200260200101516040516111bc9190611f2c565b9081526020016040518091039020604051806101200160405290816000820160009054906101000a900473ffffffffffffffffffffffffffffffffffffffff1673ffffffffffffffffffffffffffffffffffffffff1673ffffffffffffffffffffffffffffffffffffffff16815260200160018201805461123c906123e1565b80601f0160208091040260200160405190810160405280929190818152602001828054611268906123e1565b80156112b55780601f1061128a576101008083540402835291602001916112b5565b820191906000526020600020905b81548152906001019060200180831161129857829003601f168201915b505050505081526020016002820180546112ce906123e1565b80601f01602080910402602001604051908101604052809291908181526020018280546112fa906123e1565b80156113475780601f1061131c57610100808354040283529160200191611347565b820191906000526020600020905b81548152906001019060200180831161132a57829003601f168201915b5050505050815260200160038201548152602001600482015481526020016005820154815260200160068201548152602001600782015481526020016008820160009054906101000a900460ff1615151515815250508282815181106113d6577f4e487b7100000000000000000000000000000000000000000000000000000000600052603260045260246000fd5b602002602001018190525080806113ec90612413565b915050611163565b5080935050505090565b60008073ffffffffffffffffffffffffffffffffffffffff166000836040516114279190611f2c565b908152602001604051809103902060000160009054906101000a900473ffffffffffffffffffffffffffffffffffffffff1673ffffffffffffffffffffffffffffffffffffffff1614159050919050565b600080825111801561148c57506020825111155b9050919050565b60008082119050919050565b600080821180156114b35750620151808211155b9050919050565b60008082119050919050565b60008082119050919050565b60008082511180156114e657506014825111155b9050919050565b604051806101200160405280600073ffffffffffffffffffffffffffffffffffffffff168152602001606081526020016060815260200160008152602001600081526020016000815260200160008152602001600081526020016000151581525090565b82805461155d906123e1565b90600052602060002090601f01602090048101928261157f57600085556115c6565b82601f1061159857805160ff19168380011785556115c6565b828001600101855582156115c6579182015b828111156115c55782518255916020019190600101906115aa565b5b5090506115d391906116a4565b5090565b5080546115e3906123e1565b6000825580601f106115f55750611614565b601f01602090049060005260206000209081019061161391906116a4565b5b50565b828054611623906123e1565b90600052602060002090601f0160209004810192826116455760008555611693565b82601f106116565780548555611693565b8280016001018555821561169357600052602060002091601f016020900482015b82811115611692578254825591600101919060010190611677565b5b5090506116a091906116a4565b5090565b5b808211156116bd5760008160009055506001016116a5565b5090565b60006116d46116cf8461226d565b61223c565b9050828152602081018484840111156116ec57600080fd5b6116f784828561239f565b509392505050565b600082601f83011261171057600080fd5b81356117208482602086016116c1565b91505092915050565b600081359050611738816124fa565b92915050565b60006020828403121561175057600080fd5b600082013567ffffffffffffffff81111561176a57600080fd5b611776848285016116ff565b91505092915050565b60008060008060008060c0878903121561179857600080fd5b600087013567ffffffffffffffff8111156117b257600080fd5b6117be89828a016116ff565b965050602087013567ffffffffffffffff8111156117db57600080fd5b6117e789828a016116ff565b95505060406117f889828a01611729565b945050606061180989828a01611729565b935050608061181a89828a01611729565b92505060a061182b89828a01611729565b9150509295509295509295565b60006118448383611d76565b905092915050565b61185581612357565b82525050565b6000611866826122c2565b61187081856122e5565b9350836020820285016118828561229d565b8060005b858110156118be578484038952815161189f8582611838565b94506118aa836122d8565b925060208a01995050600181019050611886565b50829750879550505050505092915050565b6118d981612369565b82525050565b6118e881612369565b82525050565b60006118f9826122cd565b61190381856122f6565b93506119138185602086016123ae565b61191c816124e9565b840191505092915050565b6000611932826122cd565b61193c8185612307565b935061194c8185602086016123ae565b611955816124e9565b840191505092915050565b600061196b826122cd565b6119758185612318565b93506119858185602086016123ae565b80840191505092915050565b6000815461199e816123e1565b6119a88186612307565b945060018216600081146119c357600181146119d557611a08565b60ff1983168652602086019350611a08565b6119de856122ad565b60005b83811015611a00578154818901526001820191506020810190506119e1565b808801955050505b50505092915050565b60008154611a1e816123e1565b611a288186612318565b94506001821660008114611a435760018114611a5457611a87565b60ff19831686528186019350611a87565b611a5d856122ad565b60005b83811015611a7f57815481890152600182019150602081019050611a60565b838801955050505b50505092915050565b6000611a9d601783612307565b91507f496e76616c696420646174614c696d69742072616e67650000000000000000006000830152602082019050919050565b6000611add601a83612307565b91507f416363657373506f696e74206e6f7420726567697374657265640000000000006000830152602082019050919050565b6000611b1d602683612307565b91507f4f6e6c7920746865206f776e65722063616e20706572666f726d20746869732060008301527f616374696f6e00000000000000000000000000000000000000000000000000006020830152604082019050919050565b6000611b83601b83612307565b91507f41636365737320706f696e74206e6f74207265676973746572656400000000006000830152602082019050919050565b6000611bc3601383612307565b91507f496e76616c69642073736964206c656e677468000000000000000000000000006000830152602082019050919050565b6000611c03601e83612307565b91507f4d4143206164647265737320616c7265616479207265676973746572656400006000830152602082019050919050565b6000611c43601583612307565b91507f496e76616c6964206d617854696d652072616e676500000000000000000000006000830152602082019050919050565b6000611c83601c83612307565b91507f496e76616c69642062616e6477696474684c696d69742072616e6765000000006000830152602082019050919050565b6000611cc3601e83612307565b91507f416363657373506f696e7420616c7265616479207265676973746572656400006000830152602082019050919050565b6000611d03601283612307565b91507f496e76616c6964206d6163206c656e67746800000000000000000000000000006000830152602082019050919050565b6000611d43600d83612307565b91507f496e76616c6964207072696365000000000000000000000000000000000000006000830152602082019050919050565b600061012083016000830151611d8f600086018261184c565b5060208301518482036020860152611da782826118ee565b91505060408301518482036040860152611dc182826118ee565b9150506060830151611dd66060860182611f0e565b506080830151611de96080860182611f0e565b5060a0830151611dfc60a0860182611f0e565b5060c0830151611e0f60c0860182611f0e565b5060e0830151611e2260e0860182611f0e565b50610100830151611e376101008601826118d0565b508091505092915050565b600061012083016000830151611e5b600086018261184c565b5060208301518482036020860152611e7382826118ee565b91505060408301518482036040860152611e8d82826118ee565b9150506060830151611ea26060860182611f0e565b506080830151611eb56080860182611f0e565b5060a0830151611ec860a0860182611f0e565b5060c0830151611edb60c0860182611f0e565b5060e0830151611eee60e0860182611f0e565b50610100830151611f036101008601826118d0565b508091505092915050565b611f1781612395565b82525050565b611f2681612395565b82525050565b6000611f388284611960565b915081905092915050565b6000611f4f8284611a11565b915081905092915050565b60006020820190508181036000830152611f74818461185b565b905092915050565b6000602082019050611f9160008301846118df565b92915050565b600060c0820190508181036000830152611fb18189611927565b90508181036020830152611fc58188611927565b9050611fd46040830187611f1d565b611fe16060830186611f1d565b611fee6080830185611f1d565b611ffb60a0830184611f1d565b979650505050505050565b600060e0820190508181036000830152612020818a611927565b905081810360208301526120348189611927565b90506120436040830188611f1d565b6120506060830187611f1d565b61205d6080830186611f1d565b61206a60a0830185611f1d565b61207760c0830184611f1d565b98975050505050505050565b6000604082019050818103600083015261209d8185611991565b905081810360208301526120b18184611927565b90509392505050565b600060208201905081810360008301526120d381611a90565b9050919050565b600060208201905081810360008301526120f381611ad0565b9050919050565b6000602082019050818103600083015261211381611b10565b9050919050565b6000602082019050818103600083015261213381611b76565b9050919050565b6000602082019050818103600083015261215381611bb6565b9050919050565b6000602082019050818103600083015261217381611bf6565b9050919050565b6000602082019050818103600083015261219381611c36565b9050919050565b600060208201905081810360008301526121b381611c76565b9050919050565b600060208201905081810360008301526121d381611cb6565b9050919050565b600060208201905081810360008301526121f381611cf6565b9050919050565b6000602082019050818103600083015261221381611d36565b9050919050565b600060208201905081810360008301526122348184611e42565b905092915050565b6000604051905081810181811067ffffffffffffffff82111715612263576122626124ba565b5b8060405250919050565b600067ffffffffffffffff821115612288576122876124ba565b5b601f19601f8301169050602081019050919050565b6000819050602082019050919050565b60008190508160005260206000209050919050565b600081519050919050565b600081519050919050565b6000602082019050919050565b600082825260208201905092915050565b600082825260208201905092915050565b600082825260208201905092915050565b600081905092915050565b600061232e82612395565b915061233983612395565b92508282101561234c5761234b61245c565b5b828203905092915050565b600061236282612375565b9050919050565b60008115159050919050565b600073ffffffffffffffffffffffffffffffffffffffff82169050919050565b6000819050919050565b82818337600083830152505050565b60005b838110156123cc5780820151818401526020810190506123b1565b838111156123db576000848401525b50505050565b600060028204905060018216806123f957607f821691505b6020821081141561240d5761240c61248b565b5b50919050565b600061241e82612395565b91507fffffffffffffffffffffffffffffffffffffffffffffffffffffffffffffffff8214156124515761245061245c565b5b600182019050919050565b7f4e487b7100000000000000000000000000000000000000000000000000000000600052601160045260246000fd5b7f4e487b7100000000000000000000000000000000000000000000000000000000600052602260045260246000fd5b7f4e487b7100000000000000000000000000000000000000000000000000000000600052604160045260246000fd5b6000601f19601f8301169050919050565b61250381612395565b811461250e57600080fd5b5056fea26469706673582212205e05c57c44dcf0b5fabbca26530d8babef1003dada186286e98b14f338bde4e964736f6c63430008000033",
  "linkReferences": {},
  "deployedLinkReferences": {}
}