{
  "_format": "hh-sol-artifact-1",
  "contractName": "WiFeeAccess",
  "sourceName": "contracts/WiFeeAccess.sol",
  "abi": [
    {
      "inputs": [
        {
          "internalType": "address",
          "name": "wiFeeRegistryAddress",
          "type": "address"
        },
        {
          "internalType": "address payable",
          "name": "internetTokenAddress",
          "type": "address"
        },
        {
          "internalType": "address payable",
          "name": "recompenseTokenAddress",
          "type": "address"
        }
      ],
      "stateMutability": "nonpayable",
      "type": "constructor"
    },
    {
      "anonymous": false,
      "inputs": [
        {
          "indexed": true,
          "internalType": "uint256",
          "name": "userToken",
          "type": "uint256"
        },
        {
          "indexed": false,
          "internalType": "string",
          "name": "mac",
          "type": "string"
        },
        {
          "indexed": false,
          "internalType": "uint256",
          "name": "startTime",
          "type": "uint256"
        },
        {
          "indexed": false,
          "internalType": "uint256",
          "name": "endTime",
          "type": "uint256"
        }
      ],
      "name": "Connected",
      "type": "event"
    },
    {
      "anonymous": false,
      "inputs": [
        {
          "indexed": true,
          "internalType": "uint256",
          "name": "userToken",
          "type": "uint256"
        },
        {
          "indexed": false,
          "internalType": "string",
          "name": "mac",
          "type": "string"
        },
        {
          "indexed": false,
          "internalType": "uint256",
          "name": "endTime",
          "type": "uint256"
        }
      ],
      "name": "Disconnected",
      "type": "event"
    },
    {
      "anonymous": false,
      "inputs": [
        {
          "indexed": true,
          "internalType": "uint256",
          "name": "userToken",
          "type": "uint256"
        },
        {
          "indexed": false,
          "internalType": "uint256",
          "name": "tokens",
          "type": "uint256"
        }
      ],
      "name": "TokensBought",
      "type": "event"
    },
    {
      "anonymous": false,
      "inputs": [
        {
          "indexed": false,
          "internalType": "uint256",
          "name": "userToken",
          "type": "uint256"
        }
      ],
      "name": "UserTokenCreated",
      "type": "event"
    },
    {
      "anonymous": false,
      "inputs": [
        {
          "indexed": false,
          "internalType": "uint256",
          "name": "userToken",
          "type": "uint256"
        }
      ],
      "name": "UserTokenRevoked",
      "type": "event"
    },
    {
      "inputs": [
        {
          "internalType": "uint256",
          "name": "userToken",
          "type": "uint256"
        },
        {
          "internalType": "string",
          "name": "mac",
          "type": "string"
        },
        {
          "internalType": "uint256",
          "name": "duration",
          "type": "uint256"
        },
        {
          "internalType": "uint256",
          "name": "bandwidth",
          "type": "uint256"
        },
        {
          "internalType": "uint256",
          "name": "dataLimit",
          "type": "uint256"
        }
      ],
      "name": "connect",
      "outputs": [],
      "stateMutability": "nonpayable",
      "type": "function"
    },
    {
      "inputs": [],
      "name": "createTokenForUser",
      "outputs": [],
      "stateMutability": "nonpayable",
      "type": "function"
    },
    {
      "inputs": [
        {
          "internalType": "uint256",
          "name": "userToken",
          "type": "uint256"
        }
      ],
      "name": "disconnect",
      "outputs": [],
      "stateMutability": "nonpayable",
      "type": "function"
    },
    {
      "inputs": [
        {
          "internalType": "string",
          "name": "_mac",
          "type": "string"
        }
      ],
      "name": "getAPInfo",
      "outputs": [
        {
          "components": [
            {
              "internalType": "address",
              "name": "owner",
              "type": "address"
            },
            {
              "internalType": "string",
              "name": "ssid",
              "type": "string"
            },
            {
              "internalType": "string",
              "name": "mac",
              "type": "string"
            },
            {
              "internalType": "uint256",
              "name": "price",
              "type": "uint256"
            },
            {
              "internalType": "uint256",
              "name": "maxTime",
              "type": "uint256"
            },
            {
              "internalType": "bool",
              "name": "active",
              "type": "bool"
            }
          ],
          "internalType": "struct WiFeeRegistry.AccessPoint",
          "name": "",
          "type": "tuple"
        }
      ],
      "stateMutability": "view",
      "type": "function"
    },
    {
      "inputs": [
        {
          "internalType": "string",
          "name": "_mac",
          "type": "string"
        }
      ],
      "name": "getConnectedUserTokens",
      "outputs": [
        {
          "internalType": "uint256[]",
          "name": "",
          "type": "uint256[]"
        }
      ],
      "stateMutability": "view",
      "type": "function"
    },
    {
      "inputs": [
        {
          "internalType": "uint256",
          "name": "userToken",
          "type": "uint256"
        }
      ],
      "name": "getConnectionBandwidthDataLimit",
      "outputs": [
        {
          "internalType": "uint256",
          "name": "",
          "type": "uint256"
        },
        {
          "internalType": "uint256",
          "name": "",
          "type": "uint256"
        }
      ],
      "stateMutability": "view",
      "type": "function"
    },
    {
      "inputs": [
        {
          "internalType": "uint256",
          "name": "userToken",
          "type": "uint256"
        }
      ],
      "name": "getConnectionInfo",
      "outputs": [
        {
          "components": [
            {
              "internalType": "string",
              "name": "mac",
              "type": "string"
            },
            {
              "internalType": "uint256",
              "name": "startTime",
              "type": "uint256"
            },
            {
              "internalType": "uint256",
              "name": "endTime",
              "type": "uint256"
            },
            {
              "internalType": "uint256",
              "name": "tokensPaid",
              "type": "uint256"
            },
            {
              "internalType": "bool",
              "name": "isConnected",
              "type": "bool"
            },
            {
              "internalType": "uint256",
              "name": "bandwidth",
              "type": "uint256"
            },
            {
              "internalType": "uint256",
              "name": "dataLimit",
              "type": "uint256"
            }
          ],
          "internalType": "struct WiFeeAccess.Connection",
          "name": "",
          "type": "tuple"
        }
      ],
      "stateMutability": "view",
      "type": "function"
    },
    {
      "inputs": [
        {
          "internalType": "string",
          "name": "mac",
          "type": "string"
        },
        {
          "internalType": "uint256",
          "name": "connectedTime",
          "type": "uint256"
        }
      ],
      "name": "getConnectionPrice",
      "outputs": [
        {
          "internalType": "uint256",
          "name": "",
          "type": "uint256"
        }
      ],
      "stateMutability": "view",
      "type": "function"
    },
    {
      "inputs": [
        {
          "internalType": "uint256",
          "name": "userToken",
          "type": "uint256"
        }
      ],
      "name": "getConnectionTimes",
      "outputs": [
        {
          "internalType": "uint256",
          "name": "",
          "type": "uint256"
        },
        {
          "internalType": "uint256",
          "name": "",
          "type": "uint256"
        },
        {
          "internalType": "uint256",
          "name": "",
          "type": "uint256"
        }
      ],
      "stateMutability": "view",
      "type": "function"
    },
    {
      "inputs": [],
      "name": "owner",
      "outputs": [
        {
          "internalType": "address payable",
          "name": "",
          "type": "address"
        }
      ],
      "stateMutability": "view",
      "type": "function"
    }
  ],
  "bytecode": "0x608060405260006008553480156200001657600080fd5b50604051620033533803806200335383398181016040528101906200003c919062000176565b826000806101000a81548173ffffffffffffffffffffffffffffffffffffffff021916908373ffffffffffffffffffffffffffffffffffffffff16021790555081600160006101000a81548173ffffffffffffffffffffffffffffffffffffffff021916908373ffffffffffffffffffffffffffffffffffffffff16021790555080600260006101000a81548173ffffffffffffffffffffffffffffffffffffffff021916908373ffffffffffffffffffffffffffffffffffffffff16021790555033600760006101000a81548173ffffffffffffffffffffffffffffffffffffffff021916908373ffffffffffffffffffffffffffffffffffffffff16021790555050505062000248565b600081519050620001598162000214565b92915050565b60008151905062000170816200022e565b92915050565b6000806000606084860312156200018c57600080fd5b60006200019c8682870162000148565b9350506020620001af868287016200015f565b9250506040620001c2868287016200015f565b9150509250925092565b6000620001d982620001f4565b9050919050565b6000620001ed82620001f4565b9050919050565b600073ffffffffffffffffffffffffffffffffffffffff82169050919050565b6200021f81620001cc565b81146200022b57600080fd5b50565b6200023981620001e0565b81146200024557600080fd5b50565b6130fb80620002586000396000f3fe608060405234801561001057600080fd5b506004361061009e5760003560e01c806347588f1f1161006657806347588f1f1461019657806361f9875f146101b25780638da5cb5b146101bc578063b5e72550146101da578063c833f472146101f65761009e565b806306300d9b146100a35780630c2899b0146100d35780630d2f6042146101045780630f635dd4146101345780632992c1bc14610164575b600080fd5b6100bd60048036038101906100b891906120e2565b610226565b6040516100ca9190612982565b60405180910390f35b6100ed60048036038101906100e891906121b8565b6103c4565b6040516100fb929190612c05565b60405180910390f35b61011e600480360381019061011991906120e2565b610560565b60405161012b9190612ba6565b60405180910390f35b61014e600480360381019061014991906121b8565b61061d565b60405161015b9190612bc8565b60405180910390f35b61017e600480360381019061017991906121b8565b6107ad565b60405161018d93929190612c2e565b60405180910390f35b6101b060048036038101906101ab91906121b8565b610956565b005b6101ba6110a8565b005b6101c46111c4565b6040516101d19190612907565b60405180910390f35b6101f460048036038101906101ef919061220a565b6111ea565b005b610210600480360381019061020b9190612123565b6117a2565b60405161021d9190612bea565b60405180910390f35b606060008060009054906101000a900473ffffffffffffffffffffffffffffffffffffffff1673ffffffffffffffffffffffffffffffffffffffff16630d2f6042846040518263ffffffff1660e01b815260040161028491906129a4565b60006040518083038186803b15801561029c57600080fd5b505afa1580156102b0573d6000803e3d6000fd5b505050506040513d6000823e3d601f19601f820116820180604052508101906102d99190612177565b9050600073ffffffffffffffffffffffffffffffffffffffff16816000015173ffffffffffffffffffffffffffffffffffffffff16141561034f576040517f08c379a000000000000000000000000000000000000000000000000000000000815260040161034690612ac6565b60405180910390fd5b60068360405161035f9190612898565b90815260200160405180910390208054806020026020016040519081016040528092919081815260200182805480156103b757602002820191906000526020600020905b8154815260200190600101908083116103a3575b5050505050915050919050565b600080826103d18161192c565b610410576040517f08c379a000000000000000000000000000000000000000000000000000000000815260040161040790612b06565b60405180910390fd5b600061041b85611998565b90506000600360008373ffffffffffffffffffffffffffffffffffffffff1673ffffffffffffffffffffffffffffffffffffffff1681526020019081526020016000206040518060e001604052908160008201805461047990612efd565b80601f01602080910402602001604051908101604052809291908181526020018280546104a590612efd565b80156104f25780601f106104c7576101008083540402835291602001916104f2565b820191906000526020600020905b8154815290600101906020018083116104d557829003601f168201915b505050505081526020016001820154815260200160028201548152602001600382015481526020016004820160009054906101000a900460ff161515151581526020016005820154815260200160068201548152505090508060a001518160c0015194509450505050915091565b610568611d59565b60008054906101000a900473ffffffffffffffffffffffffffffffffffffffff1673ffffffffffffffffffffffffffffffffffffffff16630d2f6042836040518263ffffffff1660e01b81526004016105c191906129a4565b60006040518083038186803b1580156105d957600080fd5b505afa1580156105ed573d6000803e3d6000fd5b505050506040513d6000823e3d601f19601f820116820180604052508101906106169190612177565b9050919050565b610625611da7565b8161062f8161192c565b61066e576040517f08c379a000000000000000000000000000000000000000000000000000000000815260040161066590612b06565b60405180910390fd5b600061067984611998565b9050600360008273ffffffffffffffffffffffffffffffffffffffff1673ffffffffffffffffffffffffffffffffffffffff1681526020019081526020016000206040518060e00160405290816000820180546106d590612efd565b80601f016020809104026020016040519081016040528092919081815260200182805461070190612efd565b801561074e5780601f106107235761010080835404028352916020019161074e565b820191906000526020600020905b81548152906001019060200180831161073157829003601f168201915b505050505081526020016001820154815260200160028201548152602001600382015481526020016004820160009054906101000a900460ff161515151581526020016005820154815260200160068201548152505092505050919050565b6000806000836107bc8161192c565b6107fb576040517f08c379a00000000000000000000000000000000000000000000000000000000081526004016107f290612b06565b60405180910390fd5b600061080686611998565b90506000600360008373ffffffffffffffffffffffffffffffffffffffff1673ffffffffffffffffffffffffffffffffffffffff1681526020019081526020016000206040518060e001604052908160008201805461086490612efd565b80601f016020809104026020016040519081016040528092919081815260200182805461089090612efd565b80156108dd5780601f106108b2576101008083540402835291602001916108dd565b820191906000526020600020905b8154815290600101906020018083116108c057829003601f168201915b505050505081526020016001820154815260200160028201548152602001600382015481526020016004820160009054906101000a900460ff1615151515815260200160058201548152602001600682015481525050905060004290508160200151818360400151965096509650505050509193909250565b806109608161192c565b61099f576040517f08c379a000000000000000000000000000000000000000000000000000000000815260040161099690612b06565b60405180910390fd5b60006109aa83611998565b90506000600360008373ffffffffffffffffffffffffffffffffffffffff1673ffffffffffffffffffffffffffffffffffffffff16815260200190815260200160002090508060040160009054906101000a900460ff16610a40576040517f08c379a0000000000000000000000000000000000000000000000000000000008152600401610a3790612ae6565b60405180910390fd5b60008054906101000a900473ffffffffffffffffffffffffffffffffffffffff1673ffffffffffffffffffffffffffffffffffffffff16630d2f6042826000016040518263ffffffff1660e01b8152600401610a9c9190612a34565b60006040518083038186803b158015610ab457600080fd5b505afa158015610ac8573d6000803e3d6000fd5b505050506040513d6000823e3d601f19601f82011682018060405250810190610af19190612177565b6000015173ffffffffffffffffffffffffffffffffffffffff163373ffffffffffffffffffffffffffffffffffffffff1614610b62576040517f08c379a0000000000000000000000000000000000000000000000000000000008152600401610b5990612b46565b60405180910390fd5b60008060009054906101000a900473ffffffffffffffffffffffffffffffffffffffff1673ffffffffffffffffffffffffffffffffffffffff16630d2f6042836000016040518263ffffffff1660e01b8152600401610bc19190612a34565b60006040518083038186803b158015610bd957600080fd5b505afa158015610bed573d6000803e3d6000fd5b505050506040513d6000823e3d601f19601f82011682018060405250810190610c169190612177565b905060004290506000836001015482610c2f9190612e2d565b90506000603c601e83610c429190612d4c565b610c4c9190612da2565b90506000670de0b6b3a7640000856060015183610c699190612dd3565b610c739190612dd3565b9050610cb46040518060400160405280601181526020017f61637475616c456e6454696d653a20257300000000000000000000000000000081525085611a77565b610cf76040518060400160405280601a81526020017f75736572436f6e6e656374696f6e2e656e6454696d653a2025730000000000008152508760020154611a77565b8560020154841015610dc9576000818760030154610d159190612e2d565b9050600160009054906101000a900473ffffffffffffffffffffffffffffffffffffffff1673ffffffffffffffffffffffffffffffffffffffff1663a9059cbb89836040518363ffffffff1660e01b8152600401610d74929190612959565b602060405180830381600087803b158015610d8e57600080fd5b505af1158015610da2573d6000803e3d6000fd5b505050506040513d601f19601f82011682018060405250810190610dc691906120b9565b50505b600160009054906101000a900473ffffffffffffffffffffffffffffffffffffffff1673ffffffffffffffffffffffffffffffffffffffff1663a9059cbb8660000151836040518363ffffffff1660e01b8152600401610e2a929190612959565b602060405180830381600087803b158015610e4457600080fd5b505af1158015610e58573d6000803e3d6000fd5b505050506040513d601f19601f82011682018060405250810190610e7c91906120b9565b506000610e8d876001015486611b13565b9050600260009054906101000a900473ffffffffffffffffffffffffffffffffffffffff1673ffffffffffffffffffffffffffffffffffffffff166340c10f1989836040518363ffffffff1660e01b8152600401610eec929190612959565b600060405180830381600087803b158015610f0657600080fd5b505af1158015610f1a573d6000803e3d6000fd5b5050505060008760040160006101000a81548160ff021916908315150217905550610fd1876000018054610f4d90612efd565b80601f0160208091040260200160405190810160405280929190818152602001828054610f7990612efd565b8015610fc65780601f10610f9b57610100808354040283529160200191610fc6565b820191906000526020600020905b815481529060010190602001808311610fa957829003601f168201915b50505050508b611b65565b897f478bce134704bd99193a073688098bdbd5ea2ff339ed09105c7a03e979b055c48860000187604051611006929190612a56565b60405180910390a2600360008973ffffffffffffffffffffffffffffffffffffffff1673ffffffffffffffffffffffffffffffffffffffff1681526020019081526020016000206000808201600061105e9190611de6565b6001820160009055600282016000905560038201600090556004820160006101000a81549060ff021916905560058201600090556006820160009055505050505050505050505050565b600860008154809291906110bb90612f2f565b9190505550600042336008546040516020016110d9939291906128af565b6040516020818303038152906040528051906020012060001c9050336004600083815260200190815260200160002060006101000a81548173ffffffffffffffffffffffffffffffffffffffff021916908373ffffffffffffffffffffffffffffffffffffffff16021790555080600560003373ffffffffffffffffffffffffffffffffffffffff1673ffffffffffffffffffffffffffffffffffffffff168152602001908152602001600020819055507fd34fd2c214fa047be7cd22a9a404a479b80f13f78364990bff299fcb8798be93816040516111b99190612bea565b60405180910390a150565b600760009054906101000a900473ffffffffffffffffffffffffffffffffffffffff1681565b843373ffffffffffffffffffffffffffffffffffffffff1661120b82611998565b73ffffffffffffffffffffffffffffffffffffffff1614611261576040517f08c379a000000000000000000000000000000000000000000000000000000000815260040161125890612b86565b60405180910390fd5b8561126b8161192c565b6112aa576040517f08c379a00000000000000000000000000000000000000000000000000000000081526004016112a190612b06565b60405180910390fd5b60008060009054906101000a900473ffffffffffffffffffffffffffffffffffffffff1673ffffffffffffffffffffffffffffffffffffffff16630d2f6042886040518263ffffffff1660e01b815260040161130691906129a4565b60006040518083038186803b15801561131e57600080fd5b505afa158015611332573d6000803e3d6000fd5b505050506040513d6000823e3d601f19601f8201168201806040525081019061135b9190612177565b90508060a001516113a1576040517f08c379a000000000000000000000000000000000000000000000000000000000815260040161139890612a86565b60405180910390fd5b6000600360003373ffffffffffffffffffffffffffffffffffffffff1673ffffffffffffffffffffffffffffffffffffffff16815260200190815260200160002090508060040160009054906101000a900460ff1615611436576040517f08c379a000000000000000000000000000000000000000000000000000000000815260040161142d90612b66565b60405180910390fd5b60004290506000603c8961144a9190612dd3565b826114559190612d4c565b90508360800151826114679190612d4c565b8111156114a9576040517f08c379a00000000000000000000000000000000000000000000000000000000081526004016114a090612aa6565b60405180910390fd5b6000600160009054906101000a900473ffffffffffffffffffffffffffffffffffffffff1673ffffffffffffffffffffffffffffffffffffffff16637ff9b5966040518163ffffffff1660e01b815260040160206040518083038186803b15801561151357600080fd5b505afa158015611527573d6000803e3d6000fd5b505050506040513d601f19601f8201168201806040525081019061154b91906121e1565b85606001518b61155b9190612dd3565b6115659190612dd3565b90506000600160009054906101000a900473ffffffffffffffffffffffffffffffffffffffff1673ffffffffffffffffffffffffffffffffffffffff166370a08231336040518263ffffffff1660e01b81526004016115c491906128ec565b60206040518083038186803b1580156115dc57600080fd5b505afa1580156115f0573d6000803e3d6000fd5b505050506040513d601f19601f8201168201806040525081019061161491906121e1565b905081811015611659576040517f08c379a000000000000000000000000000000000000000000000000000000000815260040161165090612b26565b60405180910390fd5b600160009054906101000a900473ffffffffffffffffffffffffffffffffffffffff1673ffffffffffffffffffffffffffffffffffffffff1663a64b6e5f3330856040518463ffffffff1660e01b81526004016116b893929190612922565b600060405180830381600087803b1580156116d257600080fd5b505af11580156116e6573d6000803e3d6000fd5b505050506116f48c8e611ce7565b8b85600001908051906020019061170c929190611e26565b5083856001018190555082856002018190555081856003018190555060018560040160006101000a81548160ff0219169083151502179055508985600501819055508885600601819055508c7f24c394f60382045dbfbbafee67cffce15beaa10393e084f5487a92695360ed6e8d868660405161178b939291906129f6565b60405180910390a250505050505050505050505050565b60008060008054906101000a900473ffffffffffffffffffffffffffffffffffffffff1673ffffffffffffffffffffffffffffffffffffffff16630d2f6042856040518263ffffffff1660e01b81526004016117fe91906129a4565b60006040518083038186803b15801561181657600080fd5b505afa15801561182a573d6000803e3d6000fd5b505050506040513d6000823e3d601f19601f820116820180604052508101906118539190612177565b9050600073ffffffffffffffffffffffffffffffffffffffff16816000015173ffffffffffffffffffffffffffffffffffffffff1614156118c9576040517f08c379a00000000000000000000000000000000000000000000000000000000081526004016118c090612ac6565b60405180910390fd5b8060a0015161190d576040517f08c379a000000000000000000000000000000000000000000000000000000000815260040161190490612a86565b60405180910390fd5b600083826060015161191f9190612dd3565b9050809250505092915050565b60008073ffffffffffffffffffffffffffffffffffffffff166004600084815260200190815260200160002060009054906101000a900473ffffffffffffffffffffffffffffffffffffffff1673ffffffffffffffffffffffffffffffffffffffff1614159050919050565b60008073ffffffffffffffffffffffffffffffffffffffff166004600084815260200190815260200160002060009054906101000a900473ffffffffffffffffffffffffffffffffffffffff1673ffffffffffffffffffffffffffffffffffffffff161415611a3c576040517f08c379a0000000000000000000000000000000000000000000000000000000008152600401611a3390612b06565b60405180910390fd5b6004600083815260200190815260200160002060009054906101000a900473ffffffffffffffffffffffffffffffffffffffff169050919050565b611b0f8282604051602401611a8d9291906129c6565b6040516020818303038152906040527fb60e72cc000000000000000000000000000000000000000000000000000000007bffffffffffffffffffffffffffffffffffffffffffffffffffffffff19166020820180517bffffffffffffffffffffffffffffffffffffffffffffffffffffffff8381831617835250505050611d30565b5050565b6000808383611b229190612e2d565b90506000603c601e83611b359190612d4c565b611b3f9190612da2565b90506000670de0b6b3a764000082611b579190612dd3565b905080935050505092915050565b6000600683604051611b779190612898565b9081526020016040518091039020905060005b8180549050811015611ce15782828281548110611bd0577f4e487b7100000000000000000000000000000000000000000000000000000000600052603260045260246000fd5b90600052602060002001541415611cce578160018380549050611bf39190612e2d565b81548110611c2a577f4e487b7100000000000000000000000000000000000000000000000000000000600052603260045260246000fd5b9060005260206000200154828281548110611c6e577f4e487b7100000000000000000000000000000000000000000000000000000000600052603260045260246000fd5b906000526020600020018190555081805480611cb3577f4e487b7100000000000000000000000000000000000000000000000000000000600052603160045260246000fd5b60019003818190600052602060002001600090559055611ce1565b8080611cd990612f2f565b915050611b8a565b50505050565b600682604051611cf79190612898565b90815260200160405180910390208190806001815401808255809150506001900390600052602060002001600090919091909150555050565b60008151905060006a636f6e736f6c652e6c6f679050602083016000808483855afa5050505050565b6040518060c00160405280600073ffffffffffffffffffffffffffffffffffffffff168152602001606081526020016060815260200160008152602001600081526020016000151581525090565b6040518060e001604052806060815260200160008152602001600081526020016000815260200160001515815260200160008152602001600081525090565b508054611df290612efd565b6000825580601f10611e045750611e23565b601f016020900490600052602060002090810190611e229190611eac565b5b50565b828054611e3290612efd565b90600052602060002090601f016020900481019282611e545760008555611e9b565b82601f10611e6d57805160ff1916838001178555611e9b565b82800160010185558215611e9b579182015b82811115611e9a578251825591602001919060010190611e7f565b5b509050611ea89190611eac565b5090565b5b80821115611ec5576000816000905550600101611ead565b5090565b6000611edc611ed784612c96565b612c65565b905082815260208101848484011115611ef457600080fd5b611eff848285612ebb565b509392505050565b6000611f1a611f1584612c96565b612c65565b905082815260208101848484011115611f3257600080fd5b611f3d848285612eca565b509392505050565b600081519050611f5481613080565b92915050565b600081519050611f6981613097565b92915050565b600082601f830112611f8057600080fd5b8135611f90848260208601611ec9565b91505092915050565b600082601f830112611faa57600080fd5b8151611fba848260208601611f07565b91505092915050565b600060c08284031215611fd557600080fd5b611fdf60c0612c65565b90506000611fef84828501611f45565b600083015250602082015167ffffffffffffffff81111561200f57600080fd5b61201b84828501611f99565b602083015250604082015167ffffffffffffffff81111561203b57600080fd5b61204784828501611f99565b604083015250606061205b848285016120a4565b606083015250608061206f848285016120a4565b60808301525060a061208384828501611f5a565b60a08301525092915050565b60008135905061209e816130ae565b92915050565b6000815190506120b3816130ae565b92915050565b6000602082840312156120cb57600080fd5b60006120d984828501611f5a565b91505092915050565b6000602082840312156120f457600080fd5b600082013567ffffffffffffffff81111561210e57600080fd5b61211a84828501611f6f565b91505092915050565b6000806040838503121561213657600080fd5b600083013567ffffffffffffffff81111561215057600080fd5b61215c85828601611f6f565b925050602061216d8582860161208f565b9150509250929050565b60006020828403121561218957600080fd5b600082015167ffffffffffffffff8111156121a357600080fd5b6121af84828501611fc3565b91505092915050565b6000602082840312156121ca57600080fd5b60006121d88482850161208f565b91505092915050565b6000602082840312156121f357600080fd5b6000612201848285016120a4565b91505092915050565b600080600080600060a0868803121561222257600080fd5b60006122308882890161208f565b955050602086013567ffffffffffffffff81111561224d57600080fd5b61225988828901611f6f565b945050604061226a8882890161208f565b935050606061227b8882890161208f565b925050608061228c8882890161208f565b9150509295509295909350565b60006122a58383612863565b60208301905092915050565b6122ba81612e73565b82525050565b6122c981612e61565b82525050565b6122d881612e61565b82525050565b6122ef6122ea82612e61565b612f78565b82525050565b600061230082612ceb565b61230a8185612d0e565b935061231583612cc6565b8060005b8381101561234657815161232d8882612299565b975061233883612d01565b925050600181019050612319565b5085935050505092915050565b61235c81612e85565b82525050565b600061236d82612cf6565b6123778185612d1f565b9350612387818560208601612eca565b61239081613062565b840191505092915050565b60006123a682612cf6565b6123b08185612d30565b93506123c0818560208601612eca565b6123c981613062565b840191505092915050565b60006123df82612cf6565b6123e98185612d41565b93506123f9818560208601612eca565b80840191505092915050565b6000815461241281612efd565b61241c8186612d30565b9450600182166000811461243757600181146124495761247c565b60ff198316865260208601935061247c565b61245285612cd6565b60005b8381101561247457815481890152600182019150602081019050612455565b808801955050505b50505092915050565b6000612492601783612d30565b91507f41636365737320706f696e74206e6f74206163746976650000000000000000006000830152602082019050919050565b60006124d2602683612d30565b91507f4475726174696f6e20657863656564732061636365737320706f696e74206d6160008301527f782074696d6500000000000000000000000000000000000000000000000000006020830152604082019050919050565b6000612538601b83612d30565b91507f41636365737320706f696e74206e6f74207265676973746572656400000000006000830152602082019050919050565b6000612578601583612d30565b91507f55736572206973206e6f7420636f6e6e656374656400000000000000000000006000830152602082019050919050565b60006125b8601483612d30565b91507f546f6b656e20646f6573206e6f742065786973740000000000000000000000006000830152602082019050919050565b60006125f8601d83612d30565b91507f4e6f7420656e6f75676820746f6b656e7320666f72207061796d656e740000006000830152602082019050919050565b6000612638602783612d30565b91507f4f6e6c7920746865204150206f776e65722063616e20646973636f6e6e65637460008301527f20612075736572000000000000000000000000000000000000000000000000006020830152604082019050919050565b600061269e601983612d30565b91507f5573657220697320616c726561647920636f6e6e6563746564000000000000006000830152602082019050919050565b60006126de602483612d30565b91507f5573657220746f6b656e20646f6573206e6f74206d617463682074686520736560008301527f6e646572000000000000000000000000000000000000000000000000000000006020830152604082019050919050565b600060c08301600083015161274f60008601826122c0565b50602083015184820360208601526127678282612362565b915050604083015184820360408601526127818282612362565b91505060608301516127966060860182612863565b5060808301516127a96080860182612863565b5060a08301516127bc60a0860182612353565b508091505092915050565b600060e08301600083015184820360008601526127e48282612362565b91505060208301516127f96020860182612863565b50604083015161280c6040860182612863565b50606083015161281f6060860182612863565b5060808301516128326080860182612353565b5060a083015161284560a0860182612863565b5060c083015161285860c0860182612863565b508091505092915050565b61286c81612eb1565b82525050565b61287b81612eb1565b82525050565b61289261288d82612eb1565b612f9c565b82525050565b60006128a482846123d4565b915081905092915050565b60006128bb8286612881565b6020820191506128cb82856122de565b6014820191506128db8284612881565b602082019150819050949350505050565b600060208201905061290160008301846122cf565b92915050565b600060208201905061291c60008301846122b1565b92915050565b600060608201905061293760008301866122cf565b61294460208301856122cf565b6129516040830184612872565b949350505050565b600060408201905061296e60008301856122cf565b61297b6020830184612872565b9392505050565b6000602082019050818103600083015261299c81846122f5565b905092915050565b600060208201905081810360008301526129be818461239b565b905092915050565b600060408201905081810360008301526129e0818561239b565b90506129ef6020830184612872565b9392505050565b60006060820190508181036000830152612a10818661239b565b9050612a1f6020830185612872565b612a2c6040830184612872565b949350505050565b60006020820190508181036000830152612a4e8184612405565b905092915050565b60006040820190508181036000830152612a708185612405565b9050612a7f6020830184612872565b9392505050565b60006020820190508181036000830152612a9f81612485565b9050919050565b60006020820190508181036000830152612abf816124c5565b9050919050565b60006020820190508181036000830152612adf8161252b565b9050919050565b60006020820190508181036000830152612aff8161256b565b9050919050565b60006020820190508181036000830152612b1f816125ab565b9050919050565b60006020820190508181036000830152612b3f816125eb565b9050919050565b60006020820190508181036000830152612b5f8161262b565b9050919050565b60006020820190508181036000830152612b7f81612691565b9050919050565b60006020820190508181036000830152612b9f816126d1565b9050919050565b60006020820190508181036000830152612bc08184612737565b905092915050565b60006020820190508181036000830152612be281846127c7565b905092915050565b6000602082019050612bff6000830184612872565b92915050565b6000604082019050612c1a6000830185612872565b612c276020830184612872565b9392505050565b6000606082019050612c436000830186612872565b612c506020830185612872565b612c5d6040830184612872565b949350505050565b6000604051905081810181811067ffffffffffffffff82111715612c8c57612c8b613033565b5b8060405250919050565b600067ffffffffffffffff821115612cb157612cb0613033565b5b601f19601f8301169050602081019050919050565b6000819050602082019050919050565b60008190508160005260206000209050919050565b600081519050919050565b600081519050919050565b6000602082019050919050565b600082825260208201905092915050565b600082825260208201905092915050565b600082825260208201905092915050565b600081905092915050565b6000612d5782612eb1565b9150612d6283612eb1565b9250827fffffffffffffffffffffffffffffffffffffffffffffffffffffffffffffffff03821115612d9757612d96612fa6565b5b828201905092915050565b6000612dad82612eb1565b9150612db883612eb1565b925082612dc857612dc7612fd5565b5b828204905092915050565b6000612dde82612eb1565b9150612de983612eb1565b9250817fffffffffffffffffffffffffffffffffffffffffffffffffffffffffffffffff0483118215151615612e2257612e21612fa6565b5b828202905092915050565b6000612e3882612eb1565b9150612e4383612eb1565b925082821015612e5657612e55612fa6565b5b828203905092915050565b6000612e6c82612e91565b9050919050565b6000612e7e82612e91565b9050919050565b60008115159050919050565b600073ffffffffffffffffffffffffffffffffffffffff82169050919050565b6000819050919050565b82818337600083830152505050565b60005b83811015612ee8578082015181840152602081019050612ecd565b83811115612ef7576000848401525b50505050565b60006002820490506001821680612f1557607f821691505b60208210811415612f2957612f28613004565b5b50919050565b6000612f3a82612eb1565b91507fffffffffffffffffffffffffffffffffffffffffffffffffffffffffffffffff821415612f6d57612f6c612fa6565b5b600182019050919050565b6000612f8382612f8a565b9050919050565b6000612f9582613073565b9050919050565b6000819050919050565b7f4e487b7100000000000000000000000000000000000000000000000000000000600052601160045260246000fd5b7f4e487b7100000000000000000000000000000000000000000000000000000000600052601260045260246000fd5b7f4e487b7100000000000000000000000000000000000000000000000000000000600052602260045260246000fd5b7f4e487b7100000000000000000000000000000000000000000000000000000000600052604160045260246000fd5b6000601f19601f8301169050919050565b60008160601b9050919050565b61308981612e61565b811461309457600080fd5b50565b6130a081612e85565b81146130ab57600080fd5b50565b6130b781612eb1565b81146130c257600080fd5b5056fea2646970667358221220a08f66258e6d0256cf9619bf3dc3d593b1357049d8a76669ac4d634e0e600e6d64736f6c63430008000033",
  "linkReferences": {},
  "deployedLinkReferences": {}
}