{
  "_format": "hh-sol-artifact-1",
  "contractName": "WiFeeAccess",
  "sourceName": "contracts/WiFeeAccess.sol",
  "abi": [
    {
      "inputs": [
        {
          "internalType": "address",
          "name": "wiFeeRegistryAddress",
          "type": "address"
        },
        {
          "internalType": "address payable",
          "name": "internetTokenAddress",
          "type": "address"
        },
        {
          "internalType": "address payable",
          "name": "recompenseTokenAddress",
          "type": "address"
        }
      ],
      "stateMutability": "nonpayable",
      "type": "constructor"
    },
    {
      "anonymous": false,
      "inputs": [
        {
          "indexed": true,
          "internalType": "uint256",
          "name": "userToken",
          "type": "uint256"
        },
        {
          "indexed": false,
          "internalType": "string",
          "name": "mac",
          "type": "string"
        },
        {
          "indexed": false,
          "internalType": "uint256",
          "name": "startTime",
          "type": "uint256"
        },
        {
          "indexed": false,
          "internalType": "uint256",
          "name": "endTime",
          "type": "uint256"
        }
      ],
      "name": "Connected",
      "type": "event"
    },
    {
      "anonymous": false,
      "inputs": [
        {
          "indexed": true,
          "internalType": "uint256",
          "name": "userToken",
          "type": "uint256"
        },
        {
          "indexed": false,
          "internalType": "string",
          "name": "mac",
          "type": "string"
        },
        {
          "indexed": false,
          "internalType": "uint256",
          "name": "endTime",
          "type": "uint256"
        }
      ],
      "name": "Disconnected",
      "type": "event"
    },
    {
      "anonymous": false,
      "inputs": [
        {
          "indexed": true,
          "internalType": "uint256",
          "name": "userToken",
          "type": "uint256"
        },
        {
          "indexed": false,
          "internalType": "uint256",
          "name": "tokens",
          "type": "uint256"
        }
      ],
      "name": "TokensBought",
      "type": "event"
    },
    {
      "anonymous": false,
      "inputs": [
        {
          "indexed": false,
          "internalType": "uint256",
          "name": "userToken",
          "type": "uint256"
        }
      ],
      "name": "UserTokenCreated",
      "type": "event"
    },
    {
      "anonymous": false,
      "inputs": [
        {
          "indexed": false,
          "internalType": "uint256",
          "name": "userToken",
          "type": "uint256"
        }
      ],
      "name": "UserTokenRevoked",
      "type": "event"
    },
    {
      "inputs": [
        {
          "internalType": "uint256",
          "name": "userToken",
          "type": "uint256"
        },
        {
          "internalType": "string",
          "name": "mac",
          "type": "string"
        },
        {
          "internalType": "uint256",
          "name": "duration",
          "type": "uint256"
        }
      ],
      "name": "connect",
      "outputs": [],
      "stateMutability": "nonpayable",
      "type": "function"
    },
    {
      "inputs": [],
      "name": "createTokenForUser",
      "outputs": [],
      "stateMutability": "nonpayable",
      "type": "function"
    },
    {
      "inputs": [
        {
          "internalType": "uint256",
          "name": "userToken",
          "type": "uint256"
        }
      ],
      "name": "disconnect",
      "outputs": [],
      "stateMutability": "nonpayable",
      "type": "function"
    },
    {
      "inputs": [
        {
          "internalType": "string",
          "name": "_mac",
          "type": "string"
        }
      ],
      "name": "getAPInfo",
      "outputs": [
        {
          "components": [
            {
              "internalType": "address",
              "name": "owner",
              "type": "address"
            },
            {
              "internalType": "string",
              "name": "ssid",
              "type": "string"
            },
            {
              "internalType": "string",
              "name": "mac",
              "type": "string"
            },
            {
              "internalType": "uint256",
              "name": "price",
              "type": "uint256"
            },
            {
              "internalType": "uint256",
              "name": "maxTime",
              "type": "uint256"
            },
            {
              "internalType": "bool",
              "name": "active",
              "type": "bool"
            }
          ],
          "internalType": "struct WiFeeRegistry.AccessPoint",
          "name": "",
          "type": "tuple"
        }
      ],
      "stateMutability": "view",
      "type": "function"
    },
    {
      "inputs": [
        {
          "internalType": "string",
          "name": "_mac",
          "type": "string"
        }
      ],
      "name": "getConnectedUserTokens",
      "outputs": [
        {
          "internalType": "uint256[]",
          "name": "",
          "type": "uint256[]"
        }
      ],
      "stateMutability": "view",
      "type": "function"
    },
    {
      "inputs": [
        {
          "internalType": "uint256",
          "name": "userToken",
          "type": "uint256"
        }
      ],
      "name": "getConnectionInfo",
      "outputs": [
        {
          "components": [
            {
              "internalType": "string",
              "name": "mac",
              "type": "string"
            },
            {
              "internalType": "uint256",
              "name": "startTime",
              "type": "uint256"
            },
            {
              "internalType": "uint256",
              "name": "endTime",
              "type": "uint256"
            },
            {
              "internalType": "uint256",
              "name": "tokensPaid",
              "type": "uint256"
            },
            {
              "internalType": "bool",
              "name": "isConnected",
              "type": "bool"
            }
          ],
          "internalType": "struct WiFeeAccess.Connection",
          "name": "",
          "type": "tuple"
        }
      ],
      "stateMutability": "view",
      "type": "function"
    },
    {
      "inputs": [
        {
          "internalType": "string",
          "name": "mac",
          "type": "string"
        },
        {
          "internalType": "uint256",
          "name": "connectedTime",
          "type": "uint256"
        }
      ],
      "name": "getConnectionPrice",
      "outputs": [
        {
          "internalType": "uint256",
          "name": "",
          "type": "uint256"
        }
      ],
      "stateMutability": "view",
      "type": "function"
    },
    {
      "inputs": [
        {
          "internalType": "uint256",
          "name": "userToken",
          "type": "uint256"
        }
      ],
      "name": "getConnectionTimes",
      "outputs": [
        {
          "internalType": "uint256",
          "name": "",
          "type": "uint256"
        },
        {
          "internalType": "uint256",
          "name": "",
          "type": "uint256"
        },
        {
          "internalType": "uint256",
          "name": "",
          "type": "uint256"
        }
      ],
      "stateMutability": "view",
      "type": "function"
    },
    {
      "inputs": [],
      "name": "owner",
      "outputs": [
        {
          "internalType": "address payable",
          "name": "",
          "type": "address"
        }
      ],
      "stateMutability": "view",
      "type": "function"
    }
  ],
  "bytecode": "0x608060405260006008553480156200001657600080fd5b50604051620030bc380380620030bc83398181016040528101906200003c919062000176565b826000806101000a81548173ffffffffffffffffffffffffffffffffffffffff021916908373ffffffffffffffffffffffffffffffffffffffff16021790555081600160006101000a81548173ffffffffffffffffffffffffffffffffffffffff021916908373ffffffffffffffffffffffffffffffffffffffff16021790555080600260006101000a81548173ffffffffffffffffffffffffffffffffffffffff021916908373ffffffffffffffffffffffffffffffffffffffff16021790555033600760006101000a81548173ffffffffffffffffffffffffffffffffffffffff021916908373ffffffffffffffffffffffffffffffffffffffff16021790555050505062000248565b600081519050620001598162000214565b92915050565b60008151905062000170816200022e565b92915050565b6000806000606084860312156200018c57600080fd5b60006200019c8682870162000148565b9350506020620001af868287016200015f565b9250506040620001c2868287016200015f565b9150509250925092565b6000620001d982620001f4565b9050919050565b6000620001ed82620001f4565b9050919050565b600073ffffffffffffffffffffffffffffffffffffffff82169050919050565b6200021f81620001cc565b81146200022b57600080fd5b50565b6200023981620001e0565b81146200024557600080fd5b50565b612e6480620002586000396000f3fe608060405234801561001057600080fd5b50600436106100935760003560e01c80632c9318e5116100665780632c9318e51461015a57806347588f1f1461017657806361f9875f146101925780638da5cb5b1461019c578063c833f472146101ba57610093565b806306300d9b146100985780630d2f6042146100c85780630f635dd4146100f85780632992c1bc14610128575b600080fd5b6100b260048036038101906100ad9190611ec2565b6101ea565b6040516100bf9190612714565b60405180910390f35b6100e260048036038101906100dd9190611ec2565b610388565b6040516100ef9190612938565b60405180910390f35b610112600480360381019061010d9190611f98565b610445565b60405161011f919061295a565b60405180910390f35b610142600480360381019061013d9190611f98565b6105c1565b60405161015193929190612997565b60405180910390f35b610174600480360381019061016f9190611fea565b610756565b005b610190600480360381019061018b9190611f98565b610d0c565b005b61019a61144e565b005b6101a461156a565b6040516101b19190612699565b60405180910390f35b6101d460048036038101906101cf9190611f03565b611590565b6040516101e1919061297c565b60405180910390f35b606060008060009054906101000a900473ffffffffffffffffffffffffffffffffffffffff1673ffffffffffffffffffffffffffffffffffffffff16630d2f6042846040518263ffffffff1660e01b81526004016102489190612736565b60006040518083038186803b15801561026057600080fd5b505afa158015610274573d6000803e3d6000fd5b505050506040513d6000823e3d601f19601f8201168201806040525081019061029d9190611f57565b9050600073ffffffffffffffffffffffffffffffffffffffff16816000015173ffffffffffffffffffffffffffffffffffffffff161415610313576040517f08c379a000000000000000000000000000000000000000000000000000000000815260040161030a90612858565b60405180910390fd5b600683604051610323919061262a565b908152602001604051809103902080548060200260200160405190810160405280929190818152602001828054801561037b57602002820191906000526020600020905b815481526020019060010190808311610367575b5050505050915050919050565b610390611b47565b60008054906101000a900473ffffffffffffffffffffffffffffffffffffffff1673ffffffffffffffffffffffffffffffffffffffff16630d2f6042836040518263ffffffff1660e01b81526004016103e99190612736565b60006040518083038186803b15801561040157600080fd5b505afa158015610415573d6000803e3d6000fd5b505050506040513d6000823e3d601f19601f8201168201806040525081019061043e9190611f57565b9050919050565b61044d611b95565b816104578161171a565b610496576040517f08c379a000000000000000000000000000000000000000000000000000000000815260040161048d90612898565b60405180910390fd5b60006104a184611786565b9050600360008273ffffffffffffffffffffffffffffffffffffffff1673ffffffffffffffffffffffffffffffffffffffff1681526020019081526020016000206040518060a00160405290816000820180546104fd90612c66565b80601f016020809104026020016040519081016040528092919081815260200182805461052990612c66565b80156105765780601f1061054b57610100808354040283529160200191610576565b820191906000526020600020905b81548152906001019060200180831161055957829003601f168201915b505050505081526020016001820154815260200160028201548152602001600382015481526020016004820160009054906101000a900460ff16151515158152505092505050919050565b6000806000836105d08161171a565b61060f576040517f08c379a000000000000000000000000000000000000000000000000000000000815260040161060690612898565b60405180910390fd5b600061061a86611786565b90506000600360008373ffffffffffffffffffffffffffffffffffffffff1673ffffffffffffffffffffffffffffffffffffffff1681526020019081526020016000206040518060a001604052908160008201805461067890612c66565b80601f01602080910402602001604051908101604052809291908181526020018280546106a490612c66565b80156106f15780601f106106c6576101008083540402835291602001916106f1565b820191906000526020600020905b8154815290600101906020018083116106d457829003601f168201915b505050505081526020016001820154815260200160028201548152602001600382015481526020016004820160009054906101000a900460ff161515151581525050905060004290508160200151818360400151965096509650505050509193909250565b823373ffffffffffffffffffffffffffffffffffffffff1661077782611786565b73ffffffffffffffffffffffffffffffffffffffff16146107cd576040517f08c379a00000000000000000000000000000000000000000000000000000000081526004016107c490612918565b60405180910390fd5b836107d78161171a565b610816576040517f08c379a000000000000000000000000000000000000000000000000000000000815260040161080d90612898565b60405180910390fd5b60008060009054906101000a900473ffffffffffffffffffffffffffffffffffffffff1673ffffffffffffffffffffffffffffffffffffffff16630d2f6042866040518263ffffffff1660e01b81526004016108729190612736565b60006040518083038186803b15801561088a57600080fd5b505afa15801561089e573d6000803e3d6000fd5b505050506040513d6000823e3d601f19601f820116820180604052508101906108c79190611f57565b90508060a0015161090d576040517f08c379a000000000000000000000000000000000000000000000000000000000815260040161090490612818565b60405180910390fd5b6000600360003373ffffffffffffffffffffffffffffffffffffffff1673ffffffffffffffffffffffffffffffffffffffff16815260200190815260200160002090508060040160009054906101000a900460ff16156109a2576040517f08c379a0000000000000000000000000000000000000000000000000000000008152600401610999906128f8565b60405180910390fd5b6000429050600086826109b59190612ab5565b90508360800151826109c79190612ab5565b811115610a09576040517f08c379a0000000000000000000000000000000000000000000000000000000008152600401610a0090612838565b60405180910390fd5b6000603c601e89610a1a9190612ab5565b610a249190612b0b565b90506000600160009054906101000a900473ffffffffffffffffffffffffffffffffffffffff1673ffffffffffffffffffffffffffffffffffffffff16637ff9b5966040518163ffffffff1660e01b815260040160206040518083038186803b158015610a9057600080fd5b505afa158015610aa4573d6000803e3d6000fd5b505050506040513d601f19601f82011682018060405250810190610ac89190611fc1565b866060015183610ad89190612b3c565b610ae29190612b3c565b90506000600160009054906101000a900473ffffffffffffffffffffffffffffffffffffffff1673ffffffffffffffffffffffffffffffffffffffff166370a08231336040518263ffffffff1660e01b8152600401610b41919061267e565b60206040518083038186803b158015610b5957600080fd5b505afa158015610b6d573d6000803e3d6000fd5b505050506040513d601f19601f82011682018060405250810190610b919190611fc1565b905081811015610bd6576040517f08c379a0000000000000000000000000000000000000000000000000000000008152600401610bcd906128b8565b60405180910390fd5b600160009054906101000a900473ffffffffffffffffffffffffffffffffffffffff1673ffffffffffffffffffffffffffffffffffffffff1663a64b6e5f3330856040518463ffffffff1660e01b8152600401610c35939291906126b4565b600060405180830381600087803b158015610c4f57600080fd5b505af1158015610c63573d6000803e3d6000fd5b50505050610c718b8d611865565b8a866000019080519060200190610c89929190611bc6565b5084866001018190555083866002018190555081866003018190555060018660040160006101000a81548160ff0219169083151502179055508b7f24c394f60382045dbfbbafee67cffce15beaa10393e084f5487a92695360ed6e8c8787604051610cf693929190612788565b60405180910390a2505050505050505050505050565b80610d168161171a565b610d55576040517f08c379a0000000000000000000000000000000000000000000000000000000008152600401610d4c90612898565b60405180910390fd5b6000610d6083611786565b90506000600360008373ffffffffffffffffffffffffffffffffffffffff1673ffffffffffffffffffffffffffffffffffffffff16815260200190815260200160002090508060040160009054906101000a900460ff16610df6576040517f08c379a0000000000000000000000000000000000000000000000000000000008152600401610ded90612878565b60405180910390fd5b60008054906101000a900473ffffffffffffffffffffffffffffffffffffffff1673ffffffffffffffffffffffffffffffffffffffff16630d2f6042826000016040518263ffffffff1660e01b8152600401610e5291906127c6565b60006040518083038186803b158015610e6a57600080fd5b505afa158015610e7e573d6000803e3d6000fd5b505050506040513d6000823e3d601f19601f82011682018060405250810190610ea79190611f57565b6000015173ffffffffffffffffffffffffffffffffffffffff163373ffffffffffffffffffffffffffffffffffffffff1614610f18576040517f08c379a0000000000000000000000000000000000000000000000000000000008152600401610f0f906128d8565b60405180910390fd5b60008060009054906101000a900473ffffffffffffffffffffffffffffffffffffffff1673ffffffffffffffffffffffffffffffffffffffff16630d2f6042836000016040518263ffffffff1660e01b8152600401610f7791906127c6565b60006040518083038186803b158015610f8f57600080fd5b505afa158015610fa3573d6000803e3d6000fd5b505050506040513d6000823e3d601f19601f82011682018060405250810190610fcc9190611f57565b905060004290506000836001015482610fe59190612b96565b90506000603c601e83610ff89190612ab5565b6110029190612b0b565b90506000670de0b6b3a764000085606001518361101f9190612b3c565b6110299190612b3c565b905061106a6040518060400160405280601181526020017f61637475616c456e6454696d653a202573000000000000000000000000000000815250856118ae565b6110ad6040518060400160405280601a81526020017f75736572436f6e6e656374696f6e2e656e6454696d653a20257300000000000081525087600201546118ae565b856002015484101561117f5760008187600301546110cb9190612b96565b9050600160009054906101000a900473ffffffffffffffffffffffffffffffffffffffff1673ffffffffffffffffffffffffffffffffffffffff1663a9059cbb89836040518363ffffffff1660e01b815260040161112a9291906126eb565b602060405180830381600087803b15801561114457600080fd5b505af1158015611158573d6000803e3d6000fd5b505050506040513d601f19601f8201168201806040525081019061117c9190611e99565b50505b600160009054906101000a900473ffffffffffffffffffffffffffffffffffffffff1673ffffffffffffffffffffffffffffffffffffffff1663a9059cbb8660000151836040518363ffffffff1660e01b81526004016111e09291906126eb565b602060405180830381600087803b1580156111fa57600080fd5b505af115801561120e573d6000803e3d6000fd5b505050506040513d601f19601f820116820180604052508101906112329190611e99565b50600061124387600101548661194a565b9050600260009054906101000a900473ffffffffffffffffffffffffffffffffffffffff1673ffffffffffffffffffffffffffffffffffffffff166340c10f1989836040518363ffffffff1660e01b81526004016112a29291906126eb565b600060405180830381600087803b1580156112bc57600080fd5b505af11580156112d0573d6000803e3d6000fd5b5050505060008760040160006101000a81548160ff02191690831515021790555061138787600001805461130390612c66565b80601f016020809104026020016040519081016040528092919081815260200182805461132f90612c66565b801561137c5780601f106113515761010080835404028352916020019161137c565b820191906000526020600020905b81548152906001019060200180831161135f57829003601f168201915b50505050508b61199c565b897f478bce134704bd99193a073688098bdbd5ea2ff339ed09105c7a03e979b055c488600001876040516113bc9291906127e8565b60405180910390a2600360008973ffffffffffffffffffffffffffffffffffffffff1673ffffffffffffffffffffffffffffffffffffffff168152602001908152602001600020600080820160006114149190611c4c565b6001820160009055600282016000905560038201600090556004820160006101000a81549060ff0219169055505050505050505050505050565b6008600081548092919061146190612c98565b91905055506000423360085460405160200161147f93929190612641565b6040516020818303038152906040528051906020012060001c9050336004600083815260200190815260200160002060006101000a81548173ffffffffffffffffffffffffffffffffffffffff021916908373ffffffffffffffffffffffffffffffffffffffff16021790555080600560003373ffffffffffffffffffffffffffffffffffffffff1673ffffffffffffffffffffffffffffffffffffffff168152602001908152602001600020819055507fd34fd2c214fa047be7cd22a9a404a479b80f13f78364990bff299fcb8798be938160405161155f919061297c565b60405180910390a150565b600760009054906101000a900473ffffffffffffffffffffffffffffffffffffffff1681565b60008060008054906101000a900473ffffffffffffffffffffffffffffffffffffffff1673ffffffffffffffffffffffffffffffffffffffff16630d2f6042856040518263ffffffff1660e01b81526004016115ec9190612736565b60006040518083038186803b15801561160457600080fd5b505afa158015611618573d6000803e3d6000fd5b505050506040513d6000823e3d601f19601f820116820180604052508101906116419190611f57565b9050600073ffffffffffffffffffffffffffffffffffffffff16816000015173ffffffffffffffffffffffffffffffffffffffff1614156116b7576040517f08c379a00000000000000000000000000000000000000000000000000000000081526004016116ae90612858565b60405180910390fd5b8060a001516116fb576040517f08c379a00000000000000000000000000000000000000000000000000000000081526004016116f290612818565b60405180910390fd5b600083826060015161170d9190612b3c565b9050809250505092915050565b60008073ffffffffffffffffffffffffffffffffffffffff166004600084815260200190815260200160002060009054906101000a900473ffffffffffffffffffffffffffffffffffffffff1673ffffffffffffffffffffffffffffffffffffffff1614159050919050565b60008073ffffffffffffffffffffffffffffffffffffffff166004600084815260200190815260200160002060009054906101000a900473ffffffffffffffffffffffffffffffffffffffff1673ffffffffffffffffffffffffffffffffffffffff16141561182a576040517f08c379a000000000000000000000000000000000000000000000000000000000815260040161182190612898565b60405180910390fd5b6004600083815260200190815260200160002060009054906101000a900473ffffffffffffffffffffffffffffffffffffffff169050919050565b600682604051611875919061262a565b90815260200160405180910390208190806001815401808255809150506001900390600052602060002001600090919091909150555050565b61194682826040516024016118c4929190612758565b6040516020818303038152906040527fb60e72cc000000000000000000000000000000000000000000000000000000007bffffffffffffffffffffffffffffffffffffffffffffffffffffffff19166020820180517bffffffffffffffffffffffffffffffffffffffffffffffffffffffff8381831617835250505050611b1e565b5050565b60008083836119599190612b96565b90506000603c601e8361196c9190612ab5565b6119769190612b0b565b90506000670de0b6b3a76400008261198e9190612b3c565b905080935050505092915050565b60006006836040516119ae919061262a565b9081526020016040518091039020905060005b8180549050811015611b185782828281548110611a07577f4e487b7100000000000000000000000000000000000000000000000000000000600052603260045260246000fd5b90600052602060002001541415611b05578160018380549050611a2a9190612b96565b81548110611a61577f4e487b7100000000000000000000000000000000000000000000000000000000600052603260045260246000fd5b9060005260206000200154828281548110611aa5577f4e487b7100000000000000000000000000000000000000000000000000000000600052603260045260246000fd5b906000526020600020018190555081805480611aea577f4e487b7100000000000000000000000000000000000000000000000000000000600052603160045260246000fd5b60019003818190600052602060002001600090559055611b18565b8080611b1090612c98565b9150506119c1565b50505050565b60008151905060006a636f6e736f6c652e6c6f679050602083016000808483855afa5050505050565b6040518060c00160405280600073ffffffffffffffffffffffffffffffffffffffff168152602001606081526020016060815260200160008152602001600081526020016000151581525090565b6040518060a00160405280606081526020016000815260200160008152602001600081526020016000151581525090565b828054611bd290612c66565b90600052602060002090601f016020900481019282611bf45760008555611c3b565b82601f10611c0d57805160ff1916838001178555611c3b565b82800160010185558215611c3b579182015b82811115611c3a578251825591602001919060010190611c1f565b5b509050611c489190611c8c565b5090565b508054611c5890612c66565b6000825580601f10611c6a5750611c89565b601f016020900490600052602060002090810190611c889190611c8c565b5b50565b5b80821115611ca5576000816000905550600101611c8d565b5090565b6000611cbc611cb7846129ff565b6129ce565b905082815260208101848484011115611cd457600080fd5b611cdf848285612c24565b509392505050565b6000611cfa611cf5846129ff565b6129ce565b905082815260208101848484011115611d1257600080fd5b611d1d848285612c33565b509392505050565b600081519050611d3481612de9565b92915050565b600081519050611d4981612e00565b92915050565b600082601f830112611d6057600080fd5b8135611d70848260208601611ca9565b91505092915050565b600082601f830112611d8a57600080fd5b8151611d9a848260208601611ce7565b91505092915050565b600060c08284031215611db557600080fd5b611dbf60c06129ce565b90506000611dcf84828501611d25565b600083015250602082015167ffffffffffffffff811115611def57600080fd5b611dfb84828501611d79565b602083015250604082015167ffffffffffffffff811115611e1b57600080fd5b611e2784828501611d79565b6040830152506060611e3b84828501611e84565b6060830152506080611e4f84828501611e84565b60808301525060a0611e6384828501611d3a565b60a08301525092915050565b600081359050611e7e81612e17565b92915050565b600081519050611e9381612e17565b92915050565b600060208284031215611eab57600080fd5b6000611eb984828501611d3a565b91505092915050565b600060208284031215611ed457600080fd5b600082013567ffffffffffffffff811115611eee57600080fd5b611efa84828501611d4f565b91505092915050565b60008060408385031215611f1657600080fd5b600083013567ffffffffffffffff811115611f3057600080fd5b611f3c85828601611d4f565b9250506020611f4d85828601611e6f565b9150509250929050565b600060208284031215611f6957600080fd5b600082015167ffffffffffffffff811115611f8357600080fd5b611f8f84828501611da3565b91505092915050565b600060208284031215611faa57600080fd5b6000611fb884828501611e6f565b91505092915050565b600060208284031215611fd357600080fd5b6000611fe184828501611e84565b91505092915050565b600080600060608486031215611fff57600080fd5b600061200d86828701611e6f565b935050602084013567ffffffffffffffff81111561202a57600080fd5b61203686828701611d4f565b925050604061204786828701611e6f565b9150509250925092565b600061205d83836125f5565b60208301905092915050565b61207281612bdc565b82525050565b61208181612bca565b82525050565b61209081612bca565b82525050565b6120a76120a282612bca565b612ce1565b82525050565b60006120b882612a54565b6120c28185612a77565b93506120cd83612a2f565b8060005b838110156120fe5781516120e58882612051565b97506120f083612a6a565b9250506001810190506120d1565b5085935050505092915050565b61211481612bee565b82525050565b600061212582612a5f565b61212f8185612a88565b935061213f818560208601612c33565b61214881612dcb565b840191505092915050565b600061215e82612a5f565b6121688185612a99565b9350612178818560208601612c33565b61218181612dcb565b840191505092915050565b600061219782612a5f565b6121a18185612aaa565b93506121b1818560208601612c33565b80840191505092915050565b600081546121ca81612c66565b6121d48186612a99565b945060018216600081146121ef576001811461220157612234565b60ff1983168652602086019350612234565b61220a85612a3f565b60005b8381101561222c5781548189015260018201915060208101905061220d565b808801955050505b50505092915050565b600061224a601783612a99565b91507f41636365737320706f696e74206e6f74206163746976650000000000000000006000830152602082019050919050565b600061228a602683612a99565b91507f4475726174696f6e20657863656564732061636365737320706f696e74206d6160008301527f782074696d6500000000000000000000000000000000000000000000000000006020830152604082019050919050565b60006122f0601b83612a99565b91507f41636365737320706f696e74206e6f74207265676973746572656400000000006000830152602082019050919050565b6000612330601583612a99565b91507f55736572206973206e6f7420636f6e6e656374656400000000000000000000006000830152602082019050919050565b6000612370601483612a99565b91507f546f6b656e20646f6573206e6f742065786973740000000000000000000000006000830152602082019050919050565b60006123b0601d83612a99565b91507f4e6f7420656e6f75676820746f6b656e7320666f72207061796d656e740000006000830152602082019050919050565b60006123f0602783612a99565b91507f4f6e6c7920746865204150206f776e65722063616e20646973636f6e6e65637460008301527f20612075736572000000000000000000000000000000000000000000000000006020830152604082019050919050565b6000612456601983612a99565b91507f5573657220697320616c726561647920636f6e6e6563746564000000000000006000830152602082019050919050565b6000612496602483612a99565b91507f5573657220746f6b656e20646f6573206e6f74206d617463682074686520736560008301527f6e646572000000000000000000000000000000000000000000000000000000006020830152604082019050919050565b600060c0830160008301516125076000860182612078565b506020830151848203602086015261251f828261211a565b91505060408301518482036040860152612539828261211a565b915050606083015161254e60608601826125f5565b50608083015161256160808601826125f5565b5060a083015161257460a086018261210b565b508091505092915050565b600060a083016000830151848203600086015261259c828261211a565b91505060208301516125b160208601826125f5565b5060408301516125c460408601826125f5565b5060608301516125d760608601826125f5565b5060808301516125ea608086018261210b565b508091505092915050565b6125fe81612c1a565b82525050565b61260d81612c1a565b82525050565b61262461261f82612c1a565b612d05565b82525050565b6000612636828461218c565b915081905092915050565b600061264d8286612613565b60208201915061265d8285612096565b60148201915061266d8284612613565b602082019150819050949350505050565b60006020820190506126936000830184612087565b92915050565b60006020820190506126ae6000830184612069565b92915050565b60006060820190506126c96000830186612087565b6126d66020830185612087565b6126e36040830184612604565b949350505050565b60006040820190506127006000830185612087565b61270d6020830184612604565b9392505050565b6000602082019050818103600083015261272e81846120ad565b905092915050565b600060208201905081810360008301526127508184612153565b905092915050565b600060408201905081810360008301526127728185612153565b90506127816020830184612604565b9392505050565b600060608201905081810360008301526127a28186612153565b90506127b16020830185612604565b6127be6040830184612604565b949350505050565b600060208201905081810360008301526127e081846121bd565b905092915050565b6000604082019050818103600083015261280281856121bd565b90506128116020830184612604565b9392505050565b600060208201905081810360008301526128318161223d565b9050919050565b600060208201905081810360008301526128518161227d565b9050919050565b60006020820190508181036000830152612871816122e3565b9050919050565b6000602082019050818103600083015261289181612323565b9050919050565b600060208201905081810360008301526128b181612363565b9050919050565b600060208201905081810360008301526128d1816123a3565b9050919050565b600060208201905081810360008301526128f1816123e3565b9050919050565b6000602082019050818103600083015261291181612449565b9050919050565b6000602082019050818103600083015261293181612489565b9050919050565b6000602082019050818103600083015261295281846124ef565b905092915050565b60006020820190508181036000830152612974818461257f565b905092915050565b60006020820190506129916000830184612604565b92915050565b60006060820190506129ac6000830186612604565b6129b96020830185612604565b6129c66040830184612604565b949350505050565b6000604051905081810181811067ffffffffffffffff821117156129f5576129f4612d9c565b5b8060405250919050565b600067ffffffffffffffff821115612a1a57612a19612d9c565b5b601f19601f8301169050602081019050919050565b6000819050602082019050919050565b60008190508160005260206000209050919050565b600081519050919050565b600081519050919050565b6000602082019050919050565b600082825260208201905092915050565b600082825260208201905092915050565b600082825260208201905092915050565b600081905092915050565b6000612ac082612c1a565b9150612acb83612c1a565b9250827fffffffffffffffffffffffffffffffffffffffffffffffffffffffffffffffff03821115612b0057612aff612d0f565b5b828201905092915050565b6000612b1682612c1a565b9150612b2183612c1a565b925082612b3157612b30612d3e565b5b828204905092915050565b6000612b4782612c1a565b9150612b5283612c1a565b9250817fffffffffffffffffffffffffffffffffffffffffffffffffffffffffffffffff0483118215151615612b8b57612b8a612d0f565b5b828202905092915050565b6000612ba182612c1a565b9150612bac83612c1a565b925082821015612bbf57612bbe612d0f565b5b828203905092915050565b6000612bd582612bfa565b9050919050565b6000612be782612bfa565b9050919050565b60008115159050919050565b600073ffffffffffffffffffffffffffffffffffffffff82169050919050565b6000819050919050565b82818337600083830152505050565b60005b83811015612c51578082015181840152602081019050612c36565b83811115612c60576000848401525b50505050565b60006002820490506001821680612c7e57607f821691505b60208210811415612c9257612c91612d6d565b5b50919050565b6000612ca382612c1a565b91507fffffffffffffffffffffffffffffffffffffffffffffffffffffffffffffffff821415612cd657612cd5612d0f565b5b600182019050919050565b6000612cec82612cf3565b9050919050565b6000612cfe82612ddc565b9050919050565b6000819050919050565b7f4e487b7100000000000000000000000000000000000000000000000000000000600052601160045260246000fd5b7f4e487b7100000000000000000000000000000000000000000000000000000000600052601260045260246000fd5b7f4e487b7100000000000000000000000000000000000000000000000000000000600052602260045260246000fd5b7f4e487b7100000000000000000000000000000000000000000000000000000000600052604160045260246000fd5b6000601f19601f8301169050919050565b60008160601b9050919050565b612df281612bca565b8114612dfd57600080fd5b50565b612e0981612bee565b8114612e1457600080fd5b50565b612e2081612c1a565b8114612e2b57600080fd5b5056fea264697066735822122051b0736021a527467a9ed24631a77d663ffbe6637a380fc27f5a16eb23cfac3264736f6c63430008000033",
  "linkReferences": {},
  "deployedLinkReferences": {}
}