{
  "_format": "hh-sol-artifact-1",
  "contractName": "InternetToken",
  "sourceName": "src/backend/contracts/InternetToken.sol",
  "abi": [
    {
      "inputs": [
        {
          "internalType": "uint256",
          "name": "initialSupply",
          "type": "uint256"
        }
      ],
      "stateMutability": "nonpayable",
      "type": "constructor"
    },
    {
      "anonymous": false,
      "inputs": [
        {
          "indexed": true,
          "internalType": "address",
          "name": "owner",
          "type": "address"
        },
        {
          "indexed": true,
          "internalType": "address",
          "name": "spender",
          "type": "address"
        },
        {
          "indexed": false,
          "internalType": "uint256",
          "name": "value",
          "type": "uint256"
        }
      ],
      "name": "Approval",
      "type": "event"
    },
    {
      "anonymous": false,
      "inputs": [
        {
          "indexed": true,
          "internalType": "address",
          "name": "from",
          "type": "address"
        },
        {
          "indexed": true,
          "internalType": "address",
          "name": "to",
          "type": "address"
        },
        {
          "indexed": false,
          "internalType": "uint256",
          "name": "value",
          "type": "uint256"
        }
      ],
      "name": "Transfer",
      "type": "event"
    },
    {
      "inputs": [
        {
          "internalType": "address",
          "name": "owner",
          "type": "address"
        },
        {
          "internalType": "address",
          "name": "spender",
          "type": "address"
        }
      ],
      "name": "allowance",
      "outputs": [
        {
          "internalType": "uint256",
          "name": "",
          "type": "uint256"
        }
      ],
      "stateMutability": "view",
      "type": "function"
    },
    {
      "inputs": [
        {
          "internalType": "address",
          "name": "spender",
          "type": "address"
        },
        {
          "internalType": "uint256",
          "name": "amount",
          "type": "uint256"
        }
      ],
      "name": "approve",
      "outputs": [
        {
          "internalType": "bool",
          "name": "",
          "type": "bool"
        }
      ],
      "stateMutability": "nonpayable",
      "type": "function"
    },
    {
      "inputs": [
        {
          "internalType": "address",
          "name": "account",
          "type": "address"
        }
      ],
      "name": "balanceOf",
      "outputs": [
        {
          "internalType": "uint256",
          "name": "",
          "type": "uint256"
        }
      ],
      "stateMutability": "view",
      "type": "function"
    },
    {
      "inputs": [],
      "name": "balanceOfUser",
      "outputs": [
        {
          "internalType": "uint256",
          "name": "",
          "type": "uint256"
        }
      ],
      "stateMutability": "view",
      "type": "function"
    },
    {
      "inputs": [],
      "name": "buyTokens",
      "outputs": [],
      "stateMutability": "payable",
      "type": "function"
    },
    {
      "inputs": [],
      "name": "decimals",
      "outputs": [
        {
          "internalType": "uint8",
          "name": "",
          "type": "uint8"
        }
      ],
      "stateMutability": "view",
      "type": "function"
    },
    {
      "inputs": [
        {
          "internalType": "address",
          "name": "spender",
          "type": "address"
        },
        {
          "internalType": "uint256",
          "name": "subtractedValue",
          "type": "uint256"
        }
      ],
      "name": "decreaseAllowance",
      "outputs": [
        {
          "internalType": "bool",
          "name": "",
          "type": "bool"
        }
      ],
      "stateMutability": "nonpayable",
      "type": "function"
    },
    {
      "inputs": [
        {
          "internalType": "address",
          "name": "spender",
          "type": "address"
        },
        {
          "internalType": "uint256",
          "name": "addedValue",
          "type": "uint256"
        }
      ],
      "name": "increaseAllowance",
      "outputs": [
        {
          "internalType": "bool",
          "name": "",
          "type": "bool"
        }
      ],
      "stateMutability": "nonpayable",
      "type": "function"
    },
    {
      "inputs": [],
      "name": "name",
      "outputs": [
        {
          "internalType": "string",
          "name": "",
          "type": "string"
        }
      ],
      "stateMutability": "view",
      "type": "function"
    },
    {
      "inputs": [
        {
          "internalType": "uint256",
          "name": "amount",
          "type": "uint256"
        }
      ],
      "name": "sellTokens",
      "outputs": [],
      "stateMutability": "nonpayable",
      "type": "function"
    },
    {
      "inputs": [],
      "name": "symbol",
      "outputs": [
        {
          "internalType": "string",
          "name": "",
          "type": "string"
        }
      ],
      "stateMutability": "view",
      "type": "function"
    },
    {
      "inputs": [],
      "name": "tokenPrice",
      "outputs": [
        {
          "internalType": "uint256",
          "name": "",
          "type": "uint256"
        }
      ],
      "stateMutability": "view",
      "type": "function"
    },
    {
      "inputs": [],
      "name": "totalSupply",
      "outputs": [
        {
          "internalType": "uint256",
          "name": "",
          "type": "uint256"
        }
      ],
      "stateMutability": "view",
      "type": "function"
    },
    {
      "inputs": [
        {
          "internalType": "address",
          "name": "to",
          "type": "address"
        },
        {
          "internalType": "uint256",
          "name": "amount",
          "type": "uint256"
        }
      ],
      "name": "transfer",
      "outputs": [
        {
          "internalType": "bool",
          "name": "",
          "type": "bool"
        }
      ],
      "stateMutability": "nonpayable",
      "type": "function"
    },
    {
      "inputs": [
        {
          "internalType": "address",
          "name": "from",
          "type": "address"
        },
        {
          "internalType": "address",
          "name": "to",
          "type": "address"
        },
        {
          "internalType": "uint256",
          "name": "amount",
          "type": "uint256"
        }
      ],
      "name": "transferFrom",
      "outputs": [
        {
          "internalType": "bool",
          "name": "",
          "type": "bool"
        }
      ],
      "stateMutability": "nonpayable",
      "type": "function"
    },
    {
      "inputs": [
        {
          "internalType": "address",
          "name": "from",
          "type": "address"
        },
        {
          "internalType": "address",
          "name": "to",
          "type": "address"
        },
        {
          "internalType": "uint256",
          "name": "amount",
          "type": "uint256"
        }
      ],
      "name": "transferTokens",
      "outputs": [],
      "stateMutability": "nonpayable",
      "type": "function"
    }
  ],
  "bytecode": "0x6080604052670de0b6b3a76400006005553480156200001d57600080fd5b5060405162001eb338038062001eb383398181016040528101906200004391906200036e565b6040518060400160405280600d81526020017f496e7465726e6574546f6b656e000000000000000000000000000000000000008152506040518060400160405280600381526020017f49544b00000000000000000000000000000000000000000000000000000000008152508160039080519060200190620000c7929190620002a7565b508060049080519060200190620000e0929190620002a7565b5050506200011f30620000f86200012660201b60201c565b600a620001069190620004f5565b8362000113919062000632565b6200012f60201b60201c565b5062000765565b60006012905090565b600073ffffffffffffffffffffffffffffffffffffffff168273ffffffffffffffffffffffffffffffffffffffff161415620001a2576040517f08c379a00000000000000000000000000000000000000000000000000000000081526004016200019990620003ed565b60405180910390fd5b620001b6600083836200029d60201b60201c565b8060026000828254620001ca91906200043d565b92505081905550806000808473ffffffffffffffffffffffffffffffffffffffff1673ffffffffffffffffffffffffffffffffffffffff168152602001908152602001600020600082825401925050819055508173ffffffffffffffffffffffffffffffffffffffff16600073ffffffffffffffffffffffffffffffffffffffff167fddf252ad1be2c89b69c2b068fc378daa952ba7f163c4a11628f55a4df523b3ef836040516200027d91906200040f565b60405180910390a36200029960008383620002a260201b60201c565b5050565b505050565b505050565b828054620002b590620006aa565b90600052602060002090601f016020900481019282620002d9576000855562000325565b82601f10620002f457805160ff191683800117855562000325565b8280016001018555821562000325579182015b828111156200032457825182559160200191906001019062000307565b5b50905062000334919062000338565b5090565b5b808211156200035357600081600090555060010162000339565b5090565b60008151905062000368816200074b565b92915050565b6000602082840312156200038157600080fd5b6000620003918482850162000357565b91505092915050565b6000620003a9601f836200042c565b91507f45524332303a206d696e7420746f20746865207a65726f2061646472657373006000830152602082019050919050565b620003e78162000693565b82525050565b6000602082019050818103600083015262000408816200039a565b9050919050565b6000602082019050620004266000830184620003dc565b92915050565b600082825260208201905092915050565b60006200044a8262000693565b9150620004578362000693565b9250827fffffffffffffffffffffffffffffffffffffffffffffffffffffffffffffffff038211156200048f576200048e620006e0565b5b828201905092915050565b6000808291508390505b6001851115620004ec57808604811115620004c457620004c3620006e0565b5b6001851615620004d45780820291505b8081029050620004e4856200073e565b9450620004a4565b94509492505050565b6000620005028262000693565b91506200050f836200069d565b92506200053e7fffffffffffffffffffffffffffffffffffffffffffffffffffffffffffffffff848462000546565b905092915050565b6000826200055857600190506200062b565b816200056857600090506200062b565b81600181146200058157600281146200058c57620005c2565b60019150506200062b565b60ff841115620005a157620005a0620006e0565b5b8360020a915084821115620005bb57620005ba620006e0565b5b506200062b565b5060208310610133831016604e8410600b8410161715620005fc5782820a905083811115620005f657620005f5620006e0565b5b6200062b565b6200060b84848460016200049a565b92509050818404811115620006255762000624620006e0565b5b81810290505b9392505050565b60006200063f8262000693565b91506200064c8362000693565b9250817fffffffffffffffffffffffffffffffffffffffffffffffffffffffffffffffff0483118215151615620006885762000687620006e0565b5b828202905092915050565b6000819050919050565b600060ff82169050919050565b60006002820490506001821680620006c357607f821691505b60208210811415620006da57620006d96200070f565b5b50919050565b7f4e487b7100000000000000000000000000000000000000000000000000000000600052601160045260246000fd5b7f4e487b7100000000000000000000000000000000000000000000000000000000600052602260045260246000fd5b60008160011c9050919050565b620007568162000693565b81146200076257600080fd5b50565b61173e80620007756000396000f3fe6080604052600436106100f35760003560e01c806370a082311161008a578063a64b6e5f11610059578063a64b6e5f14610354578063a9059cbb1461037d578063d0febe4c146103ba578063dd62ed3e146103c4576100f3565b806370a08231146102845780637ff9b596146102c157806395d89b41146102ec578063a457c2d714610317576100f3565b8063313ce567116100c6578063313ce567146101c8578063354c658e146101f3578063395093511461021e5780636c11bcd31461025b576100f3565b806306fdde03146100f8578063095ea7b31461012357806318160ddd1461016057806323b872dd1461018b575b600080fd5b34801561010457600080fd5b5061010d610401565b60405161011a91906112ed565b60405180910390f35b34801561012f57600080fd5b5061014a60048036038101906101459190610e7d565b610493565b60405161015791906112d2565b60405180910390f35b34801561016c57600080fd5b506101756104b6565b604051610182919061144f565b60405180910390f35b34801561019757600080fd5b506101b260048036038101906101ad9190610e2e565b6104c0565b6040516101bf91906112d2565b60405180910390f35b3480156101d457600080fd5b506101dd6104ef565b6040516101ea919061146a565b60405180910390f35b3480156101ff57600080fd5b506102086104f8565b604051610215919061144f565b60405180910390f35b34801561022a57600080fd5b5061024560048036038101906102409190610e7d565b61051a565b60405161025291906112d2565b60405180910390f35b34801561026757600080fd5b50610282600480360381019061027d9190610eb9565b610551565b005b34801561029057600080fd5b506102ab60048036038101906102a69190610dc9565b61064b565b6040516102b8919061144f565b60405180910390f35b3480156102cd57600080fd5b506102d6610693565b6040516102e3919061144f565b60405180910390f35b3480156102f857600080fd5b5061030161069d565b60405161030e91906112ed565b60405180910390f35b34801561032357600080fd5b5061033e60048036038101906103399190610e7d565b61072f565b60405161034b91906112d2565b60405180910390f35b34801561036057600080fd5b5061037b60048036038101906103769190610e2e565b6107a6565b005b34801561038957600080fd5b506103a4600480360381019061039f9190610e7d565b6107b6565b6040516103b191906112d2565b60405180910390f35b6103c26107d9565b005b3480156103d057600080fd5b506103eb60048036038101906103e69190610df2565b610837565b6040516103f8919061144f565b60405180910390f35b6060600380546104109061160a565b80601f016020809104026020016040519081016040528092919081815260200182805461043c9061160a565b80156104895780601f1061045e57610100808354040283529160200191610489565b820191906000526020600020905b81548152906001019060200180831161046c57829003601f168201915b5050505050905090565b60008061049e6108be565b90506104ab8185856108c6565b600191505092915050565b6000600254905090565b6000806104cb6108be565b90506104d8858285610a91565b6104e3858585610b1d565b60019150509392505050565b60006012905090565b6000610502610693565b61050b3361064b565b61051591906114f7565b905090565b6000806105256108be565b90506105468185856105378589610837565b61054191906114a1565b6108c6565b600191505092915050565b8061055a6104f8565b101561059b576040517f08c379a00000000000000000000000000000000000000000000000000000000081526004016105929061138f565b60405180910390fd5b60006105a5610693565b826105b09190611528565b9050804710156105f5576040517f08c379a00000000000000000000000000000000000000000000000000000000081526004016105ec906113ef565b60405180910390fd5b610600333083610b1d565b3373ffffffffffffffffffffffffffffffffffffffff166108fc829081150290604051600060405180830381858888f19350505050158015610646573d6000803e3d6000fd5b505050565b60008060008373ffffffffffffffffffffffffffffffffffffffff1673ffffffffffffffffffffffffffffffffffffffff168152602001908152602001600020549050919050565b6000600554905090565b6060600480546106ac9061160a565b80601f01602080910402602001604051908101604052809291908181526020018280546106d89061160a565b80156107255780601f106106fa57610100808354040283529160200191610725565b820191906000526020600020905b81548152906001019060200180831161070857829003601f168201915b5050505050905090565b60008061073a6108be565b905060006107488286610837565b90508381101561078d576040517f08c379a00000000000000000000000000000000000000000000000000000000081526004016107849061142f565b60405180910390fd5b61079a82868684036108c6565b60019250505092915050565b6107b1838383610b1d565b505050565b6000806107c16108be565b90506107ce818585610b1d565b600191505092915050565b6000349050806107e83061064b565b1015610829576040517f08c379a0000000000000000000000000000000000000000000000000000000008152600401610820906113af565b60405180910390fd5b610834303383610b1d565b50565b6000600160008473ffffffffffffffffffffffffffffffffffffffff1673ffffffffffffffffffffffffffffffffffffffff16815260200190815260200160002060008373ffffffffffffffffffffffffffffffffffffffff1673ffffffffffffffffffffffffffffffffffffffff16815260200190815260200160002054905092915050565b600033905090565b600073ffffffffffffffffffffffffffffffffffffffff168373ffffffffffffffffffffffffffffffffffffffff161415610936576040517f08c379a000000000000000000000000000000000000000000000000000000000815260040161092d9061140f565b60405180910390fd5b600073ffffffffffffffffffffffffffffffffffffffff168273ffffffffffffffffffffffffffffffffffffffff1614156109a6576040517f08c379a000000000000000000000000000000000000000000000000000000000815260040161099d9061132f565b60405180910390fd5b80600160008573ffffffffffffffffffffffffffffffffffffffff1673ffffffffffffffffffffffffffffffffffffffff16815260200190815260200160002060008473ffffffffffffffffffffffffffffffffffffffff1673ffffffffffffffffffffffffffffffffffffffff168152602001908152602001600020819055508173ffffffffffffffffffffffffffffffffffffffff168373ffffffffffffffffffffffffffffffffffffffff167f8c5be1e5ebec7d5bd14f71427d1e84f3dd0314c0f7b2291e5b200ac8c7c3b92583604051610a84919061144f565b60405180910390a3505050565b6000610a9d8484610837565b90507fffffffffffffffffffffffffffffffffffffffffffffffffffffffffffffffff8114610b175781811015610b09576040517f08c379a0000000000000000000000000000000000000000000000000000000008152600401610b009061134f565b60405180910390fd5b610b1684848484036108c6565b5b50505050565b600073ffffffffffffffffffffffffffffffffffffffff168373ffffffffffffffffffffffffffffffffffffffff161415610b8d576040517f08c379a0000000000000000000000000000000000000000000000000000000008152600401610b84906113cf565b60405180910390fd5b600073ffffffffffffffffffffffffffffffffffffffff168273ffffffffffffffffffffffffffffffffffffffff161415610bfd576040517f08c379a0000000000000000000000000000000000000000000000000000000008152600401610bf49061130f565b60405180910390fd5b610c08838383610d95565b60008060008573ffffffffffffffffffffffffffffffffffffffff1673ffffffffffffffffffffffffffffffffffffffff16815260200190815260200160002054905081811015610c8e576040517f08c379a0000000000000000000000000000000000000000000000000000000008152600401610c859061136f565b60405180910390fd5b8181036000808673ffffffffffffffffffffffffffffffffffffffff1673ffffffffffffffffffffffffffffffffffffffff16815260200190815260200160002081905550816000808573ffffffffffffffffffffffffffffffffffffffff1673ffffffffffffffffffffffffffffffffffffffff168152602001908152602001600020600082825401925050819055508273ffffffffffffffffffffffffffffffffffffffff168473ffffffffffffffffffffffffffffffffffffffff167fddf252ad1be2c89b69c2b068fc378daa952ba7f163c4a11628f55a4df523b3ef84604051610d7c919061144f565b60405180910390a3610d8f848484610d9a565b50505050565b505050565b505050565b600081359050610dae816116da565b92915050565b600081359050610dc3816116f1565b92915050565b600060208284031215610ddb57600080fd5b6000610de984828501610d9f565b91505092915050565b60008060408385031215610e0557600080fd5b6000610e1385828601610d9f565b9250506020610e2485828601610d9f565b9150509250929050565b600080600060608486031215610e4357600080fd5b6000610e5186828701610d9f565b9350506020610e6286828701610d9f565b9250506040610e7386828701610db4565b9150509250925092565b60008060408385031215610e9057600080fd5b6000610e9e85828601610d9f565b9250506020610eaf85828601610db4565b9150509250929050565b600060208284031215610ecb57600080fd5b6000610ed984828501610db4565b91505092915050565b610eeb81611594565b82525050565b6000610efc82611485565b610f068185611490565b9350610f168185602086016115d7565b610f1f816116c9565b840191505092915050565b6000610f37602383611490565b91507f45524332303a207472616e7366657220746f20746865207a65726f206164647260008301527f65737300000000000000000000000000000000000000000000000000000000006020830152604082019050919050565b6000610f9d602283611490565b91507f45524332303a20617070726f766520746f20746865207a65726f20616464726560008301527f73730000000000000000000000000000000000000000000000000000000000006020830152604082019050919050565b6000611003601d83611490565b91507f45524332303a20696e73756666696369656e7420616c6c6f77616e63650000006000830152602082019050919050565b6000611043602683611490565b91507f45524332303a207472616e7366657220616d6f756e742065786365656473206260008301527f616c616e636500000000000000000000000000000000000000000000000000006020830152604082019050919050565b60006110a9601983611490565b91507f4e6f7420656e6f75676820746f6b656e7320746f2073656c6c000000000000006000830152602082019050919050565b60006110e9601b83611490565b91507f4e6f7420656e6f75676820746f6b656e7320617661696c61626c6500000000006000830152602082019050919050565b6000611129602583611490565b91507f45524332303a207472616e736665722066726f6d20746865207a65726f20616460008301527f64726573730000000000000000000000000000000000000000000000000000006020830152604082019050919050565b600061118f602e83611490565b91507f4e6f7420656e6f75676820657468657220696e2074686520636f6e747261637460008301527f20746f2062757920746f6b656e730000000000000000000000000000000000006020830152604082019050919050565b60006111f5602483611490565b91507f45524332303a20617070726f76652066726f6d20746865207a65726f2061646460008301527f72657373000000000000000000000000000000000000000000000000000000006020830152604082019050919050565b600061125b602583611490565b91507f45524332303a2064656372656173656420616c6c6f77616e63652062656c6f7760008301527f207a65726f0000000000000000000000000000000000000000000000000000006020830152604082019050919050565b6112bd816115c0565b82525050565b6112cc816115ca565b82525050565b60006020820190506112e76000830184610ee2565b92915050565b600060208201905081810360008301526113078184610ef1565b905092915050565b6000602082019050818103600083015261132881610f2a565b9050919050565b6000602082019050818103600083015261134881610f90565b9050919050565b6000602082019050818103600083015261136881610ff6565b9050919050565b6000602082019050818103600083015261138881611036565b9050919050565b600060208201905081810360008301526113a88161109c565b9050919050565b600060208201905081810360008301526113c8816110dc565b9050919050565b600060208201905081810360008301526113e88161111c565b9050919050565b6000602082019050818103600083015261140881611182565b9050919050565b60006020820190508181036000830152611428816111e8565b9050919050565b600060208201905081810360008301526114488161124e565b9050919050565b600060208201905061146460008301846112b4565b92915050565b600060208201905061147f60008301846112c3565b92915050565b600081519050919050565b600082825260208201905092915050565b60006114ac826115c0565b91506114b7836115c0565b9250827fffffffffffffffffffffffffffffffffffffffffffffffffffffffffffffffff038211156114ec576114eb61163c565b5b828201905092915050565b6000611502826115c0565b915061150d836115c0565b92508261151d5761151c61166b565b5b828204905092915050565b6000611533826115c0565b915061153e836115c0565b9250817fffffffffffffffffffffffffffffffffffffffffffffffffffffffffffffffff04831182151516156115775761157661163c565b5b828202905092915050565b600061158d826115a0565b9050919050565b60008115159050919050565b600073ffffffffffffffffffffffffffffffffffffffff82169050919050565b6000819050919050565b600060ff82169050919050565b60005b838110156115f55780820151818401526020810190506115da565b83811115611604576000848401525b50505050565b6000600282049050600182168061162257607f821691505b602082108114156116365761163561169a565b5b50919050565b7f4e487b7100000000000000000000000000000000000000000000000000000000600052601160045260246000fd5b7f4e487b7100000000000000000000000000000000000000000000000000000000600052601260045260246000fd5b7f4e487b7100000000000000000000000000000000000000000000000000000000600052602260045260246000fd5b6000601f19601f8301169050919050565b6116e381611582565b81146116ee57600080fd5b50565b6116fa816115c0565b811461170557600080fd5b5056fea2646970667358221220c2fb78af4a398e147615a8cf0c20bb6bfd1e1bb9646343aa5dd625da0de890e664736f6c63430008000033",
  "linkReferences": {},
  "deployedLinkReferences": {}
}