{
  "_format": "hh-sol-artifact-1",
  "contractName": "WiFeeAccess",
  "sourceName": "contracts/WiFeeAccess.sol",
  "abi": [
    {
      "inputs": [
        {
          "internalType": "address",
          "name": "wiFeeRegistryAddress",
          "type": "address"
        },
        {
          "internalType": "address payable",
          "name": "internetTokenAddress",
          "type": "address"
        },
        {
          "internalType": "address payable",
          "name": "recompenseTokenAddress",
          "type": "address"
        }
      ],
      "stateMutability": "nonpayable",
      "type": "constructor"
    },
    {
      "anonymous": false,
      "inputs": [
        {
          "indexed": true,
          "internalType": "uint256",
          "name": "userToken",
          "type": "uint256"
        },
        {
          "indexed": false,
          "internalType": "string",
          "name": "mac",
          "type": "string"
        },
        {
          "indexed": false,
          "internalType": "uint256",
          "name": "startTime",
          "type": "uint256"
        },
        {
          "indexed": false,
          "internalType": "uint256",
          "name": "endTime",
          "type": "uint256"
        }
      ],
      "name": "Connected",
      "type": "event"
    },
    {
      "anonymous": false,
      "inputs": [
        {
          "indexed": true,
          "internalType": "uint256",
          "name": "userToken",
          "type": "uint256"
        },
        {
          "indexed": false,
          "internalType": "string",
          "name": "mac",
          "type": "string"
        },
        {
          "indexed": false,
          "internalType": "uint256",
          "name": "endTime",
          "type": "uint256"
        }
      ],
      "name": "Disconnected",
      "type": "event"
    },
    {
      "anonymous": false,
      "inputs": [
        {
          "indexed": true,
          "internalType": "uint256",
          "name": "userToken",
          "type": "uint256"
        },
        {
          "indexed": false,
          "internalType": "uint256",
          "name": "tokens",
          "type": "uint256"
        }
      ],
      "name": "TokensBought",
      "type": "event"
    },
    {
      "anonymous": false,
      "inputs": [
        {
          "indexed": false,
          "internalType": "uint256",
          "name": "userToken",
          "type": "uint256"
        }
      ],
      "name": "UserTokenCreated",
      "type": "event"
    },
    {
      "anonymous": false,
      "inputs": [
        {
          "indexed": false,
          "internalType": "uint256",
          "name": "userToken",
          "type": "uint256"
        }
      ],
      "name": "UserTokenRevoked",
      "type": "event"
    },
    {
      "inputs": [
        {
          "internalType": "uint256",
          "name": "userToken",
          "type": "uint256"
        },
        {
          "internalType": "string",
          "name": "mac",
          "type": "string"
        },
        {
          "internalType": "uint256",
          "name": "duration",
          "type": "uint256"
        },
        {
          "internalType": "uint256",
          "name": "bandwidth",
          "type": "uint256"
        },
        {
          "internalType": "uint256",
          "name": "dataLimit",
          "type": "uint256"
        }
      ],
      "name": "connect",
      "outputs": [],
      "stateMutability": "nonpayable",
      "type": "function"
    },
    {
      "inputs": [],
      "name": "createTokenForUser",
      "outputs": [],
      "stateMutability": "nonpayable",
      "type": "function"
    },
    {
      "inputs": [
        {
          "internalType": "uint256",
          "name": "userToken",
          "type": "uint256"
        }
      ],
      "name": "disconnect",
      "outputs": [],
      "stateMutability": "nonpayable",
      "type": "function"
    },
    {
      "inputs": [
        {
          "internalType": "string",
          "name": "_mac",
          "type": "string"
        }
      ],
      "name": "getAPInfo",
      "outputs": [
        {
          "components": [
            {
              "internalType": "address",
              "name": "owner",
              "type": "address"
            },
            {
              "internalType": "string",
              "name": "ssid",
              "type": "string"
            },
            {
              "internalType": "string",
              "name": "mac",
              "type": "string"
            },
            {
              "internalType": "uint256",
              "name": "price",
              "type": "uint256"
            },
            {
              "internalType": "uint256",
              "name": "maxTime",
              "type": "uint256"
            },
            {
              "internalType": "uint256",
              "name": "dataLimit",
              "type": "uint256"
            },
            {
              "internalType": "uint256",
              "name": "bandwidthLimit",
              "type": "uint256"
            },
            {
              "internalType": "bool",
              "name": "active",
              "type": "bool"
            }
          ],
          "internalType": "struct WiFeeRegistry.AccessPoint",
          "name": "",
          "type": "tuple"
        }
      ],
      "stateMutability": "view",
      "type": "function"
    },
    {
      "inputs": [
        {
          "internalType": "string",
          "name": "_mac",
          "type": "string"
        }
      ],
      "name": "getConnectedUserTokens",
      "outputs": [
        {
          "internalType": "uint256[]",
          "name": "",
          "type": "uint256[]"
        }
      ],
      "stateMutability": "view",
      "type": "function"
    },
    {
      "inputs": [
        {
          "internalType": "uint256",
          "name": "userToken",
          "type": "uint256"
        }
      ],
      "name": "getConnectionBandwidthDataLimit",
      "outputs": [
        {
          "internalType": "uint256",
          "name": "",
          "type": "uint256"
        },
        {
          "internalType": "uint256",
          "name": "",
          "type": "uint256"
        }
      ],
      "stateMutability": "view",
      "type": "function"
    },
    {
      "inputs": [
        {
          "internalType": "uint256",
          "name": "userToken",
          "type": "uint256"
        }
      ],
      "name": "getConnectionInfo",
      "outputs": [
        {
          "components": [
            {
              "internalType": "string",
              "name": "mac",
              "type": "string"
            },
            {
              "internalType": "uint256",
              "name": "startTime",
              "type": "uint256"
            },
            {
              "internalType": "uint256",
              "name": "endTime",
              "type": "uint256"
            },
            {
              "internalType": "uint256",
              "name": "tokensPaid",
              "type": "uint256"
            },
            {
              "internalType": "bool",
              "name": "isConnected",
              "type": "bool"
            },
            {
              "internalType": "uint256",
              "name": "bandwidth",
              "type": "uint256"
            },
            {
              "internalType": "uint256",
              "name": "dataLimit",
              "type": "uint256"
            }
          ],
          "internalType": "struct WiFeeAccess.Connection",
          "name": "",
          "type": "tuple"
        }
      ],
      "stateMutability": "view",
      "type": "function"
    },
    {
      "inputs": [
        {
          "internalType": "string",
          "name": "mac",
          "type": "string"
        },
        {
          "internalType": "uint256",
          "name": "connectedTime",
          "type": "uint256"
        }
      ],
      "name": "getConnectionPrice",
      "outputs": [
        {
          "internalType": "uint256",
          "name": "",
          "type": "uint256"
        }
      ],
      "stateMutability": "view",
      "type": "function"
    },
    {
      "inputs": [
        {
          "internalType": "uint256",
          "name": "userToken",
          "type": "uint256"
        }
      ],
      "name": "getConnectionTimes",
      "outputs": [
        {
          "internalType": "uint256",
          "name": "",
          "type": "uint256"
        },
        {
          "internalType": "uint256",
          "name": "",
          "type": "uint256"
        },
        {
          "internalType": "uint256",
          "name": "",
          "type": "uint256"
        }
      ],
      "stateMutability": "view",
      "type": "function"
    },
    {
      "inputs": [
        {
          "internalType": "string",
          "name": "_mac",
          "type": "string"
        }
      ],
      "name": "getOwnerRTK",
      "outputs": [
        {
          "internalType": "uint256",
          "name": "",
          "type": "uint256"
        }
      ],
      "stateMutability": "view",
      "type": "function"
    },
    {
      "inputs": [
        {
          "internalType": "uint256",
          "name": "userToken",
          "type": "uint256"
        }
      ],
      "name": "getUserRTK",
      "outputs": [
        {
          "internalType": "uint256",
          "name": "",
          "type": "uint256"
        }
      ],
      "stateMutability": "view",
      "type": "function"
    },
    {
      "inputs": [],
      "name": "owner",
      "outputs": [
        {
          "internalType": "address payable",
          "name": "",
          "type": "address"
        }
      ],
      "stateMutability": "view",
      "type": "function"
    }
  ],
  "bytecode": "0x608060405260006008553480156200001657600080fd5b50604051620037873803806200378783398181016040528101906200003c919062000176565b826000806101000a81548173ffffffffffffffffffffffffffffffffffffffff021916908373ffffffffffffffffffffffffffffffffffffffff16021790555081600160006101000a81548173ffffffffffffffffffffffffffffffffffffffff021916908373ffffffffffffffffffffffffffffffffffffffff16021790555080600260006101000a81548173ffffffffffffffffffffffffffffffffffffffff021916908373ffffffffffffffffffffffffffffffffffffffff16021790555033600760006101000a81548173ffffffffffffffffffffffffffffffffffffffff021916908373ffffffffffffffffffffffffffffffffffffffff16021790555050505062000248565b600081519050620001598162000214565b92915050565b60008151905062000170816200022e565b92915050565b6000806000606084860312156200018c57600080fd5b60006200019c8682870162000148565b9350506020620001af868287016200015f565b9250506040620001c2868287016200015f565b9150509250925092565b6000620001d982620001f4565b9050919050565b6000620001ed82620001f4565b9050919050565b600073ffffffffffffffffffffffffffffffffffffffff82169050919050565b6200021f81620001cc565b81146200022b57600080fd5b50565b6200023981620001e0565b81146200024557600080fd5b50565b61352f80620002586000396000f3fe608060405234801561001057600080fd5b50600436106100b45760003560e01c806347588f1f1161007157806347588f1f146101dc57806361f9875f146101f857806380ee7a0b146102025780638da5cb5b14610232578063b5e7255014610250578063c833f4721461026c576100b4565b806306300d9b146100b95780630c2899b0146100e95780630d2f60421461011a5780630f635dd41461014a5780632992c1bc1461017a57806340664b2a146101ac575b600080fd5b6100d360048036038101906100ce9190612413565b61029c565b6040516100e09190612da6565b60405180910390f35b61010360048036038101906100fe91906124e9565b61043a565b604051610111929190613039565b60405180910390f35b610134600480360381019061012f9190612413565b6105d6565b6040516101419190612fda565b60405180910390f35b610164600480360381019061015f91906124e9565b610693565b6040516101719190612ffc565b60405180910390f35b610194600480360381019061018f91906124e9565b610823565b6040516101a393929190613062565b60405180910390f35b6101c660048036038101906101c191906124e9565b6109cc565b6040516101d3919061301e565b60405180910390f35b6101f660048036038101906101f191906124e9565b610af1565b005b610200611254565b005b61021c60048036038101906102179190612413565b611370565b604051610229919061301e565b60405180910390f35b61023a6114f3565b6040516102479190612d2b565b60405180910390f35b61026a6004803603810190610265919061253b565b611519565b005b61028660048036038101906102819190612454565b611b5f565b604051610293919061301e565b60405180910390f35b606060008060009054906101000a900473ffffffffffffffffffffffffffffffffffffffff1673ffffffffffffffffffffffffffffffffffffffff16630d2f6042846040518263ffffffff1660e01b81526004016102fa9190612dc8565b60006040518083038186803b15801561031257600080fd5b505afa158015610326573d6000803e3d6000fd5b505050506040513d6000823e3d601f19601f8201168201806040525081019061034f91906124a8565b9050600073ffffffffffffffffffffffffffffffffffffffff16816000015173ffffffffffffffffffffffffffffffffffffffff1614156103c5576040517f08c379a00000000000000000000000000000000000000000000000000000000081526004016103bc90612eda565b60405180910390fd5b6006836040516103d59190612cbc565b908152602001604051809103902080548060200260200160405190810160405280929190818152602001828054801561042d57602002820191906000526020600020905b815481526020019060010190808311610419575b5050505050915050919050565b6000808261044781611ce9565b610486576040517f08c379a000000000000000000000000000000000000000000000000000000000815260040161047d90612f1a565b60405180910390fd5b600061049185611d55565b90506000600360008373ffffffffffffffffffffffffffffffffffffffff1673ffffffffffffffffffffffffffffffffffffffff1681526020019081526020016000206040518060e00160405290816000820180546104ef90613331565b80601f016020809104026020016040519081016040528092919081815260200182805461051b90613331565b80156105685780601f1061053d57610100808354040283529160200191610568565b820191906000526020600020905b81548152906001019060200180831161054b57829003601f168201915b505050505081526020016001820154815260200160028201548152602001600382015481526020016004820160009054906101000a900460ff161515151581526020016005820154815260200160068201548152505090508060a001518160c0015194509450505050915091565b6105de612051565b60008054906101000a900473ffffffffffffffffffffffffffffffffffffffff1673ffffffffffffffffffffffffffffffffffffffff16630d2f6042836040518263ffffffff1660e01b81526004016106379190612dc8565b60006040518083038186803b15801561064f57600080fd5b505afa158015610663573d6000803e3d6000fd5b505050506040513d6000823e3d601f19601f8201168201806040525081019061068c91906124a8565b9050919050565b61069b6120ae565b816106a581611ce9565b6106e4576040517f08c379a00000000000000000000000000000000000000000000000000000000081526004016106db90612f1a565b60405180910390fd5b60006106ef84611d55565b9050600360008273ffffffffffffffffffffffffffffffffffffffff1673ffffffffffffffffffffffffffffffffffffffff1681526020019081526020016000206040518060e001604052908160008201805461074b90613331565b80601f016020809104026020016040519081016040528092919081815260200182805461077790613331565b80156107c45780601f10610799576101008083540402835291602001916107c4565b820191906000526020600020905b8154815290600101906020018083116107a757829003601f168201915b505050505081526020016001820154815260200160028201548152602001600382015481526020016004820160009054906101000a900460ff161515151581526020016005820154815260200160068201548152505092505050919050565b60008060008361083281611ce9565b610871576040517f08c379a000000000000000000000000000000000000000000000000000000000815260040161086890612f1a565b60405180910390fd5b600061087c86611d55565b90506000600360008373ffffffffffffffffffffffffffffffffffffffff1673ffffffffffffffffffffffffffffffffffffffff1681526020019081526020016000206040518060e00160405290816000820180546108da90613331565b80601f016020809104026020016040519081016040528092919081815260200182805461090690613331565b80156109535780601f1061092857610100808354040283529160200191610953565b820191906000526020600020905b81548152906001019060200180831161093657829003601f168201915b505050505081526020016001820154815260200160028201548152602001600382015481526020016004820160009054906101000a900460ff1615151515815260200160058201548152602001600682015481525050905060004290508160200151818360400151965096509650505050509193909250565b6000816109d881611ce9565b610a17576040517f08c379a0000000000000000000000000000000000000000000000000000000008152600401610a0e90612f1a565b60405180910390fd5b6000610a2284611d55565b90506000600260009054906101000a900473ffffffffffffffffffffffffffffffffffffffff1673ffffffffffffffffffffffffffffffffffffffff166370a08231836040518263ffffffff1660e01b8152600401610a819190612d10565b60206040518083038186803b158015610a9957600080fd5b505afa158015610aad573d6000803e3d6000fd5b505050506040513d601f19601f82011682018060405250810190610ad19190612512565b9050670de0b6b3a764000081610ae791906131d6565b9350505050919050565b80610afb81611ce9565b610b3a576040517f08c379a0000000000000000000000000000000000000000000000000000000008152600401610b3190612f1a565b60405180910390fd5b6000610b4583611d55565b90506000600360008373ffffffffffffffffffffffffffffffffffffffff1673ffffffffffffffffffffffffffffffffffffffff16815260200190815260200160002090508060040160009054906101000a900460ff16610bdb576040517f08c379a0000000000000000000000000000000000000000000000000000000008152600401610bd290612efa565b60405180910390fd5b60008054906101000a900473ffffffffffffffffffffffffffffffffffffffff1673ffffffffffffffffffffffffffffffffffffffff16630d2f6042826000016040518263ffffffff1660e01b8152600401610c379190612e28565b60006040518083038186803b158015610c4f57600080fd5b505afa158015610c63573d6000803e3d6000fd5b505050506040513d6000823e3d601f19601f82011682018060405250810190610c8c91906124a8565b6000015173ffffffffffffffffffffffffffffffffffffffff163373ffffffffffffffffffffffffffffffffffffffff1614610cfd576040517f08c379a0000000000000000000000000000000000000000000000000000000008152600401610cf490612f5a565b60405180910390fd5b60008060009054906101000a900473ffffffffffffffffffffffffffffffffffffffff1673ffffffffffffffffffffffffffffffffffffffff16630d2f6042836000016040518263ffffffff1660e01b8152600401610d5c9190612e28565b60006040518083038186803b158015610d7457600080fd5b505afa158015610d88573d6000803e3d6000fd5b505050506040513d6000823e3d601f19601f82011682018060405250810190610db191906124a8565b905060004290506000836001015482610dca9190613261565b90506000603c601e83610ddd9190613180565b610de791906131d6565b90506000670de0b6b3a7640000856060015183610e049190613207565b610e0e9190613207565b90508560020154841015610ee2576000818760030154610e2e9190613261565b9050600160009054906101000a900473ffffffffffffffffffffffffffffffffffffffff1673ffffffffffffffffffffffffffffffffffffffff1663a9059cbb89836040518363ffffffff1660e01b8152600401610e8d929190612d7d565b602060405180830381600087803b158015610ea757600080fd5b505af1158015610ebb573d6000803e3d6000fd5b505050506040513d601f19601f82011682018060405250810190610edf91906123ea565b50505b600160009054906101000a900473ffffffffffffffffffffffffffffffffffffffff1673ffffffffffffffffffffffffffffffffffffffff1663a9059cbb8660000151836040518363ffffffff1660e01b8152600401610f43929190612d7d565b602060405180830381600087803b158015610f5d57600080fd5b505af1158015610f71573d6000803e3d6000fd5b505050506040513d601f19601f82011682018060405250810190610f9591906123ea565b506000610fa6876001015486611e34565b9050600260009054906101000a900473ffffffffffffffffffffffffffffffffffffffff1673ffffffffffffffffffffffffffffffffffffffff166340c10f1989836040518363ffffffff1660e01b8152600401611005929190612d7d565b600060405180830381600087803b15801561101f57600080fd5b505af1158015611033573d6000803e3d6000fd5b50505050600260009054906101000a900473ffffffffffffffffffffffffffffffffffffffff1673ffffffffffffffffffffffffffffffffffffffff166340c10f198760000151836040518363ffffffff1660e01b8152600401611098929190612d7d565b600060405180830381600087803b1580156110b257600080fd5b505af11580156110c6573d6000803e3d6000fd5b5050505060008760040160006101000a81548160ff02191690831515021790555061117d8760000180546110f990613331565b80601f016020809104026020016040519081016040528092919081815260200182805461112590613331565b80156111725780601f1061114757610100808354040283529160200191611172565b820191906000526020600020905b81548152906001019060200180831161115557829003601f168201915b50505050508b611e86565b897f478bce134704bd99193a073688098bdbd5ea2ff339ed09105c7a03e979b055c488600001876040516111b2929190612e4a565b60405180910390a2600360008973ffffffffffffffffffffffffffffffffffffffff1673ffffffffffffffffffffffffffffffffffffffff1681526020019081526020016000206000808201600061120a91906120ed565b6001820160009055600282016000905560038201600090556004820160006101000a81549060ff021916905560058201600090556006820160009055505050505050505050505050565b6008600081548092919061126790613363565b91905055506000423360085460405160200161128593929190612cd3565b6040516020818303038152906040528051906020012060001c9050336004600083815260200190815260200160002060006101000a81548173ffffffffffffffffffffffffffffffffffffffff021916908373ffffffffffffffffffffffffffffffffffffffff16021790555080600560003373ffffffffffffffffffffffffffffffffffffffff1673ffffffffffffffffffffffffffffffffffffffff168152602001908152602001600020819055507fd34fd2c214fa047be7cd22a9a404a479b80f13f78364990bff299fcb8798be9381604051611365919061301e565b60405180910390a150565b60008060008054906101000a900473ffffffffffffffffffffffffffffffffffffffff1673ffffffffffffffffffffffffffffffffffffffff16630d2f6042846040518263ffffffff1660e01b81526004016113cc9190612dc8565b60006040518083038186803b1580156113e457600080fd5b505afa1580156113f8573d6000803e3d6000fd5b505050506040513d6000823e3d601f19601f8201168201806040525081019061142191906124a8565b90506000600260009054906101000a900473ffffffffffffffffffffffffffffffffffffffff1673ffffffffffffffffffffffffffffffffffffffff166370a0823183600001516040518263ffffffff1660e01b81526004016114849190612d10565b60206040518083038186803b15801561149c57600080fd5b505afa1580156114b0573d6000803e3d6000fd5b505050506040513d601f19601f820116820180604052508101906114d49190612512565b9050670de0b6b3a7640000816114ea91906131d6565b92505050919050565b600760009054906101000a900473ffffffffffffffffffffffffffffffffffffffff1681565b843373ffffffffffffffffffffffffffffffffffffffff1661153a82611d55565b73ffffffffffffffffffffffffffffffffffffffff1614611590576040517f08c379a000000000000000000000000000000000000000000000000000000000815260040161158790612fba565b60405180910390fd5b8561159a81611ce9565b6115d9576040517f08c379a00000000000000000000000000000000000000000000000000000000081526004016115d090612f1a565b60405180910390fd5b60008060009054906101000a900473ffffffffffffffffffffffffffffffffffffffff1673ffffffffffffffffffffffffffffffffffffffff16630d2f6042886040518263ffffffff1660e01b81526004016116359190612dc8565b60006040518083038186803b15801561164d57600080fd5b505afa158015611661573d6000803e3d6000fd5b505050506040513d6000823e3d601f19601f8201168201806040525081019061168a91906124a8565b90508060e001516116d0576040517f08c379a00000000000000000000000000000000000000000000000000000000081526004016116c790612e7a565b60405180910390fd5b6000600360003373ffffffffffffffffffffffffffffffffffffffff1673ffffffffffffffffffffffffffffffffffffffff16815260200190815260200160002090508060040160009054906101000a900460ff1615611765576040517f08c379a000000000000000000000000000000000000000000000000000000000815260040161175c90612f7a565b60405180910390fd5b60004290506000603c896117799190613207565b826117849190613180565b90508360800151826117969190613180565b8111156117d8576040517f08c379a00000000000000000000000000000000000000000000000000000000081526004016117cf90612e9a565b60405180910390fd5b8360c0015188111561181f576040517f08c379a000000000000000000000000000000000000000000000000000000000815260040161181690612eba565b60405180910390fd5b8360a00151871115611866576040517f08c379a000000000000000000000000000000000000000000000000000000000815260040161185d90612f9a565b60405180910390fd5b6000600160009054906101000a900473ffffffffffffffffffffffffffffffffffffffff1673ffffffffffffffffffffffffffffffffffffffff16637ff9b5966040518163ffffffff1660e01b815260040160206040518083038186803b1580156118d057600080fd5b505afa1580156118e4573d6000803e3d6000fd5b505050506040513d601f19601f820116820180604052508101906119089190612512565b85606001518b6119189190613207565b6119229190613207565b90506000600160009054906101000a900473ffffffffffffffffffffffffffffffffffffffff1673ffffffffffffffffffffffffffffffffffffffff166370a08231336040518263ffffffff1660e01b81526004016119819190612d10565b60206040518083038186803b15801561199957600080fd5b505afa1580156119ad573d6000803e3d6000fd5b505050506040513d601f19601f820116820180604052508101906119d19190612512565b905081811015611a16576040517f08c379a0000000000000000000000000000000000000000000000000000000008152600401611a0d90612f3a565b60405180910390fd5b600160009054906101000a900473ffffffffffffffffffffffffffffffffffffffff1673ffffffffffffffffffffffffffffffffffffffff1663a64b6e5f3330856040518463ffffffff1660e01b8152600401611a7593929190612d46565b600060405180830381600087803b158015611a8f57600080fd5b505af1158015611aa3573d6000803e3d6000fd5b50505050611ab18c8e612008565b8b856000019080519060200190611ac992919061212d565b5083856001018190555082856002018190555081856003018190555060018560040160006101000a81548160ff0219169083151502179055508985600501819055508885600601819055508c7f24c394f60382045dbfbbafee67cffce15beaa10393e084f5487a92695360ed6e8d8686604051611b4893929190612dea565b60405180910390a250505050505050505050505050565b60008060008054906101000a900473ffffffffffffffffffffffffffffffffffffffff1673ffffffffffffffffffffffffffffffffffffffff16630d2f6042856040518263ffffffff1660e01b8152600401611bbb9190612dc8565b60006040518083038186803b158015611bd357600080fd5b505afa158015611be7573d6000803e3d6000fd5b505050506040513d6000823e3d601f19601f82011682018060405250810190611c1091906124a8565b9050600073ffffffffffffffffffffffffffffffffffffffff16816000015173ffffffffffffffffffffffffffffffffffffffff161415611c86576040517f08c379a0000000000000000000000000000000000000000000000000000000008152600401611c7d90612eda565b60405180910390fd5b8060e00151611cca576040517f08c379a0000000000000000000000000000000000000000000000000000000008152600401611cc190612e7a565b60405180910390fd5b6000838260600151611cdc9190613207565b9050809250505092915050565b60008073ffffffffffffffffffffffffffffffffffffffff166004600084815260200190815260200160002060009054906101000a900473ffffffffffffffffffffffffffffffffffffffff1673ffffffffffffffffffffffffffffffffffffffff1614159050919050565b60008073ffffffffffffffffffffffffffffffffffffffff166004600084815260200190815260200160002060009054906101000a900473ffffffffffffffffffffffffffffffffffffffff1673ffffffffffffffffffffffffffffffffffffffff161415611df9576040517f08c379a0000000000000000000000000000000000000000000000000000000008152600401611df090612f1a565b60405180910390fd5b6004600083815260200190815260200160002060009054906101000a900473ffffffffffffffffffffffffffffffffffffffff169050919050565b6000808383611e439190613261565b90506000603c601e83611e569190613180565b611e6091906131d6565b90506000670de0b6b3a764000082611e789190613207565b905080935050505092915050565b6000600683604051611e989190612cbc565b9081526020016040518091039020905060005b81805490508110156120025782828281548110611ef1577f4e487b7100000000000000000000000000000000000000000000000000000000600052603260045260246000fd5b90600052602060002001541415611fef578160018380549050611f149190613261565b81548110611f4b577f4e487b7100000000000000000000000000000000000000000000000000000000600052603260045260246000fd5b9060005260206000200154828281548110611f8f577f4e487b7100000000000000000000000000000000000000000000000000000000600052603260045260246000fd5b906000526020600020018190555081805480611fd4577f4e487b7100000000000000000000000000000000000000000000000000000000600052603160045260246000fd5b60019003818190600052602060002001600090559055612002565b8080611ffa90613363565b915050611eab565b50505050565b6006826040516120189190612cbc565b90815260200160405180910390208190806001815401808255809150506001900390600052602060002001600090919091909150555050565b604051806101000160405280600073ffffffffffffffffffffffffffffffffffffffff1681526020016060815260200160608152602001600081526020016000815260200160008152602001600081526020016000151581525090565b6040518060e001604052806060815260200160008152602001600081526020016000815260200160001515815260200160008152602001600081525090565b5080546120f990613331565b6000825580601f1061210b575061212a565b601f01602090049060005260206000209081019061212991906121b3565b5b50565b82805461213990613331565b90600052602060002090601f01602090048101928261215b57600085556121a2565b82601f1061217457805160ff19168380011785556121a2565b828001600101855582156121a2579182015b828111156121a1578251825591602001919060010190612186565b5b5090506121af91906121b3565b5090565b5b808211156121cc5760008160009055506001016121b4565b5090565b60006121e36121de846130ca565b613099565b9050828152602081018484840111156121fb57600080fd5b6122068482856132ef565b509392505050565b600061222161221c846130ca565b613099565b90508281526020810184848401111561223957600080fd5b6122448482856132fe565b509392505050565b60008151905061225b816134b4565b92915050565b600081519050612270816134cb565b92915050565b600082601f83011261228757600080fd5b81356122978482602086016121d0565b91505092915050565b600082601f8301126122b157600080fd5b81516122c184826020860161220e565b91505092915050565b600061010082840312156122dd57600080fd5b6122e8610100613099565b905060006122f88482850161224c565b600083015250602082015167ffffffffffffffff81111561231857600080fd5b612324848285016122a0565b602083015250604082015167ffffffffffffffff81111561234457600080fd5b612350848285016122a0565b6040830152506060612364848285016123d5565b6060830152506080612378848285016123d5565b60808301525060a061238c848285016123d5565b60a08301525060c06123a0848285016123d5565b60c08301525060e06123b484828501612261565b60e08301525092915050565b6000813590506123cf816134e2565b92915050565b6000815190506123e4816134e2565b92915050565b6000602082840312156123fc57600080fd5b600061240a84828501612261565b91505092915050565b60006020828403121561242557600080fd5b600082013567ffffffffffffffff81111561243f57600080fd5b61244b84828501612276565b91505092915050565b6000806040838503121561246757600080fd5b600083013567ffffffffffffffff81111561248157600080fd5b61248d85828601612276565b925050602061249e858286016123c0565b9150509250929050565b6000602082840312156124ba57600080fd5b600082015167ffffffffffffffff8111156124d457600080fd5b6124e0848285016122ca565b91505092915050565b6000602082840312156124fb57600080fd5b6000612509848285016123c0565b91505092915050565b60006020828403121561252457600080fd5b6000612532848285016123d5565b91505092915050565b600080600080600060a0868803121561255357600080fd5b6000612561888289016123c0565b955050602086013567ffffffffffffffff81111561257e57600080fd5b61258a88828901612276565b945050604061259b888289016123c0565b93505060606125ac888289016123c0565b92505060806125bd888289016123c0565b9150509295509295909350565b60006125d68383612c87565b60208301905092915050565b6125eb816132a7565b82525050565b6125fa81613295565b82525050565b61260981613295565b82525050565b61262061261b82613295565b6133ac565b82525050565b60006126318261311f565b61263b8185613142565b9350612646836130fa565b8060005b8381101561267757815161265e88826125ca565b975061266983613135565b92505060018101905061264a565b5085935050505092915050565b61268d816132b9565b82525050565b600061269e8261312a565b6126a88185613153565b93506126b88185602086016132fe565b6126c181613496565b840191505092915050565b60006126d78261312a565b6126e18185613164565b93506126f18185602086016132fe565b6126fa81613496565b840191505092915050565b60006127108261312a565b61271a8185613175565b935061272a8185602086016132fe565b80840191505092915050565b6000815461274381613331565b61274d8186613164565b94506001821660008114612768576001811461277a576127ad565b60ff19831686526020860193506127ad565b6127838561310a565b60005b838110156127a557815481890152600182019150602081019050612786565b808801955050505b50505092915050565b60006127c3601783613164565b91507f41636365737320706f696e74206e6f74206163746976650000000000000000006000830152602082019050919050565b6000612803602683613164565b91507f4475726174696f6e20657863656564732061636365737320706f696e74206d6160008301527f782074696d6500000000000000000000000000000000000000000000000000006020830152604082019050919050565b6000612869602c83613164565b91507f42616e64776964746820657863656564732061636365737320706f696e74206d60008301527f61782062616e64776964746800000000000000000000000000000000000000006020830152604082019050919050565b60006128cf601b83613164565b91507f41636365737320706f696e74206e6f74207265676973746572656400000000006000830152602082019050919050565b600061290f601583613164565b91507f55736572206973206e6f7420636f6e6e656374656400000000000000000000006000830152602082019050919050565b600061294f601483613164565b91507f546f6b656e20646f6573206e6f742065786973740000000000000000000000006000830152602082019050919050565b600061298f601d83613164565b91507f4e6f7420656e6f75676820746f6b656e7320666f72207061796d656e740000006000830152602082019050919050565b60006129cf602783613164565b91507f4f6e6c7920746865204150206f776e65722063616e20646973636f6e6e65637460008301527f20612075736572000000000000000000000000000000000000000000000000006020830152604082019050919050565b6000612a35601983613164565b91507f5573657220697320616c726561647920636f6e6e6563746564000000000000006000830152602082019050919050565b6000612a75603a83613164565b91507f44617461207573616765206c696d69742065786365656473206163636573732060008301527f706f696e74206d61782064617461207573616765206c696d69740000000000006020830152604082019050919050565b6000612adb602483613164565b91507f5573657220746f6b656e20646f6573206e6f74206d617463682074686520736560008301527f6e646572000000000000000000000000000000000000000000000000000000006020830152604082019050919050565b600061010083016000830151612b4d60008601826125f1565b5060208301518482036020860152612b658282612693565b91505060408301518482036040860152612b7f8282612693565b9150506060830151612b946060860182612c87565b506080830151612ba76080860182612c87565b5060a0830151612bba60a0860182612c87565b5060c0830151612bcd60c0860182612c87565b5060e0830151612be060e0860182612684565b508091505092915050565b600060e0830160008301518482036000860152612c088282612693565b9150506020830151612c1d6020860182612c87565b506040830151612c306040860182612c87565b506060830151612c436060860182612c87565b506080830151612c566080860182612684565b5060a0830151612c6960a0860182612c87565b5060c0830151612c7c60c0860182612c87565b508091505092915050565b612c90816132e5565b82525050565b612c9f816132e5565b82525050565b612cb6612cb1826132e5565b6133d0565b82525050565b6000612cc88284612705565b915081905092915050565b6000612cdf8286612ca5565b602082019150612cef828561260f565b601482019150612cff8284612ca5565b602082019150819050949350505050565b6000602082019050612d256000830184612600565b92915050565b6000602082019050612d4060008301846125e2565b92915050565b6000606082019050612d5b6000830186612600565b612d686020830185612600565b612d756040830184612c96565b949350505050565b6000604082019050612d926000830185612600565b612d9f6020830184612c96565b9392505050565b60006020820190508181036000830152612dc08184612626565b905092915050565b60006020820190508181036000830152612de281846126cc565b905092915050565b60006060820190508181036000830152612e0481866126cc565b9050612e136020830185612c96565b612e206040830184612c96565b949350505050565b60006020820190508181036000830152612e428184612736565b905092915050565b60006040820190508181036000830152612e648185612736565b9050612e736020830184612c96565b9392505050565b60006020820190508181036000830152612e93816127b6565b9050919050565b60006020820190508181036000830152612eb3816127f6565b9050919050565b60006020820190508181036000830152612ed38161285c565b9050919050565b60006020820190508181036000830152612ef3816128c2565b9050919050565b60006020820190508181036000830152612f1381612902565b9050919050565b60006020820190508181036000830152612f3381612942565b9050919050565b60006020820190508181036000830152612f5381612982565b9050919050565b60006020820190508181036000830152612f73816129c2565b9050919050565b60006020820190508181036000830152612f9381612a28565b9050919050565b60006020820190508181036000830152612fb381612a68565b9050919050565b60006020820190508181036000830152612fd381612ace565b9050919050565b60006020820190508181036000830152612ff48184612b34565b905092915050565b600060208201905081810360008301526130168184612beb565b905092915050565b60006020820190506130336000830184612c96565b92915050565b600060408201905061304e6000830185612c96565b61305b6020830184612c96565b9392505050565b60006060820190506130776000830186612c96565b6130846020830185612c96565b6130916040830184612c96565b949350505050565b6000604051905081810181811067ffffffffffffffff821117156130c0576130bf613467565b5b8060405250919050565b600067ffffffffffffffff8211156130e5576130e4613467565b5b601f19601f8301169050602081019050919050565b6000819050602082019050919050565b60008190508160005260206000209050919050565b600081519050919050565b600081519050919050565b6000602082019050919050565b600082825260208201905092915050565b600082825260208201905092915050565b600082825260208201905092915050565b600081905092915050565b600061318b826132e5565b9150613196836132e5565b9250827fffffffffffffffffffffffffffffffffffffffffffffffffffffffffffffffff038211156131cb576131ca6133da565b5b828201905092915050565b60006131e1826132e5565b91506131ec836132e5565b9250826131fc576131fb613409565b5b828204905092915050565b6000613212826132e5565b915061321d836132e5565b9250817fffffffffffffffffffffffffffffffffffffffffffffffffffffffffffffffff0483118215151615613256576132556133da565b5b828202905092915050565b600061326c826132e5565b9150613277836132e5565b92508282101561328a576132896133da565b5b828203905092915050565b60006132a0826132c5565b9050919050565b60006132b2826132c5565b9050919050565b60008115159050919050565b600073ffffffffffffffffffffffffffffffffffffffff82169050919050565b6000819050919050565b82818337600083830152505050565b60005b8381101561331c578082015181840152602081019050613301565b8381111561332b576000848401525b50505050565b6000600282049050600182168061334957607f821691505b6020821081141561335d5761335c613438565b5b50919050565b600061336e826132e5565b91507fffffffffffffffffffffffffffffffffffffffffffffffffffffffffffffffff8214156133a1576133a06133da565b5b600182019050919050565b60006133b7826133be565b9050919050565b60006133c9826134a7565b9050919050565b6000819050919050565b7f4e487b7100000000000000000000000000000000000000000000000000000000600052601160045260246000fd5b7f4e487b7100000000000000000000000000000000000000000000000000000000600052601260045260246000fd5b7f4e487b7100000000000000000000000000000000000000000000000000000000600052602260045260246000fd5b7f4e487b7100000000000000000000000000000000000000000000000000000000600052604160045260246000fd5b6000601f19601f8301169050919050565b60008160601b9050919050565b6134bd81613295565b81146134c857600080fd5b50565b6134d4816132b9565b81146134df57600080fd5b50565b6134eb816132e5565b81146134f657600080fd5b5056fea264697066735822122052aaf8c6783491bf985040922de8a68d7fcf193326f0599689ea7bb6808274be64736f6c63430008000033",
  "linkReferences": {},
  "deployedLinkReferences": {}
}