{
  "_format": "hh-sol-artifact-1",
  "contractName": "WiFeeAccess",
  "sourceName": "src/backend/contracts/WiFeeAccess.sol",
  "abi": [
    {
      "inputs": [
        {
          "internalType": "address",
          "name": "wiFeeRegistryAddress",
          "type": "address"
        },
        {
          "internalType": "address payable",
          "name": "internetTokenAddress",
          "type": "address"
        }
      ],
      "stateMutability": "nonpayable",
      "type": "constructor"
    },
    {
      "anonymous": false,
      "inputs": [
        {
          "indexed": true,
          "internalType": "uint256",
          "name": "userToken",
          "type": "uint256"
        },
        {
          "indexed": false,
          "internalType": "string",
          "name": "mac",
          "type": "string"
        },
        {
          "indexed": false,
          "internalType": "uint256",
          "name": "startTime",
          "type": "uint256"
        },
        {
          "indexed": false,
          "internalType": "uint256",
          "name": "endTime",
          "type": "uint256"
        }
      ],
      "name": "Connected",
      "type": "event"
    },
    {
      "anonymous": false,
      "inputs": [
        {
          "indexed": true,
          "internalType": "uint256",
          "name": "userToken",
          "type": "uint256"
        },
        {
          "indexed": false,
          "internalType": "string",
          "name": "mac",
          "type": "string"
        },
        {
          "indexed": false,
          "internalType": "uint256",
          "name": "endTime",
          "type": "uint256"
        }
      ],
      "name": "Disconnected",
      "type": "event"
    },
    {
      "anonymous": false,
      "inputs": [
        {
          "indexed": true,
          "internalType": "uint256",
          "name": "userToken",
          "type": "uint256"
        },
        {
          "indexed": false,
          "internalType": "uint256",
          "name": "tokens",
          "type": "uint256"
        }
      ],
      "name": "TokensBought",
      "type": "event"
    },
    {
      "anonymous": false,
      "inputs": [
        {
          "indexed": false,
          "internalType": "uint256",
          "name": "userToken",
          "type": "uint256"
        }
      ],
      "name": "UserTokenCreated",
      "type": "event"
    },
    {
      "anonymous": false,
      "inputs": [
        {
          "indexed": false,
          "internalType": "uint256",
          "name": "userToken",
          "type": "uint256"
        }
      ],
      "name": "UserTokenRevoked",
      "type": "event"
    },
    {
      "inputs": [
        {
          "internalType": "uint256",
          "name": "userToken",
          "type": "uint256"
        },
        {
          "internalType": "string",
          "name": "mac",
          "type": "string"
        },
        {
          "internalType": "uint256",
          "name": "duration",
          "type": "uint256"
        }
      ],
      "name": "connect",
      "outputs": [],
      "stateMutability": "nonpayable",
      "type": "function"
    },
    {
      "inputs": [],
      "name": "createTokenForUser",
      "outputs": [],
      "stateMutability": "nonpayable",
      "type": "function"
    },
    {
      "inputs": [
        {
          "internalType": "uint256",
          "name": "userToken",
          "type": "uint256"
        }
      ],
      "name": "disconnect",
      "outputs": [],
      "stateMutability": "nonpayable",
      "type": "function"
    },
    {
      "inputs": [
        {
          "internalType": "string",
          "name": "_mac",
          "type": "string"
        }
      ],
      "name": "getAPInfo",
      "outputs": [
        {
          "components": [
            {
              "internalType": "address",
              "name": "owner",
              "type": "address"
            },
            {
              "internalType": "string",
              "name": "ssid",
              "type": "string"
            },
            {
              "internalType": "string",
              "name": "mac",
              "type": "string"
            },
            {
              "internalType": "uint256",
              "name": "price",
              "type": "uint256"
            },
            {
              "internalType": "uint256",
              "name": "maxTime",
              "type": "uint256"
            },
            {
              "internalType": "bool",
              "name": "active",
              "type": "bool"
            }
          ],
          "internalType": "struct WiFeeRegistry.AccessPoint",
          "name": "",
          "type": "tuple"
        }
      ],
      "stateMutability": "view",
      "type": "function"
    },
    {
      "inputs": [
        {
          "internalType": "string",
          "name": "_mac",
          "type": "string"
        }
      ],
      "name": "getConnectedUserTokens",
      "outputs": [
        {
          "internalType": "uint256[]",
          "name": "",
          "type": "uint256[]"
        }
      ],
      "stateMutability": "view",
      "type": "function"
    },
    {
      "inputs": [
        {
          "internalType": "uint256",
          "name": "userToken",
          "type": "uint256"
        }
      ],
      "name": "getConnectionInfo",
      "outputs": [
        {
          "components": [
            {
              "internalType": "string",
              "name": "mac",
              "type": "string"
            },
            {
              "internalType": "uint256",
              "name": "startTime",
              "type": "uint256"
            },
            {
              "internalType": "uint256",
              "name": "endTime",
              "type": "uint256"
            },
            {
              "internalType": "uint256",
              "name": "tokensPaid",
              "type": "uint256"
            },
            {
              "internalType": "bool",
              "name": "isConnected",
              "type": "bool"
            }
          ],
          "internalType": "struct WiFeeAccess.Connection",
          "name": "",
          "type": "tuple"
        }
      ],
      "stateMutability": "view",
      "type": "function"
    },
    {
      "inputs": [
        {
          "internalType": "string",
          "name": "mac",
          "type": "string"
        },
        {
          "internalType": "uint256",
          "name": "connectedTime",
          "type": "uint256"
        }
      ],
      "name": "getConnectionPrice",
      "outputs": [
        {
          "internalType": "uint256",
          "name": "",
          "type": "uint256"
        }
      ],
      "stateMutability": "view",
      "type": "function"
    },
    {
      "inputs": [],
      "name": "owner",
      "outputs": [
        {
          "internalType": "address payable",
          "name": "",
          "type": "address"
        }
      ],
      "stateMutability": "view",
      "type": "function"
    }
  ],
  "bytecode": "0x608060405260006007553480156200001657600080fd5b506040516200290c3803806200290c83398181016040528101906200003c919062000134565b816000806101000a81548173ffffffffffffffffffffffffffffffffffffffff021916908373ffffffffffffffffffffffffffffffffffffffff16021790555080600160006101000a81548173ffffffffffffffffffffffffffffffffffffffff021916908373ffffffffffffffffffffffffffffffffffffffff16021790555033600660006101000a81548173ffffffffffffffffffffffffffffffffffffffff021916908373ffffffffffffffffffffffffffffffffffffffff1602179055505050620001f1565b6000815190506200011781620001bd565b92915050565b6000815190506200012e81620001d7565b92915050565b600080604083850312156200014857600080fd5b6000620001588582860162000106565b92505060206200016b858286016200011d565b9150509250929050565b600062000182826200019d565b9050919050565b600062000196826200019d565b9050919050565b600073ffffffffffffffffffffffffffffffffffffffff82169050919050565b620001c88162000175565b8114620001d457600080fd5b50565b620001e28162000189565b8114620001ee57600080fd5b50565b61270b80620002016000396000f3fe608060405234801561001057600080fd5b50600436106100885760003560e01c806347588f1f1161005b57806347588f1f1461013957806361f9875f146101555780638da5cb5b1461015f578063c833f4721461017d57610088565b806306300d9b1461008d5780630d2f6042146100bd5780630f635dd4146100ed5780632c9318e51461011d575b600080fd5b6100a760048036038101906100a291906118b6565b6101ad565b6040516100b491906120a2565b60405180910390f35b6100d760048036038101906100d291906118b6565b61034b565b6040516100e49190612276565b60405180910390f35b6101076004803603810190610102919061198c565b610408565b6040516101149190612298565b60405180910390f35b610137600480360381019061013291906119de565b610584565b005b610153600480360381019061014e919061198c565b610b1c565b005b61015d610f59565b005b610167611075565b6040516101749190612027565b60405180910390f35b610197600480360381019061019291906118f7565b61109b565b6040516101a491906122ba565b60405180910390f35b606060008060009054906101000a900473ffffffffffffffffffffffffffffffffffffffff1673ffffffffffffffffffffffffffffffffffffffff16630d2f6042846040518263ffffffff1660e01b815260040161020b91906120c4565b60006040518083038186803b15801561022357600080fd5b505afa158015610237573d6000803e3d6000fd5b505050506040513d6000823e3d601f19601f82011682018060405250810190610260919061194b565b9050600073ffffffffffffffffffffffffffffffffffffffff16816000015173ffffffffffffffffffffffffffffffffffffffff1614156102d6576040517f08c379a00000000000000000000000000000000000000000000000000000000081526004016102cd906121b6565b60405180910390fd5b6005836040516102e69190611fb8565b908152602001604051809103902080548060200260200160405190810160405280929190818152602001828054801561033e57602002820191906000526020600020905b81548152602001906001019080831161032a575b5050505050915050919050565b61035361153b565b60008054906101000a900473ffffffffffffffffffffffffffffffffffffffff1673ffffffffffffffffffffffffffffffffffffffff16630d2f6042836040518263ffffffff1660e01b81526004016103ac91906120c4565b60006040518083038186803b1580156103c457600080fd5b505afa1580156103d8573d6000803e3d6000fd5b505050506040513d6000823e3d601f19601f82011682018060405250810190610401919061194b565b9050919050565b610410611589565b8161041a81611225565b610459576040517f08c379a0000000000000000000000000000000000000000000000000000000008152600401610450906121f6565b60405180910390fd5b600061046484611291565b9050600260008273ffffffffffffffffffffffffffffffffffffffff1673ffffffffffffffffffffffffffffffffffffffff1681526020019081526020016000206040518060a00160405290816000820180546104c09061253c565b80601f01602080910402602001604051908101604052809291908181526020018280546104ec9061253c565b80156105395780601f1061050e57610100808354040283529160200191610539565b820191906000526020600020905b81548152906001019060200180831161051c57829003601f168201915b505050505081526020016001820154815260200160028201548152602001600382015481526020016004820160009054906101000a900460ff16151515158152505092505050919050565b823373ffffffffffffffffffffffffffffffffffffffff166105a582611291565b73ffffffffffffffffffffffffffffffffffffffff16146105fb576040517f08c379a00000000000000000000000000000000000000000000000000000000081526004016105f290612256565b60405180910390fd5b8361060581611225565b610644576040517f08c379a000000000000000000000000000000000000000000000000000000000815260040161063b906121f6565b60405180910390fd5b60008060009054906101000a900473ffffffffffffffffffffffffffffffffffffffff1673ffffffffffffffffffffffffffffffffffffffff16630d2f6042866040518263ffffffff1660e01b81526004016106a091906120c4565b60006040518083038186803b1580156106b857600080fd5b505afa1580156106cc573d6000803e3d6000fd5b505050506040513d6000823e3d601f19601f820116820180604052508101906106f5919061194b565b90508060a0015161073b576040517f08c379a000000000000000000000000000000000000000000000000000000000815260040161073290612176565b60405180910390fd5b6000600260003373ffffffffffffffffffffffffffffffffffffffff1673ffffffffffffffffffffffffffffffffffffffff16815260200190815260200160002090508060040160009054906101000a900460ff16156107d0576040517f08c379a00000000000000000000000000000000000000000000000000000000081526004016107c790612236565b60405180910390fd5b6000429050600086826107e391906123bc565b90508360800151826107f591906123bc565b811115610837576040517f08c379a000000000000000000000000000000000000000000000000000000000815260040161082e90612196565b60405180910390fd5b6000600160009054906101000a900473ffffffffffffffffffffffffffffffffffffffff1673ffffffffffffffffffffffffffffffffffffffff16637ff9b5966040518163ffffffff1660e01b815260040160206040518083038186803b1580156108a157600080fd5b505afa1580156108b5573d6000803e3d6000fd5b505050506040513d601f19601f820116820180604052508101906108d991906119b5565b8560600151896108e99190612412565b6108f39190612412565b90506000600160009054906101000a900473ffffffffffffffffffffffffffffffffffffffff1673ffffffffffffffffffffffffffffffffffffffff166370a08231336040518263ffffffff1660e01b8152600401610952919061200c565b60206040518083038186803b15801561096a57600080fd5b505afa15801561097e573d6000803e3d6000fd5b505050506040513d601f19601f820116820180604052508101906109a291906119b5565b9050818110156109e7576040517f08c379a00000000000000000000000000000000000000000000000000000000081526004016109de90612216565b60405180910390fd5b600160009054906101000a900473ffffffffffffffffffffffffffffffffffffffff1673ffffffffffffffffffffffffffffffffffffffff1663a64b6e5f3330856040518463ffffffff1660e01b8152600401610a4693929190612042565b600060405180830381600087803b158015610a6057600080fd5b505af1158015610a74573d6000803e3d6000fd5b50505050610a828a8c611370565b89856000019080519060200190610a9a9291906115ba565b5083856001018190555082856002018190555081856003018190555060018560040160006101000a81548160ff0219169083151502179055508a7f24c394f60382045dbfbbafee67cffce15beaa10393e084f5487a92695360ed6e8b8686604051610b07939291906120e6565b60405180910390a25050505050505050505050565b803373ffffffffffffffffffffffffffffffffffffffff16610b3d82611291565b73ffffffffffffffffffffffffffffffffffffffff1614610b93576040517f08c379a0000000000000000000000000000000000000000000000000000000008152600401610b8a90612256565b60405180910390fd5b81610b9d81611225565b610bdc576040517f08c379a0000000000000000000000000000000000000000000000000000000008152600401610bd3906121f6565b60405180910390fd5b6000600260003373ffffffffffffffffffffffffffffffffffffffff1673ffffffffffffffffffffffffffffffffffffffff16815260200190815260200160002090508060040160009054906101000a900460ff16610c70576040517f08c379a0000000000000000000000000000000000000000000000000000000008152600401610c67906121d6565b60405180910390fd5b60008060009054906101000a900473ffffffffffffffffffffffffffffffffffffffff1673ffffffffffffffffffffffffffffffffffffffff16630d2f6042836000016040518263ffffffff1660e01b8152600401610ccf9190612124565b60006040518083038186803b158015610ce757600080fd5b505afa158015610cfb573d6000803e3d6000fd5b505050506040513d6000823e3d601f19601f82011682018060405250810190610d24919061194b565b9050600082600301549050600160009054906101000a900473ffffffffffffffffffffffffffffffffffffffff1673ffffffffffffffffffffffffffffffffffffffff1663a9059cbb8360000151836040518363ffffffff1660e01b8152600401610d90929190612079565b602060405180830381600087803b158015610daa57600080fd5b505af1158015610dbe573d6000803e3d6000fd5b505050506040513d601f19601f82011682018060405250810190610de2919061188d565b5060008360040160006101000a81548160ff021916908315150217905550610e96836000018054610e129061253c565b80601f0160208091040260200160405190810160405280929190818152602001828054610e3e9061253c565b8015610e8b5780601f10610e6057610100808354040283529160200191610e8b565b820191906000526020600020905b815481529060010190602001808311610e6e57829003601f168201915b5050505050876113b9565b857f478bce134704bd99193a073688098bdbd5ea2ff339ed09105c7a03e979b055c48460000142604051610ecb929190612146565b60405180910390a2600260003373ffffffffffffffffffffffffffffffffffffffff1673ffffffffffffffffffffffffffffffffffffffff16815260200190815260200160002060008082016000610f239190611640565b6001820160009055600282016000905560038201600090556004820160006101000a81549060ff02191690555050505050505050565b60076000815480929190610f6c9061256e565b919050555060004233600754604051602001610f8a93929190611fcf565b6040516020818303038152906040528051906020012060001c9050336003600083815260200190815260200160002060006101000a81548173ffffffffffffffffffffffffffffffffffffffff021916908373ffffffffffffffffffffffffffffffffffffffff16021790555080600460003373ffffffffffffffffffffffffffffffffffffffff1673ffffffffffffffffffffffffffffffffffffffff168152602001908152602001600020819055507fd34fd2c214fa047be7cd22a9a404a479b80f13f78364990bff299fcb8798be938160405161106a91906122ba565b60405180910390a150565b600660009054906101000a900473ffffffffffffffffffffffffffffffffffffffff1681565b60008060008054906101000a900473ffffffffffffffffffffffffffffffffffffffff1673ffffffffffffffffffffffffffffffffffffffff16630d2f6042856040518263ffffffff1660e01b81526004016110f791906120c4565b60006040518083038186803b15801561110f57600080fd5b505afa158015611123573d6000803e3d6000fd5b505050506040513d6000823e3d601f19601f8201168201806040525081019061114c919061194b565b9050600073ffffffffffffffffffffffffffffffffffffffff16816000015173ffffffffffffffffffffffffffffffffffffffff1614156111c2576040517f08c379a00000000000000000000000000000000000000000000000000000000081526004016111b9906121b6565b60405180910390fd5b8060a00151611206576040517f08c379a00000000000000000000000000000000000000000000000000000000081526004016111fd90612176565b60405180910390fd5b60008382606001516112189190612412565b9050809250505092915050565b60008073ffffffffffffffffffffffffffffffffffffffff166003600084815260200190815260200160002060009054906101000a900473ffffffffffffffffffffffffffffffffffffffff1673ffffffffffffffffffffffffffffffffffffffff1614159050919050565b60008073ffffffffffffffffffffffffffffffffffffffff166003600084815260200190815260200160002060009054906101000a900473ffffffffffffffffffffffffffffffffffffffff1673ffffffffffffffffffffffffffffffffffffffff161415611335576040517f08c379a000000000000000000000000000000000000000000000000000000000815260040161132c906121f6565b60405180910390fd5b6003600083815260200190815260200160002060009054906101000a900473ffffffffffffffffffffffffffffffffffffffff169050919050565b6005826040516113809190611fb8565b90815260200160405180910390208190806001815401808255809150506001900390600052602060002001600090919091909150555050565b60006005836040516113cb9190611fb8565b9081526020016040518091039020905060005b81805490508110156115355782828281548110611424577f4e487b7100000000000000000000000000000000000000000000000000000000600052603260045260246000fd5b90600052602060002001541415611522578160018380549050611447919061246c565b8154811061147e577f4e487b7100000000000000000000000000000000000000000000000000000000600052603260045260246000fd5b90600052602060002001548282815481106114c2577f4e487b7100000000000000000000000000000000000000000000000000000000600052603260045260246000fd5b906000526020600020018190555081805480611507577f4e487b7100000000000000000000000000000000000000000000000000000000600052603160045260246000fd5b60019003818190600052602060002001600090559055611535565b808061152d9061256e565b9150506113de565b50505050565b6040518060c00160405280600073ffffffffffffffffffffffffffffffffffffffff168152602001606081526020016060815260200160008152602001600081526020016000151581525090565b6040518060a00160405280606081526020016000815260200160008152602001600081526020016000151581525090565b8280546115c69061253c565b90600052602060002090601f0160209004810192826115e8576000855561162f565b82601f1061160157805160ff191683800117855561162f565b8280016001018555821561162f579182015b8281111561162e578251825591602001919060010190611613565b5b50905061163c9190611680565b5090565b50805461164c9061253c565b6000825580601f1061165e575061167d565b601f01602090049060005260206000209081019061167c9190611680565b5b50565b5b80821115611699576000816000905550600101611681565b5090565b60006116b06116ab84612306565b6122d5565b9050828152602081018484840111156116c857600080fd5b6116d38482856124fa565b509392505050565b60006116ee6116e984612306565b6122d5565b90508281526020810184848401111561170657600080fd5b611711848285612509565b509392505050565b60008151905061172881612690565b92915050565b60008151905061173d816126a7565b92915050565b600082601f83011261175457600080fd5b813561176484826020860161169d565b91505092915050565b600082601f83011261177e57600080fd5b815161178e8482602086016116db565b91505092915050565b600060c082840312156117a957600080fd5b6117b360c06122d5565b905060006117c384828501611719565b600083015250602082015167ffffffffffffffff8111156117e357600080fd5b6117ef8482850161176d565b602083015250604082015167ffffffffffffffff81111561180f57600080fd5b61181b8482850161176d565b604083015250606061182f84828501611878565b606083015250608061184384828501611878565b60808301525060a06118578482850161172e565b60a08301525092915050565b600081359050611872816126be565b92915050565b600081519050611887816126be565b92915050565b60006020828403121561189f57600080fd5b60006118ad8482850161172e565b91505092915050565b6000602082840312156118c857600080fd5b600082013567ffffffffffffffff8111156118e257600080fd5b6118ee84828501611743565b91505092915050565b6000806040838503121561190a57600080fd5b600083013567ffffffffffffffff81111561192457600080fd5b61193085828601611743565b925050602061194185828601611863565b9150509250929050565b60006020828403121561195d57600080fd5b600082015167ffffffffffffffff81111561197757600080fd5b61198384828501611797565b91505092915050565b60006020828403121561199e57600080fd5b60006119ac84828501611863565b91505092915050565b6000602082840312156119c757600080fd5b60006119d584828501611878565b91505092915050565b6000806000606084860312156119f357600080fd5b6000611a0186828701611863565b935050602084013567ffffffffffffffff811115611a1e57600080fd5b611a2a86828701611743565b9250506040611a3b86828701611863565b9150509250925092565b6000611a518383611f83565b60208301905092915050565b611a66816124b2565b82525050565b611a75816124a0565b82525050565b611a84816124a0565b82525050565b611a9b611a96826124a0565b6125b7565b82525050565b6000611aac8261235b565b611ab6818561237e565b9350611ac183612336565b8060005b83811015611af2578151611ad98882611a45565b9750611ae483612371565b925050600181019050611ac5565b5085935050505092915050565b611b08816124c4565b82525050565b6000611b1982612366565b611b23818561238f565b9350611b33818560208601612509565b611b3c81612672565b840191505092915050565b6000611b5282612366565b611b5c81856123a0565b9350611b6c818560208601612509565b611b7581612672565b840191505092915050565b6000611b8b82612366565b611b9581856123b1565b9350611ba5818560208601612509565b80840191505092915050565b60008154611bbe8161253c565b611bc881866123a0565b94506001821660008114611be35760018114611bf557611c28565b60ff1983168652602086019350611c28565b611bfe85612346565b60005b83811015611c2057815481890152600182019150602081019050611c01565b808801955050505b50505092915050565b6000611c3e6017836123a0565b91507f41636365737320706f696e74206e6f74206163746976650000000000000000006000830152602082019050919050565b6000611c7e6026836123a0565b91507f4475726174696f6e20657863656564732061636365737320706f696e74206d6160008301527f782074696d6500000000000000000000000000000000000000000000000000006020830152604082019050919050565b6000611ce4601b836123a0565b91507f41636365737320706f696e74206e6f74207265676973746572656400000000006000830152602082019050919050565b6000611d246015836123a0565b91507f55736572206973206e6f7420636f6e6e656374656400000000000000000000006000830152602082019050919050565b6000611d646014836123a0565b91507f546f6b656e20646f6573206e6f742065786973740000000000000000000000006000830152602082019050919050565b6000611da4601d836123a0565b91507f4e6f7420656e6f75676820746f6b656e7320666f72207061796d656e740000006000830152602082019050919050565b6000611de46019836123a0565b91507f5573657220697320616c726561647920636f6e6e6563746564000000000000006000830152602082019050919050565b6000611e246024836123a0565b91507f5573657220746f6b656e20646f6573206e6f74206d617463682074686520736560008301527f6e646572000000000000000000000000000000000000000000000000000000006020830152604082019050919050565b600060c083016000830151611e956000860182611a6c565b5060208301518482036020860152611ead8282611b0e565b91505060408301518482036040860152611ec78282611b0e565b9150506060830151611edc6060860182611f83565b506080830151611eef6080860182611f83565b5060a0830151611f0260a0860182611aff565b508091505092915050565b600060a0830160008301518482036000860152611f2a8282611b0e565b9150506020830151611f3f6020860182611f83565b506040830151611f526040860182611f83565b506060830151611f656060860182611f83565b506080830151611f786080860182611aff565b508091505092915050565b611f8c816124f0565b82525050565b611f9b816124f0565b82525050565b611fb2611fad826124f0565b6125db565b82525050565b6000611fc48284611b80565b915081905092915050565b6000611fdb8286611fa1565b602082019150611feb8285611a8a565b601482019150611ffb8284611fa1565b602082019150819050949350505050565b60006020820190506120216000830184611a7b565b92915050565b600060208201905061203c6000830184611a5d565b92915050565b60006060820190506120576000830186611a7b565b6120646020830185611a7b565b6120716040830184611f92565b949350505050565b600060408201905061208e6000830185611a7b565b61209b6020830184611f92565b9392505050565b600060208201905081810360008301526120bc8184611aa1565b905092915050565b600060208201905081810360008301526120de8184611b47565b905092915050565b600060608201905081810360008301526121008186611b47565b905061210f6020830185611f92565b61211c6040830184611f92565b949350505050565b6000602082019050818103600083015261213e8184611bb1565b905092915050565b600060408201905081810360008301526121608185611bb1565b905061216f6020830184611f92565b9392505050565b6000602082019050818103600083015261218f81611c31565b9050919050565b600060208201905081810360008301526121af81611c71565b9050919050565b600060208201905081810360008301526121cf81611cd7565b9050919050565b600060208201905081810360008301526121ef81611d17565b9050919050565b6000602082019050818103600083015261220f81611d57565b9050919050565b6000602082019050818103600083015261222f81611d97565b9050919050565b6000602082019050818103600083015261224f81611dd7565b9050919050565b6000602082019050818103600083015261226f81611e17565b9050919050565b600060208201905081810360008301526122908184611e7d565b905092915050565b600060208201905081810360008301526122b28184611f0d565b905092915050565b60006020820190506122cf6000830184611f92565b92915050565b6000604051905081810181811067ffffffffffffffff821117156122fc576122fb612643565b5b8060405250919050565b600067ffffffffffffffff82111561232157612320612643565b5b601f19601f8301169050602081019050919050565b6000819050602082019050919050565b60008190508160005260206000209050919050565b600081519050919050565b600081519050919050565b6000602082019050919050565b600082825260208201905092915050565b600082825260208201905092915050565b600082825260208201905092915050565b600081905092915050565b60006123c7826124f0565b91506123d2836124f0565b9250827fffffffffffffffffffffffffffffffffffffffffffffffffffffffffffffffff03821115612407576124066125e5565b5b828201905092915050565b600061241d826124f0565b9150612428836124f0565b9250817fffffffffffffffffffffffffffffffffffffffffffffffffffffffffffffffff0483118215151615612461576124606125e5565b5b828202905092915050565b6000612477826124f0565b9150612482836124f0565b925082821015612495576124946125e5565b5b828203905092915050565b60006124ab826124d0565b9050919050565b60006124bd826124d0565b9050919050565b60008115159050919050565b600073ffffffffffffffffffffffffffffffffffffffff82169050919050565b6000819050919050565b82818337600083830152505050565b60005b8381101561252757808201518184015260208101905061250c565b83811115612536576000848401525b50505050565b6000600282049050600182168061255457607f821691505b6020821081141561256857612567612614565b5b50919050565b6000612579826124f0565b91507fffffffffffffffffffffffffffffffffffffffffffffffffffffffffffffffff8214156125ac576125ab6125e5565b5b600182019050919050565b60006125c2826125c9565b9050919050565b60006125d482612683565b9050919050565b6000819050919050565b7f4e487b7100000000000000000000000000000000000000000000000000000000600052601160045260246000fd5b7f4e487b7100000000000000000000000000000000000000000000000000000000600052602260045260246000fd5b7f4e487b7100000000000000000000000000000000000000000000000000000000600052604160045260246000fd5b6000601f19601f8301169050919050565b60008160601b9050919050565b612699816124a0565b81146126a457600080fd5b50565b6126b0816124c4565b81146126bb57600080fd5b50565b6126c7816124f0565b81146126d257600080fd5b5056fea26469706673582212201265cc50b9a9942431d93527729fadf7cff277c8c5a9f19b5797342f3c99d18464736f6c63430008000033",
  "linkReferences": {},
  "deployedLinkReferences": {}
}