{
  "_format": "hh-sol-artifact-1",
  "contractName": "WiFeeRegistry",
  "sourceName": "contracts/WiFeeRegistry.sol",
  "abi": [
    {
      "anonymous": false,
      "inputs": [
        {
          "indexed": true,
          "internalType": "address",
          "name": "_owner",
          "type": "address"
        },
        {
          "indexed": false,
          "internalType": "string",
          "name": "_ssid",
          "type": "string"
        },
        {
          "indexed": false,
          "internalType": "string",
          "name": "_mac",
          "type": "string"
        },
        {
          "indexed": false,
          "internalType": "uint256",
          "name": "_price",
          "type": "uint256"
        },
        {
          "indexed": false,
          "internalType": "uint256",
          "name": "_maxTime",
          "type": "uint256"
        }
      ],
      "name": "APModified",
      "type": "event"
    },
    {
      "anonymous": false,
      "inputs": [
        {
          "indexed": true,
          "internalType": "address",
          "name": "_owner",
          "type": "address"
        },
        {
          "indexed": false,
          "internalType": "string",
          "name": "_ssid",
          "type": "string"
        },
        {
          "indexed": false,
          "internalType": "string",
          "name": "_mac",
          "type": "string"
        },
        {
          "indexed": false,
          "internalType": "uint256",
          "name": "_price",
          "type": "uint256"
        },
        {
          "indexed": false,
          "internalType": "uint256",
          "name": "_maxTime",
          "type": "uint256"
        }
      ],
      "name": "APRegistered",
      "type": "event"
    },
    {
      "anonymous": false,
      "inputs": [
        {
          "indexed": true,
          "internalType": "address",
          "name": "_owner",
          "type": "address"
        },
        {
          "indexed": false,
          "internalType": "string",
          "name": "_ssid",
          "type": "string"
        },
        {
          "indexed": false,
          "internalType": "string",
          "name": "_mac",
          "type": "string"
        }
      ],
      "name": "APRemoved",
      "type": "event"
    },
    {
      "inputs": [
        {
          "internalType": "string",
          "name": "_mac",
          "type": "string"
        }
      ],
      "name": "getAPInfo",
      "outputs": [
        {
          "components": [
            {
              "internalType": "address",
              "name": "owner",
              "type": "address"
            },
            {
              "internalType": "string",
              "name": "ssid",
              "type": "string"
            },
            {
              "internalType": "string",
              "name": "mac",
              "type": "string"
            },
            {
              "internalType": "uint256",
              "name": "price",
              "type": "uint256"
            },
            {
              "internalType": "uint256",
              "name": "maxTime",
              "type": "uint256"
            },
            {
              "internalType": "bool",
              "name": "active",
              "type": "bool"
            }
          ],
          "internalType": "struct WiFeeRegistry.AccessPoint",
          "name": "",
          "type": "tuple"
        }
      ],
      "stateMutability": "view",
      "type": "function"
    },
    {
      "inputs": [
        {
          "internalType": "string",
          "name": "_mac",
          "type": "string"
        }
      ],
      "name": "isOwner",
      "outputs": [
        {
          "internalType": "bool",
          "name": "",
          "type": "bool"
        }
      ],
      "stateMutability": "view",
      "type": "function"
    },
    {
      "inputs": [
        {
          "internalType": "string",
          "name": "_ssid",
          "type": "string"
        },
        {
          "internalType": "string",
          "name": "_mac",
          "type": "string"
        },
        {
          "internalType": "uint256",
          "name": "_price",
          "type": "uint256"
        },
        {
          "internalType": "uint256",
          "name": "_maxTime",
          "type": "uint256"
        }
      ],
      "name": "registerAP",
      "outputs": [],
      "stateMutability": "nonpayable",
      "type": "function"
    },
    {
      "inputs": [
        {
          "internalType": "string",
          "name": "_mac",
          "type": "string"
        }
      ],
      "name": "removeAP",
      "outputs": [],
      "stateMutability": "nonpayable",
      "type": "function"
    },
    {
      "inputs": [
        {
          "internalType": "string",
          "name": "_mac",
          "type": "string"
        },
        {
          "internalType": "string",
          "name": "_ssid",
          "type": "string"
        },
        {
          "internalType": "uint256",
          "name": "_price",
          "type": "uint256"
        },
        {
          "internalType": "uint256",
          "name": "_maxTime",
          "type": "uint256"
        }
      ],
      "name": "setAPInfo",
      "outputs": [],
      "stateMutability": "nonpayable",
      "type": "function"
    }
  ],
  "bytecode": "0x608060405234801561001057600080fd5b50611751806100206000396000f3fe608060405234801561001057600080fd5b50600436106100575760003560e01c80630d2f60421461005c578063429798601461008c57806364c79697146100a8578063b85e943d146100c4578063cc94b1ea146100f4575b600080fd5b61007660048036038101906100719190610df5565b610110565b6040516100839190611509565b60405180910390f35b6100a660048036038101906100a19190610e36565b610339565b005b6100c260048036038101906100bd9190610df5565b61054a565b005b6100de60048036038101906100d99190610df5565b610709565b6040516100eb9190611344565b60405180910390f35b61010e60048036038101906101099190610e36565b610782565b005b610118610c47565b61012182610b70565b610160576040517f08c379a0000000000000000000000000000000000000000000000000000000008152600401610157906113e9565b60405180910390fd5b600082604051610170919061132d565b90815260200160405180910390206040518060c00160405290816000820160009054906101000a900473ffffffffffffffffffffffffffffffffffffffff1673ffffffffffffffffffffffffffffffffffffffff1673ffffffffffffffffffffffffffffffffffffffff1681526020016001820180546101ef90611663565b80601f016020809104026020016040519081016040528092919081815260200182805461021b90611663565b80156102685780601f1061023d57610100808354040283529160200191610268565b820191906000526020600020905b81548152906001019060200180831161024b57829003601f168201915b5050505050815260200160028201805461028190611663565b80601f01602080910402602001604051908101604052809291908181526020018280546102ad90611663565b80156102fa5780601f106102cf576101008083540402835291602001916102fa565b820191906000526020600020905b8154815290600101906020018083116102dd57829003601f168201915b5050505050815260200160038201548152602001600482015481526020016005820160009054906101000a900460ff1615151515815250509050919050565b8361034381610709565b610382576040517f08c379a000000000000000000000000000000000000000000000000000000000815260040161037990611409565b60405180910390fd5b61038b85610b70565b6103ca576040517f08c379a00000000000000000000000000000000000000000000000000000000081526004016103c190611429565b60405180910390fd5b6103d384610bea565b610412576040517f08c379a000000000000000000000000000000000000000000000000000000000815260040161040990611449565b60405180910390fd5b61041b83610c05565b61045a576040517f08c379a0000000000000000000000000000000000000000000000000000000008152600401610451906114e9565b60405180910390fd5b61046382610c11565b6104a2576040517f08c379a000000000000000000000000000000000000000000000000000000000815260040161049990611489565b60405180910390fd5b600080866040516104b3919061132d565b90815260200160405180910390209050848160010190805190602001906104db929190610c95565b508381600301819055508281600401819055503373ffffffffffffffffffffffffffffffffffffffff167f89e0e96d10bab49b3c509444b690106a388fd1cfb716a615ff829bf26e2b511a8688878760405161053a949392919061135f565b60405180910390a2505050505050565b8061055481610709565b610593576040517f08c379a000000000000000000000000000000000000000000000000000000000815260040161058a90611409565b60405180910390fd5b61059c82610b70565b6105db576040517f08c379a00000000000000000000000000000000000000000000000000000000081526004016105d290611429565b60405180910390fd5b3373ffffffffffffffffffffffffffffffffffffffff167f1d4528bbaa57c275c35e5462b048aeaaea47e8e37f9d5fa09bf196803a2f5aae600084604051610623919061132d565b9081526020016040518091039020600101846040516106439291906113b2565b60405180910390a260018260405161065b919061132d565b908152602001604051809103902060006101000a81549060ff0219169055600082604051610689919061132d565b9081526020016040518091039020600080820160006101000a81549073ffffffffffffffffffffffffffffffffffffffff02191690556001820160006106cf9190610d1b565b6002820160006106df9190610d1b565b600382016000905560048201600090556005820160006101000a81549060ff021916905550505050565b60003373ffffffffffffffffffffffffffffffffffffffff16600083604051610732919061132d565b908152602001604051809103902060000160009054906101000a900473ffffffffffffffffffffffffffffffffffffffff1673ffffffffffffffffffffffffffffffffffffffff16149050919050565b600073ffffffffffffffffffffffffffffffffffffffff166000846040516107aa919061132d565b908152602001604051809103902060000160009054906101000a900473ffffffffffffffffffffffffffffffffffffffff1673ffffffffffffffffffffffffffffffffffffffff1614610832576040517f08c379a0000000000000000000000000000000000000000000000000000000008152600401610829906114a9565b60405180910390fd5b600183604051610842919061132d565b908152602001604051809103902060009054906101000a900460ff161561089e576040517f08c379a000000000000000000000000000000000000000000000000000000000815260040161089590611469565b60405180910390fd5b6108a784610bea565b6108e6576040517f08c379a00000000000000000000000000000000000000000000000000000000081526004016108dd90611449565b60405180910390fd5b6108ef83610c2c565b61092e576040517f08c379a0000000000000000000000000000000000000000000000000000000008152600401610925906114c9565b60405180910390fd5b61093782610c05565b610976576040517f08c379a000000000000000000000000000000000000000000000000000000000815260040161096d906114e9565b60405180910390fd5b61097f81610c11565b6109be576040517f08c379a00000000000000000000000000000000000000000000000000000000081526004016109b590611489565b60405180910390fd5b60006040518060c001604052803373ffffffffffffffffffffffffffffffffffffffff16815260200186815260200185815260200184815260200183815260200160011515815250905080600085604051610a19919061132d565b908152602001604051809103902060008201518160000160006101000a81548173ffffffffffffffffffffffffffffffffffffffff021916908373ffffffffffffffffffffffffffffffffffffffff1602179055506020820151816001019080519060200190610a8a929190610c95565b506040820151816002019080519060200190610aa7929190610c95565b50606082015181600301556080820151816004015560a08201518160050160006101000a81548160ff02191690831515021790555090505060018085604051610af0919061132d565b908152602001604051809103902060006101000a81548160ff0219169083151502179055503373ffffffffffffffffffffffffffffffffffffffff167f952fd33ec9307230e4590238cfec84d577b07c6d95544858c1db27677ed6c7b686868686604051610b61949392919061135f565b60405180910390a25050505050565b60008073ffffffffffffffffffffffffffffffffffffffff16600083604051610b99919061132d565b908152602001604051809103902060000160009054906101000a900473ffffffffffffffffffffffffffffffffffffffff1673ffffffffffffffffffffffffffffffffffffffff1614159050919050565b6000808251118015610bfe57506020825111155b9050919050565b60008082119050919050565b60008082118015610c255750620151808211155b9050919050565b6000808251118015610c4057506014825111155b9050919050565b6040518060c00160405280600073ffffffffffffffffffffffffffffffffffffffff168152602001606081526020016060815260200160008152602001600081526020016000151581525090565b828054610ca190611663565b90600052602060002090601f016020900481019282610cc35760008555610d0a565b82601f10610cdc57805160ff1916838001178555610d0a565b82800160010185558215610d0a579182015b82811115610d09578251825591602001919060010190610cee565b5b509050610d179190610d5b565b5090565b508054610d2790611663565b6000825580601f10610d395750610d58565b601f016020900490600052602060002090810190610d579190610d5b565b5b50565b5b80821115610d74576000816000905550600101610d5c565b5090565b6000610d8b610d868461155c565b61152b565b905082815260208101848484011115610da357600080fd5b610dae848285611621565b509392505050565b600082601f830112610dc757600080fd5b8135610dd7848260208601610d78565b91505092915050565b600081359050610def81611704565b92915050565b600060208284031215610e0757600080fd5b600082013567ffffffffffffffff811115610e2157600080fd5b610e2d84828501610db6565b91505092915050565b60008060008060808587031215610e4c57600080fd5b600085013567ffffffffffffffff811115610e6657600080fd5b610e7287828801610db6565b945050602085013567ffffffffffffffff811115610e8f57600080fd5b610e9b87828801610db6565b9350506040610eac87828801610de0565b9250506060610ebd87828801610de0565b91505092959194509250565b610ed2816115d9565b82525050565b610ee1816115eb565b82525050565b610ef0816115eb565b82525050565b6000610f01826115a1565b610f0b81856115ac565b9350610f1b818560208601611630565b610f24816116f3565b840191505092915050565b6000610f3a826115a1565b610f4481856115bd565b9350610f54818560208601611630565b610f5d816116f3565b840191505092915050565b6000610f73826115a1565b610f7d81856115ce565b9350610f8d818560208601611630565b80840191505092915050565b60008154610fa681611663565b610fb081866115bd565b94506001821660008114610fcb5760018114610fdd57611010565b60ff1983168652602086019350611010565b610fe68561158c565b60005b8381101561100857815481890152600182019150602081019050610fe9565b808801955050505b50505092915050565b6000611026601a836115bd565b91507f416363657373506f696e74206e6f7420726567697374657265640000000000006000830152602082019050919050565b60006110666026836115bd565b91507f4f6e6c7920746865206f776e65722063616e20706572666f726d20746869732060008301527f616374696f6e00000000000000000000000000000000000000000000000000006020830152604082019050919050565b60006110cc601b836115bd565b91507f41636365737320706f696e74206e6f74207265676973746572656400000000006000830152602082019050919050565b600061110c6013836115bd565b91507f496e76616c69642073736964206c656e677468000000000000000000000000006000830152602082019050919050565b600061114c601e836115bd565b91507f4d4143206164647265737320616c7265616479207265676973746572656400006000830152602082019050919050565b600061118c6015836115bd565b91507f496e76616c6964206d617854696d652072616e676500000000000000000000006000830152602082019050919050565b60006111cc601e836115bd565b91507f416363657373506f696e7420616c7265616479207265676973746572656400006000830152602082019050919050565b600061120c6012836115bd565b91507f496e76616c6964206d6163206c656e67746800000000000000000000000000006000830152602082019050919050565b600061124c600d836115bd565b91507f496e76616c6964207072696365000000000000000000000000000000000000006000830152602082019050919050565b600060c0830160008301516112976000860182610ec9565b50602083015184820360208601526112af8282610ef6565b915050604083015184820360408601526112c98282610ef6565b91505060608301516112de606086018261130f565b5060808301516112f1608086018261130f565b5060a083015161130460a0860182610ed8565b508091505092915050565b61131881611617565b82525050565b61132781611617565b82525050565b60006113398284610f68565b915081905092915050565b60006020820190506113596000830184610ee7565b92915050565b600060808201905081810360008301526113798187610f2f565b9050818103602083015261138d8186610f2f565b905061139c604083018561131e565b6113a9606083018461131e565b95945050505050565b600060408201905081810360008301526113cc8185610f99565b905081810360208301526113e08184610f2f565b90509392505050565b6000602082019050818103600083015261140281611019565b9050919050565b6000602082019050818103600083015261142281611059565b9050919050565b60006020820190508181036000830152611442816110bf565b9050919050565b60006020820190508181036000830152611462816110ff565b9050919050565b600060208201905081810360008301526114828161113f565b9050919050565b600060208201905081810360008301526114a28161117f565b9050919050565b600060208201905081810360008301526114c2816111bf565b9050919050565b600060208201905081810360008301526114e2816111ff565b9050919050565b600060208201905081810360008301526115028161123f565b9050919050565b60006020820190508181036000830152611523818461127f565b905092915050565b6000604051905081810181811067ffffffffffffffff82111715611552576115516116c4565b5b8060405250919050565b600067ffffffffffffffff821115611577576115766116c4565b5b601f19601f8301169050602081019050919050565b60008190508160005260206000209050919050565b600081519050919050565b600082825260208201905092915050565b600082825260208201905092915050565b600081905092915050565b60006115e4826115f7565b9050919050565b60008115159050919050565b600073ffffffffffffffffffffffffffffffffffffffff82169050919050565b6000819050919050565b82818337600083830152505050565b60005b8381101561164e578082015181840152602081019050611633565b8381111561165d576000848401525b50505050565b6000600282049050600182168061167b57607f821691505b6020821081141561168f5761168e611695565b5b50919050565b7f4e487b7100000000000000000000000000000000000000000000000000000000600052602260045260246000fd5b7f4e487b7100000000000000000000000000000000000000000000000000000000600052604160045260246000fd5b6000601f19601f8301169050919050565b61170d81611617565b811461171857600080fd5b5056fea2646970667358221220b055330ab0a8811365343bac9b23d392bee8ca1df3ab5c324e99cb346d1077f064736f6c63430008000033",
  "linkReferences": {},
  "deployedLinkReferences": {}
}