{
  "_format": "hh-sol-artifact-1",
  "contractName": "WiFeeAccess",
  "sourceName": "contracts/WiFeeAccess.sol",
  "abi": [
    {
      "inputs": [
        {
          "internalType": "address",
          "name": "wiFeeRegistryAddress",
          "type": "address"
        },
        {
          "internalType": "address payable",
          "name": "internetTokenAddress",
          "type": "address"
        },
        {
          "internalType": "address payable",
          "name": "recompenseTokenAddress",
          "type": "address"
        }
      ],
      "stateMutability": "nonpayable",
      "type": "constructor"
    },
    {
      "anonymous": false,
      "inputs": [
        {
          "indexed": true,
          "internalType": "uint256",
          "name": "userToken",
          "type": "uint256"
        },
        {
          "indexed": false,
          "internalType": "string",
          "name": "mac",
          "type": "string"
        },
        {
          "indexed": false,
          "internalType": "uint256",
          "name": "startTime",
          "type": "uint256"
        },
        {
          "indexed": false,
          "internalType": "uint256",
          "name": "endTime",
          "type": "uint256"
        }
      ],
      "name": "Connected",
      "type": "event"
    },
    {
      "anonymous": false,
      "inputs": [
        {
          "indexed": true,
          "internalType": "uint256",
          "name": "userToken",
          "type": "uint256"
        },
        {
          "indexed": false,
          "internalType": "string",
          "name": "mac",
          "type": "string"
        },
        {
          "indexed": false,
          "internalType": "uint256",
          "name": "endTime",
          "type": "uint256"
        }
      ],
      "name": "Disconnected",
      "type": "event"
    },
    {
      "anonymous": false,
      "inputs": [
        {
          "indexed": true,
          "internalType": "uint256",
          "name": "userToken",
          "type": "uint256"
        },
        {
          "indexed": false,
          "internalType": "uint256",
          "name": "tokens",
          "type": "uint256"
        }
      ],
      "name": "TokensBought",
      "type": "event"
    },
    {
      "anonymous": false,
      "inputs": [
        {
          "indexed": false,
          "internalType": "uint256",
          "name": "userToken",
          "type": "uint256"
        }
      ],
      "name": "UserTokenCreated",
      "type": "event"
    },
    {
      "anonymous": false,
      "inputs": [
        {
          "indexed": false,
          "internalType": "uint256",
          "name": "userToken",
          "type": "uint256"
        }
      ],
      "name": "UserTokenRevoked",
      "type": "event"
    },
    {
      "inputs": [
        {
          "internalType": "uint256",
          "name": "userToken",
          "type": "uint256"
        },
        {
          "internalType": "string",
          "name": "mac",
          "type": "string"
        },
        {
          "internalType": "uint256",
          "name": "duration",
          "type": "uint256"
        },
        {
          "internalType": "uint256",
          "name": "bandwidth",
          "type": "uint256"
        },
        {
          "internalType": "uint256",
          "name": "dataLimit",
          "type": "uint256"
        }
      ],
      "name": "connect",
      "outputs": [],
      "stateMutability": "nonpayable",
      "type": "function"
    },
    {
      "inputs": [
        {
          "internalType": "uint256",
          "name": "userToken",
          "type": "uint256"
        }
      ],
      "name": "createTokenForUser",
      "outputs": [],
      "stateMutability": "nonpayable",
      "type": "function"
    },
    {
      "inputs": [
        {
          "internalType": "uint256",
          "name": "userToken",
          "type": "uint256"
        }
      ],
      "name": "disconnect",
      "outputs": [],
      "stateMutability": "nonpayable",
      "type": "function"
    },
    {
      "inputs": [
        {
          "internalType": "string",
          "name": "_mac",
          "type": "string"
        }
      ],
      "name": "getAPInfo",
      "outputs": [
        {
          "components": [
            {
              "internalType": "address",
              "name": "owner",
              "type": "address"
            },
            {
              "internalType": "string",
              "name": "ssid",
              "type": "string"
            },
            {
              "internalType": "string",
              "name": "mac",
              "type": "string"
            },
            {
              "internalType": "uint256",
              "name": "price",
              "type": "uint256"
            },
            {
              "internalType": "uint256",
              "name": "maxTime",
              "type": "uint256"
            },
            {
              "internalType": "uint256",
              "name": "dataLimit",
              "type": "uint256"
            },
            {
              "internalType": "uint256",
              "name": "bandwidthLimit",
              "type": "uint256"
            },
            {
              "internalType": "uint256",
              "name": "timeRegistered",
              "type": "uint256"
            },
            {
              "internalType": "bool",
              "name": "active",
              "type": "bool"
            }
          ],
          "internalType": "struct WiFeeRegistry.AccessPoint",
          "name": "",
          "type": "tuple"
        }
      ],
      "stateMutability": "view",
      "type": "function"
    },
    {
      "inputs": [
        {
          "internalType": "string",
          "name": "_mac",
          "type": "string"
        }
      ],
      "name": "getConnectedUserTokens",
      "outputs": [
        {
          "internalType": "uint256[]",
          "name": "",
          "type": "uint256[]"
        }
      ],
      "stateMutability": "view",
      "type": "function"
    },
    {
      "inputs": [
        {
          "internalType": "uint256",
          "name": "userToken",
          "type": "uint256"
        }
      ],
      "name": "getConnectionBandwidthDataLimit",
      "outputs": [
        {
          "internalType": "uint256",
          "name": "",
          "type": "uint256"
        },
        {
          "internalType": "uint256",
          "name": "",
          "type": "uint256"
        }
      ],
      "stateMutability": "view",
      "type": "function"
    },
    {
      "inputs": [
        {
          "internalType": "uint256",
          "name": "userToken",
          "type": "uint256"
        }
      ],
      "name": "getConnectionInfo",
      "outputs": [
        {
          "components": [
            {
              "internalType": "string",
              "name": "mac",
              "type": "string"
            },
            {
              "internalType": "uint256",
              "name": "startTime",
              "type": "uint256"
            },
            {
              "internalType": "uint256",
              "name": "endTime",
              "type": "uint256"
            },
            {
              "internalType": "uint256",
              "name": "tokensPaid",
              "type": "uint256"
            },
            {
              "internalType": "bool",
              "name": "isConnected",
              "type": "bool"
            },
            {
              "internalType": "uint256",
              "name": "bandwidth",
              "type": "uint256"
            },
            {
              "internalType": "uint256",
              "name": "dataLimit",
              "type": "uint256"
            }
          ],
          "internalType": "struct WiFeeAccess.Connection",
          "name": "",
          "type": "tuple"
        }
      ],
      "stateMutability": "view",
      "type": "function"
    },
    {
      "inputs": [
        {
          "internalType": "string",
          "name": "mac",
          "type": "string"
        },
        {
          "internalType": "uint256",
          "name": "connectedTime",
          "type": "uint256"
        }
      ],
      "name": "getConnectionPrice",
      "outputs": [
        {
          "internalType": "uint256",
          "name": "",
          "type": "uint256"
        }
      ],
      "stateMutability": "view",
      "type": "function"
    },
    {
      "inputs": [
        {
          "internalType": "uint256",
          "name": "userToken",
          "type": "uint256"
        }
      ],
      "name": "getConnectionTimes",
      "outputs": [
        {
          "internalType": "uint256",
          "name": "",
          "type": "uint256"
        },
        {
          "internalType": "uint256",
          "name": "",
          "type": "uint256"
        },
        {
          "internalType": "uint256",
          "name": "",
          "type": "uint256"
        }
      ],
      "stateMutability": "view",
      "type": "function"
    },
    {
      "inputs": [
        {
          "internalType": "string",
          "name": "_mac",
          "type": "string"
        }
      ],
      "name": "getOwnerRTK",
      "outputs": [
        {
          "internalType": "uint256",
          "name": "",
          "type": "uint256"
        }
      ],
      "stateMutability": "view",
      "type": "function"
    },
    {
      "inputs": [
        {
          "internalType": "uint256",
          "name": "userToken",
          "type": "uint256"
        }
      ],
      "name": "getUserRTK",
      "outputs": [
        {
          "internalType": "uint256",
          "name": "",
          "type": "uint256"
        }
      ],
      "stateMutability": "view",
      "type": "function"
    },
    {
      "inputs": [],
      "name": "owner",
      "outputs": [
        {
          "internalType": "address payable",
          "name": "",
          "type": "address"
        }
      ],
      "stateMutability": "view",
      "type": "function"
    }
  ],
  "bytecode": "0x608060405260006008553480156200001657600080fd5b50604051620037b2380380620037b283398181016040528101906200003c919062000176565b826000806101000a81548173ffffffffffffffffffffffffffffffffffffffff021916908373ffffffffffffffffffffffffffffffffffffffff16021790555081600160006101000a81548173ffffffffffffffffffffffffffffffffffffffff021916908373ffffffffffffffffffffffffffffffffffffffff16021790555080600260006101000a81548173ffffffffffffffffffffffffffffffffffffffff021916908373ffffffffffffffffffffffffffffffffffffffff16021790555033600760006101000a81548173ffffffffffffffffffffffffffffffffffffffff021916908373ffffffffffffffffffffffffffffffffffffffff16021790555050505062000248565b600081519050620001598162000214565b92915050565b60008151905062000170816200022e565b92915050565b6000806000606084860312156200018c57600080fd5b60006200019c8682870162000148565b9350506020620001af868287016200015f565b9250506040620001c2868287016200015f565b9150509250925092565b6000620001d982620001f4565b9050919050565b6000620001ed82620001f4565b9050919050565b600073ffffffffffffffffffffffffffffffffffffffff82169050919050565b6200021f81620001cc565b81146200022b57600080fd5b50565b6200023981620001e0565b81146200024557600080fd5b50565b61355a80620002586000396000f3fe608060405234801561001057600080fd5b50600436106100b45760003560e01c806347588f1f1161007157806347588f1f146101dc57806380ee7a0b146101f85780638da5cb5b14610228578063b2d6b29714610246578063b5e7255014610262578063c833f4721461027e576100b4565b806306300d9b146100b95780630c2899b0146100e95780630d2f60421461011a5780630f635dd41461014a5780632992c1bc1461017a57806340664b2a146101ac575b600080fd5b6100d360048036038101906100ce919061246f565b6102ae565b6040516100e09190612dec565b60405180910390f35b61010360048036038101906100fe9190612545565b61044c565b60405161011192919061309f565b60405180910390f35b610134600480360381019061012f919061246f565b6105e8565b6040516101419190613040565b60405180910390f35b610164600480360381019061015f9190612545565b6106a5565b6040516101719190613062565b60405180910390f35b610194600480360381019061018f9190612545565b610835565b6040516101a3939291906130c8565b60405180910390f35b6101c660048036038101906101c19190612545565b6109de565b6040516101d39190613084565b60405180910390f35b6101f660048036038101906101f19190612545565b610b03565b005b610212600480360381019061020d919061246f565b611266565b60405161021f9190613084565b60405180910390f35b6102306113e9565b60405161023d9190612d71565b60405180910390f35b610260600480360381019061025b9190612545565b61140f565b005b61027c60048036038101906102779190612597565b611561565b005b610298600480360381019061029391906124b0565b611b9d565b6040516102a59190613084565b60405180910390f35b606060008060009054906101000a900473ffffffffffffffffffffffffffffffffffffffff1673ffffffffffffffffffffffffffffffffffffffff16630d2f6042846040518263ffffffff1660e01b815260040161030c9190612e0e565b60006040518083038186803b15801561032457600080fd5b505afa158015610338573d6000803e3d6000fd5b505050506040513d6000823e3d601f19601f820116820180604052508101906103619190612504565b9050600073ffffffffffffffffffffffffffffffffffffffff16816000015173ffffffffffffffffffffffffffffffffffffffff1614156103d7576040517f08c379a00000000000000000000000000000000000000000000000000000000081526004016103ce90612f20565b60405180910390fd5b6006836040516103e79190612d3f565b908152602001604051809103902080548060200260200160405190810160405280929190818152602001828054801561043f57602002820191906000526020600020905b81548152602001906001019080831161042b575b5050505050915050919050565b6000808261045981611d28565b610498576040517f08c379a000000000000000000000000000000000000000000000000000000000815260040161048f90612f60565b60405180910390fd5b60006104a385611d94565b90506000600360008373ffffffffffffffffffffffffffffffffffffffff1673ffffffffffffffffffffffffffffffffffffffff1681526020019081526020016000206040518060e001604052908160008201805461050190613397565b80601f016020809104026020016040519081016040528092919081815260200182805461052d90613397565b801561057a5780601f1061054f5761010080835404028352916020019161057a565b820191906000526020600020905b81548152906001019060200180831161055d57829003601f168201915b505050505081526020016001820154815260200160028201548152602001600382015481526020016004820160009054906101000a900460ff161515151581526020016005820154815260200160068201548152505090508060a001518160c0015194509450505050915091565b6105f0612090565b60008054906101000a900473ffffffffffffffffffffffffffffffffffffffff1673ffffffffffffffffffffffffffffffffffffffff16630d2f6042836040518263ffffffff1660e01b81526004016106499190612e0e565b60006040518083038186803b15801561066157600080fd5b505afa158015610675573d6000803e3d6000fd5b505050506040513d6000823e3d601f19601f8201168201806040525081019061069e9190612504565b9050919050565b6106ad6120f4565b816106b781611d28565b6106f6576040517f08c379a00000000000000000000000000000000000000000000000000000000081526004016106ed90612f60565b60405180910390fd5b600061070184611d94565b9050600360008273ffffffffffffffffffffffffffffffffffffffff1673ffffffffffffffffffffffffffffffffffffffff1681526020019081526020016000206040518060e001604052908160008201805461075d90613397565b80601f016020809104026020016040519081016040528092919081815260200182805461078990613397565b80156107d65780601f106107ab576101008083540402835291602001916107d6565b820191906000526020600020905b8154815290600101906020018083116107b957829003601f168201915b505050505081526020016001820154815260200160028201548152602001600382015481526020016004820160009054906101000a900460ff161515151581526020016005820154815260200160068201548152505092505050919050565b60008060008361084481611d28565b610883576040517f08c379a000000000000000000000000000000000000000000000000000000000815260040161087a90612f60565b60405180910390fd5b600061088e86611d94565b90506000600360008373ffffffffffffffffffffffffffffffffffffffff1673ffffffffffffffffffffffffffffffffffffffff1681526020019081526020016000206040518060e00160405290816000820180546108ec90613397565b80601f016020809104026020016040519081016040528092919081815260200182805461091890613397565b80156109655780601f1061093a57610100808354040283529160200191610965565b820191906000526020600020905b81548152906001019060200180831161094857829003601f168201915b505050505081526020016001820154815260200160028201548152602001600382015481526020016004820160009054906101000a900460ff1615151515815260200160058201548152602001600682015481525050905060004290508160200151818360400151965096509650505050509193909250565b6000816109ea81611d28565b610a29576040517f08c379a0000000000000000000000000000000000000000000000000000000008152600401610a2090612f60565b60405180910390fd5b6000610a3484611d94565b90506000600260009054906101000a900473ffffffffffffffffffffffffffffffffffffffff1673ffffffffffffffffffffffffffffffffffffffff166370a08231836040518263ffffffff1660e01b8152600401610a939190612d56565b60206040518083038186803b158015610aab57600080fd5b505afa158015610abf573d6000803e3d6000fd5b505050506040513d601f19601f82011682018060405250810190610ae3919061256e565b9050670de0b6b3a764000081610af9919061323c565b9350505050919050565b80610b0d81611d28565b610b4c576040517f08c379a0000000000000000000000000000000000000000000000000000000008152600401610b4390612f60565b60405180910390fd5b6000610b5783611d94565b90506000600360008373ffffffffffffffffffffffffffffffffffffffff1673ffffffffffffffffffffffffffffffffffffffff16815260200190815260200160002090508060040160009054906101000a900460ff16610bed576040517f08c379a0000000000000000000000000000000000000000000000000000000008152600401610be490612f40565b60405180910390fd5b60008054906101000a900473ffffffffffffffffffffffffffffffffffffffff1673ffffffffffffffffffffffffffffffffffffffff16630d2f6042826000016040518263ffffffff1660e01b8152600401610c499190612e6e565b60006040518083038186803b158015610c6157600080fd5b505afa158015610c75573d6000803e3d6000fd5b505050506040513d6000823e3d601f19601f82011682018060405250810190610c9e9190612504565b6000015173ffffffffffffffffffffffffffffffffffffffff163373ffffffffffffffffffffffffffffffffffffffff1614610d0f576040517f08c379a0000000000000000000000000000000000000000000000000000000008152600401610d0690612fc0565b60405180910390fd5b60008060009054906101000a900473ffffffffffffffffffffffffffffffffffffffff1673ffffffffffffffffffffffffffffffffffffffff16630d2f6042836000016040518263ffffffff1660e01b8152600401610d6e9190612e6e565b60006040518083038186803b158015610d8657600080fd5b505afa158015610d9a573d6000803e3d6000fd5b505050506040513d6000823e3d601f19601f82011682018060405250810190610dc39190612504565b905060004290506000836001015482610ddc91906132c7565b90506000603c601e83610def91906131e6565b610df9919061323c565b90506000670de0b6b3a7640000856060015183610e16919061326d565b610e20919061326d565b90508560020154841015610ef4576000818760030154610e4091906132c7565b9050600160009054906101000a900473ffffffffffffffffffffffffffffffffffffffff1673ffffffffffffffffffffffffffffffffffffffff1663a9059cbb89836040518363ffffffff1660e01b8152600401610e9f929190612dc3565b602060405180830381600087803b158015610eb957600080fd5b505af1158015610ecd573d6000803e3d6000fd5b505050506040513d601f19601f82011682018060405250810190610ef19190612446565b50505b600160009054906101000a900473ffffffffffffffffffffffffffffffffffffffff1673ffffffffffffffffffffffffffffffffffffffff1663a9059cbb8660000151836040518363ffffffff1660e01b8152600401610f55929190612dc3565b602060405180830381600087803b158015610f6f57600080fd5b505af1158015610f83573d6000803e3d6000fd5b505050506040513d601f19601f82011682018060405250810190610fa79190612446565b506000610fb8876001015486611e73565b9050600260009054906101000a900473ffffffffffffffffffffffffffffffffffffffff1673ffffffffffffffffffffffffffffffffffffffff166340c10f1989836040518363ffffffff1660e01b8152600401611017929190612dc3565b600060405180830381600087803b15801561103157600080fd5b505af1158015611045573d6000803e3d6000fd5b50505050600260009054906101000a900473ffffffffffffffffffffffffffffffffffffffff1673ffffffffffffffffffffffffffffffffffffffff166340c10f198760000151836040518363ffffffff1660e01b81526004016110aa929190612dc3565b600060405180830381600087803b1580156110c457600080fd5b505af11580156110d8573d6000803e3d6000fd5b5050505060008760040160006101000a81548160ff02191690831515021790555061118f87600001805461110b90613397565b80601f016020809104026020016040519081016040528092919081815260200182805461113790613397565b80156111845780601f1061115957610100808354040283529160200191611184565b820191906000526020600020905b81548152906001019060200180831161116757829003601f168201915b50505050508b611ec5565b897f478bce134704bd99193a073688098bdbd5ea2ff339ed09105c7a03e979b055c488600001876040516111c4929190612e90565b60405180910390a2600360008973ffffffffffffffffffffffffffffffffffffffff1673ffffffffffffffffffffffffffffffffffffffff1681526020019081526020016000206000808201600061121c9190612133565b6001820160009055600282016000905560038201600090556004820160006101000a81549060ff021916905560058201600090556006820160009055505050505050505050505050565b60008060008054906101000a900473ffffffffffffffffffffffffffffffffffffffff1673ffffffffffffffffffffffffffffffffffffffff16630d2f6042846040518263ffffffff1660e01b81526004016112c29190612e0e565b60006040518083038186803b1580156112da57600080fd5b505afa1580156112ee573d6000803e3d6000fd5b505050506040513d6000823e3d601f19601f820116820180604052508101906113179190612504565b90506000600260009054906101000a900473ffffffffffffffffffffffffffffffffffffffff1673ffffffffffffffffffffffffffffffffffffffff166370a0823183600001516040518263ffffffff1660e01b815260040161137a9190612d56565b60206040518083038186803b15801561139257600080fd5b505afa1580156113a6573d6000803e3d6000fd5b505050506040513d601f19601f820116820180604052508101906113ca919061256e565b9050670de0b6b3a7640000816113e0919061323c565b92505050919050565b600760009054906101000a900473ffffffffffffffffffffffffffffffffffffffff1681565b6000600560003373ffffffffffffffffffffffffffffffffffffffff1673ffffffffffffffffffffffffffffffffffffffff1681526020019081526020016000205414611491576040517f08c379a000000000000000000000000000000000000000000000000000000000815260040161148890612fa0565b60405180910390fd5b336004600083815260200190815260200160002060006101000a81548173ffffffffffffffffffffffffffffffffffffffff021916908373ffffffffffffffffffffffffffffffffffffffff16021790555080600560003373ffffffffffffffffffffffffffffffffffffffff1673ffffffffffffffffffffffffffffffffffffffff168152602001908152602001600020819055507fd34fd2c214fa047be7cd22a9a404a479b80f13f78364990bff299fcb8798be93816040516115569190613084565b60405180910390a150565b843373ffffffffffffffffffffffffffffffffffffffff1661158282611d94565b73ffffffffffffffffffffffffffffffffffffffff16146115d8576040517f08c379a00000000000000000000000000000000000000000000000000000000081526004016115cf90613020565b60405180910390fd5b856115e281611d28565b611621576040517f08c379a000000000000000000000000000000000000000000000000000000000815260040161161890612f60565b60405180910390fd5b60008060009054906101000a900473ffffffffffffffffffffffffffffffffffffffff1673ffffffffffffffffffffffffffffffffffffffff16630d2f6042886040518263ffffffff1660e01b815260040161167d9190612e0e565b60006040518083038186803b15801561169557600080fd5b505afa1580156116a9573d6000803e3d6000fd5b505050506040513d6000823e3d601f19601f820116820180604052508101906116d29190612504565b9050806101000151611719576040517f08c379a000000000000000000000000000000000000000000000000000000000815260040161171090612ec0565b60405180910390fd5b6000600360003373ffffffffffffffffffffffffffffffffffffffff1673ffffffffffffffffffffffffffffffffffffffff16815260200190815260200160002090508060040160009054906101000a900460ff16156117ae576040517f08c379a00000000000000000000000000000000000000000000000000000000081526004016117a590612fe0565b60405180910390fd5b60004290506000603c896117c2919061326d565b826117cd91906131e6565b90508360800151891115611816576040517f08c379a000000000000000000000000000000000000000000000000000000000815260040161180d90612ee0565b60405180910390fd5b8360c0015188111561185d576040517f08c379a000000000000000000000000000000000000000000000000000000000815260040161185490612f00565b60405180910390fd5b8360a001518711156118a4576040517f08c379a000000000000000000000000000000000000000000000000000000000815260040161189b90613000565b60405180910390fd5b6000600160009054906101000a900473ffffffffffffffffffffffffffffffffffffffff1673ffffffffffffffffffffffffffffffffffffffff16637ff9b5966040518163ffffffff1660e01b815260040160206040518083038186803b15801561190e57600080fd5b505afa158015611922573d6000803e3d6000fd5b505050506040513d601f19601f82011682018060405250810190611946919061256e565b85606001518b611956919061326d565b611960919061326d565b90506000600160009054906101000a900473ffffffffffffffffffffffffffffffffffffffff1673ffffffffffffffffffffffffffffffffffffffff166370a08231336040518263ffffffff1660e01b81526004016119bf9190612d56565b60206040518083038186803b1580156119d757600080fd5b505afa1580156119eb573d6000803e3d6000fd5b505050506040513d601f19601f82011682018060405250810190611a0f919061256e565b905081811015611a54576040517f08c379a0000000000000000000000000000000000000000000000000000000008152600401611a4b90612f80565b60405180910390fd5b600160009054906101000a900473ffffffffffffffffffffffffffffffffffffffff1673ffffffffffffffffffffffffffffffffffffffff1663a64b6e5f3330856040518463ffffffff1660e01b8152600401611ab393929190612d8c565b600060405180830381600087803b158015611acd57600080fd5b505af1158015611ae1573d6000803e3d6000fd5b50505050611aef8c8e612047565b8b856000019080519060200190611b07929190612173565b5083856001018190555082856002018190555081856003018190555060018560040160006101000a81548160ff0219169083151502179055508985600501819055508885600601819055508c7f24c394f60382045dbfbbafee67cffce15beaa10393e084f5487a92695360ed6e8d8686604051611b8693929190612e30565b60405180910390a250505050505050505050505050565b60008060008054906101000a900473ffffffffffffffffffffffffffffffffffffffff1673ffffffffffffffffffffffffffffffffffffffff16630d2f6042856040518263ffffffff1660e01b8152600401611bf99190612e0e565b60006040518083038186803b158015611c1157600080fd5b505afa158015611c25573d6000803e3d6000fd5b505050506040513d6000823e3d601f19601f82011682018060405250810190611c4e9190612504565b9050600073ffffffffffffffffffffffffffffffffffffffff16816000015173ffffffffffffffffffffffffffffffffffffffff161415611cc4576040517f08c379a0000000000000000000000000000000000000000000000000000000008152600401611cbb90612f20565b60405180910390fd5b806101000151611d09576040517f08c379a0000000000000000000000000000000000000000000000000000000008152600401611d0090612ec0565b60405180910390fd5b6000838260600151611d1b919061326d565b9050809250505092915050565b60008073ffffffffffffffffffffffffffffffffffffffff166004600084815260200190815260200160002060009054906101000a900473ffffffffffffffffffffffffffffffffffffffff1673ffffffffffffffffffffffffffffffffffffffff1614159050919050565b60008073ffffffffffffffffffffffffffffffffffffffff166004600084815260200190815260200160002060009054906101000a900473ffffffffffffffffffffffffffffffffffffffff1673ffffffffffffffffffffffffffffffffffffffff161415611e38576040517f08c379a0000000000000000000000000000000000000000000000000000000008152600401611e2f90612f60565b60405180910390fd5b6004600083815260200190815260200160002060009054906101000a900473ffffffffffffffffffffffffffffffffffffffff169050919050565b6000808383611e8291906132c7565b90506000603c601e83611e9591906131e6565b611e9f919061323c565b90506000670de0b6b3a764000082611eb7919061326d565b905080935050505092915050565b6000600683604051611ed79190612d3f565b9081526020016040518091039020905060005b81805490508110156120415782828281548110611f30577f4e487b7100000000000000000000000000000000000000000000000000000000600052603260045260246000fd5b9060005260206000200154141561202e578160018380549050611f5391906132c7565b81548110611f8a577f4e487b7100000000000000000000000000000000000000000000000000000000600052603260045260246000fd5b9060005260206000200154828281548110611fce577f4e487b7100000000000000000000000000000000000000000000000000000000600052603260045260246000fd5b906000526020600020018190555081805480612013577f4e487b7100000000000000000000000000000000000000000000000000000000600052603160045260246000fd5b60019003818190600052602060002001600090559055612041565b8080612039906133c9565b915050611eea565b50505050565b6006826040516120579190612d3f565b90815260200160405180910390208190806001815401808255809150506001900390600052602060002001600090919091909150555050565b604051806101200160405280600073ffffffffffffffffffffffffffffffffffffffff168152602001606081526020016060815260200160008152602001600081526020016000815260200160008152602001600081526020016000151581525090565b6040518060e001604052806060815260200160008152602001600081526020016000815260200160001515815260200160008152602001600081525090565b50805461213f90613397565b6000825580601f106121515750612170565b601f01602090049060005260206000209081019061216f91906121f9565b5b50565b82805461217f90613397565b90600052602060002090601f0160209004810192826121a157600085556121e8565b82601f106121ba57805160ff19168380011785556121e8565b828001600101855582156121e8579182015b828111156121e75782518255916020019190600101906121cc565b5b5090506121f591906121f9565b5090565b5b808211156122125760008160009055506001016121fa565b5090565b600061222961222484613130565b6130ff565b90508281526020810184848401111561224157600080fd5b61224c848285613355565b509392505050565b600061226761226284613130565b6130ff565b90508281526020810184848401111561227f57600080fd5b61228a848285613364565b509392505050565b6000815190506122a1816134df565b92915050565b6000815190506122b6816134f6565b92915050565b600082601f8301126122cd57600080fd5b81356122dd848260208601612216565b91505092915050565b600082601f8301126122f757600080fd5b8151612307848260208601612254565b91505092915050565b6000610120828403121561232357600080fd5b61232e6101206130ff565b9050600061233e84828501612292565b600083015250602082015167ffffffffffffffff81111561235e57600080fd5b61236a848285016122e6565b602083015250604082015167ffffffffffffffff81111561238a57600080fd5b612396848285016122e6565b60408301525060606123aa84828501612431565b60608301525060806123be84828501612431565b60808301525060a06123d284828501612431565b60a08301525060c06123e684828501612431565b60c08301525060e06123fa84828501612431565b60e08301525061010061240f848285016122a7565b6101008301525092915050565b60008135905061242b8161350d565b92915050565b6000815190506124408161350d565b92915050565b60006020828403121561245857600080fd5b6000612466848285016122a7565b91505092915050565b60006020828403121561248157600080fd5b600082013567ffffffffffffffff81111561249b57600080fd5b6124a7848285016122bc565b91505092915050565b600080604083850312156124c357600080fd5b600083013567ffffffffffffffff8111156124dd57600080fd5b6124e9858286016122bc565b92505060206124fa8582860161241c565b9150509250929050565b60006020828403121561251657600080fd5b600082015167ffffffffffffffff81111561253057600080fd5b61253c84828501612310565b91505092915050565b60006020828403121561255757600080fd5b60006125658482850161241c565b91505092915050565b60006020828403121561258057600080fd5b600061258e84828501612431565b91505092915050565b600080600080600060a086880312156125af57600080fd5b60006125bd8882890161241c565b955050602086013567ffffffffffffffff8111156125da57600080fd5b6125e6888289016122bc565b94505060406125f78882890161241c565b93505060606126088882890161241c565b92505060806126198882890161241c565b9150509295509295909350565b60006126328383612d21565b60208301905092915050565b6126478161330d565b82525050565b612656816132fb565b82525050565b612665816132fb565b82525050565b600061267682613185565b61268081856131a8565b935061268b83613160565b8060005b838110156126bc5781516126a38882612626565b97506126ae8361319b565b92505060018101905061268f565b5085935050505092915050565b6126d28161331f565b82525050565b60006126e382613190565b6126ed81856131b9565b93506126fd818560208601613364565b612706816134ce565b840191505092915050565b600061271c82613190565b61272681856131ca565b9350612736818560208601613364565b61273f816134ce565b840191505092915050565b600061275582613190565b61275f81856131db565b935061276f818560208601613364565b80840191505092915050565b6000815461278881613397565b61279281866131ca565b945060018216600081146127ad57600181146127bf576127f2565b60ff19831686526020860193506127f2565b6127c885613170565b60005b838110156127ea578154818901526001820191506020810190506127cb565b808801955050505b50505092915050565b60006128086017836131ca565b91507f41636365737320706f696e74206e6f74206163746976650000000000000000006000830152602082019050919050565b60006128486026836131ca565b91507f4475726174696f6e20657863656564732061636365737320706f696e74206d6160008301527f782074696d6500000000000000000000000000000000000000000000000000006020830152604082019050919050565b60006128ae602c836131ca565b91507f42616e64776964746820657863656564732061636365737320706f696e74206d60008301527f61782062616e64776964746800000000000000000000000000000000000000006020830152604082019050919050565b6000612914601b836131ca565b91507f41636365737320706f696e74206e6f74207265676973746572656400000000006000830152602082019050919050565b60006129546015836131ca565b91507f55736572206973206e6f7420636f6e6e656374656400000000000000000000006000830152602082019050919050565b60006129946014836131ca565b91507f546f6b656e20646f6573206e6f742065786973740000000000000000000000006000830152602082019050919050565b60006129d4601d836131ca565b91507f4e6f7420656e6f75676820746f6b656e7320666f72207061796d656e740000006000830152602082019050919050565b6000612a146018836131ca565b91507f5573657220616c726561647920686173206120746f6b656e00000000000000006000830152602082019050919050565b6000612a546027836131ca565b91507f4f6e6c7920746865204150206f776e65722063616e20646973636f6e6e65637460008301527f20612075736572000000000000000000000000000000000000000000000000006020830152604082019050919050565b6000612aba6019836131ca565b91507f5573657220697320616c726561647920636f6e6e6563746564000000000000006000830152602082019050919050565b6000612afa603a836131ca565b91507f44617461207573616765206c696d69742065786365656473206163636573732060008301527f706f696e74206d61782064617461207573616765206c696d69740000000000006020830152604082019050919050565b6000612b606024836131ca565b91507f5573657220746f6b656e20646f6573206e6f74206d617463682074686520736560008301527f6e646572000000000000000000000000000000000000000000000000000000006020830152604082019050919050565b600061012083016000830151612bd2600086018261264d565b5060208301518482036020860152612bea82826126d8565b91505060408301518482036040860152612c0482826126d8565b9150506060830151612c196060860182612d21565b506080830151612c2c6080860182612d21565b5060a0830151612c3f60a0860182612d21565b5060c0830151612c5260c0860182612d21565b5060e0830151612c6560e0860182612d21565b50610100830151612c7a6101008601826126c9565b508091505092915050565b600060e0830160008301518482036000860152612ca282826126d8565b9150506020830151612cb76020860182612d21565b506040830151612cca6040860182612d21565b506060830151612cdd6060860182612d21565b506080830151612cf060808601826126c9565b5060a0830151612d0360a0860182612d21565b5060c0830151612d1660c0860182612d21565b508091505092915050565b612d2a8161334b565b82525050565b612d398161334b565b82525050565b6000612d4b828461274a565b915081905092915050565b6000602082019050612d6b600083018461265c565b92915050565b6000602082019050612d86600083018461263e565b92915050565b6000606082019050612da1600083018661265c565b612dae602083018561265c565b612dbb6040830184612d30565b949350505050565b6000604082019050612dd8600083018561265c565b612de56020830184612d30565b9392505050565b60006020820190508181036000830152612e06818461266b565b905092915050565b60006020820190508181036000830152612e288184612711565b905092915050565b60006060820190508181036000830152612e4a8186612711565b9050612e596020830185612d30565b612e666040830184612d30565b949350505050565b60006020820190508181036000830152612e88818461277b565b905092915050565b60006040820190508181036000830152612eaa818561277b565b9050612eb96020830184612d30565b9392505050565b60006020820190508181036000830152612ed9816127fb565b9050919050565b60006020820190508181036000830152612ef98161283b565b9050919050565b60006020820190508181036000830152612f19816128a1565b9050919050565b60006020820190508181036000830152612f3981612907565b9050919050565b60006020820190508181036000830152612f5981612947565b9050919050565b60006020820190508181036000830152612f7981612987565b9050919050565b60006020820190508181036000830152612f99816129c7565b9050919050565b60006020820190508181036000830152612fb981612a07565b9050919050565b60006020820190508181036000830152612fd981612a47565b9050919050565b60006020820190508181036000830152612ff981612aad565b9050919050565b6000602082019050818103600083015261301981612aed565b9050919050565b6000602082019050818103600083015261303981612b53565b9050919050565b6000602082019050818103600083015261305a8184612bb9565b905092915050565b6000602082019050818103600083015261307c8184612c85565b905092915050565b60006020820190506130996000830184612d30565b92915050565b60006040820190506130b46000830185612d30565b6130c16020830184612d30565b9392505050565b60006060820190506130dd6000830186612d30565b6130ea6020830185612d30565b6130f76040830184612d30565b949350505050565b6000604051905081810181811067ffffffffffffffff821117156131265761312561349f565b5b8060405250919050565b600067ffffffffffffffff82111561314b5761314a61349f565b5b601f19601f8301169050602081019050919050565b6000819050602082019050919050565b60008190508160005260206000209050919050565b600081519050919050565b600081519050919050565b6000602082019050919050565b600082825260208201905092915050565b600082825260208201905092915050565b600082825260208201905092915050565b600081905092915050565b60006131f18261334b565b91506131fc8361334b565b9250827fffffffffffffffffffffffffffffffffffffffffffffffffffffffffffffffff0382111561323157613230613412565b5b828201905092915050565b60006132478261334b565b91506132528361334b565b92508261326257613261613441565b5b828204905092915050565b60006132788261334b565b91506132838361334b565b9250817fffffffffffffffffffffffffffffffffffffffffffffffffffffffffffffffff04831182151516156132bc576132bb613412565b5b828202905092915050565b60006132d28261334b565b91506132dd8361334b565b9250828210156132f0576132ef613412565b5b828203905092915050565b60006133068261332b565b9050919050565b60006133188261332b565b9050919050565b60008115159050919050565b600073ffffffffffffffffffffffffffffffffffffffff82169050919050565b6000819050919050565b82818337600083830152505050565b60005b83811015613382578082015181840152602081019050613367565b83811115613391576000848401525b50505050565b600060028204905060018216806133af57607f821691505b602082108114156133c3576133c2613470565b5b50919050565b60006133d48261334b565b91507fffffffffffffffffffffffffffffffffffffffffffffffffffffffffffffffff82141561340757613406613412565b5b600182019050919050565b7f4e487b7100000000000000000000000000000000000000000000000000000000600052601160045260246000fd5b7f4e487b7100000000000000000000000000000000000000000000000000000000600052601260045260246000fd5b7f4e487b7100000000000000000000000000000000000000000000000000000000600052602260045260246000fd5b7f4e487b7100000000000000000000000000000000000000000000000000000000600052604160045260246000fd5b6000601f19601f8301169050919050565b6134e8816132fb565b81146134f357600080fd5b50565b6134ff8161331f565b811461350a57600080fd5b50565b6135168161334b565b811461352157600080fd5b5056fea264697066735822122011b25a68ab4e8afc62b35b418e203224e7ca437c9e98bdd67632065abeb1fa9864736f6c63430008000033",
  "linkReferences": {},
  "deployedLinkReferences": {}
}