{
  "_format": "hh-sol-artifact-1",
  "contractName": "Oracle",
  "sourceName": "contracts/Oracle.sol",
  "abi": [
    {
      "inputs": [],
      "stateMutability": "nonpayable",
      "type": "constructor"
    },
    {
      "anonymous": false,
      "inputs": [
        {
          "indexed": false,
          "internalType": "bytes32",
          "name": "id",
          "type": "bytes32"
        },
        {
          "indexed": false,
          "internalType": "string",
          "name": "result",
          "type": "string"
        }
      ],
      "name": "DataProvided",
      "type": "event"
    },
    {
      "anonymous": false,
      "inputs": [
        {
          "indexed": false,
          "internalType": "bytes32",
          "name": "id",
          "type": "bytes32"
        }
      ],
      "name": "DataRequested",
      "type": "event"
    },
    {
      "inputs": [
        {
          "internalType": "bytes32",
          "name": "id",
          "type": "bytes32"
        },
        {
          "internalType": "string",
          "name": "result",
          "type": "string"
        }
      ],
      "name": "fulfillDataRequest",
      "outputs": [],
      "stateMutability": "nonpayable",
      "type": "function"
    },
    {
      "inputs": [
        {
          "internalType": "bytes32",
          "name": "id",
          "type": "bytes32"
        }
      ],
      "name": "getResult",
      "outputs": [
        {
          "internalType": "string",
          "name": "",
          "type": "string"
        }
      ],
      "stateMutability": "view",
      "type": "function"
    },
    {
      "inputs": [],
      "name": "requestData",
      "outputs": [
        {
          "internalType": "bytes32",
          "name": "",
          "type": "bytes32"
        }
      ],
      "stateMutability": "nonpayable",
      "type": "function"
    },
    {
      "inputs": [
        {
          "internalType": "bytes32",
          "name": "",
          "type": "bytes32"
        }
      ],
      "name": "results",
      "outputs": [
        {
          "internalType": "string",
          "name": "",
          "type": "string"
        }
      ],
      "stateMutability": "view",
      "type": "function"
    }
  ],
  "bytecode": "0x608060405234801561001057600080fd5b50336000806101000a81548173ffffffffffffffffffffffffffffffffffffffff021916908373ffffffffffffffffffffffffffffffffffffffff160217905550610ac7806100606000396000f3fe608060405234801561001057600080fd5b506004361061004c5760003560e01c80634c6b25b114610051578063606deecd14610081578063761ebaec1461009f578063add4c784146100bb575b600080fd5b61006b600480360381019061006691906105c7565b6100eb565b6040516100789190610817565b60405180910390f35b61008961018b565b60405161009691906107cc565b60405180910390f35b6100b960048036038101906100b491906105f0565b610222565b005b6100d560048036038101906100d091906105c7565b6103a1565b6040516100e29190610817565b60405180910390f35b6002602052806000526040600020600091509050805461010a9061099e565b80601f01602080910402602001604051908101604052809291908181526020018280546101369061099e565b80156101835780601f1061015857610100808354040283529160200191610183565b820191906000526020600020905b81548152906001019060200180831161016657829003601f168201915b505050505081565b60008033426040516020016101a19291906107a0565b604051602081830303815290604052805190602001209050600180600083815260200190815260200160002060006101000a81548160ff0219169083151502179055507fe219091535a5b75300c5a8d655d7793a171d79f9a5eb826c9548157d4df52e8a8160405161021391906107cc565b60405180910390a18091505090565b60008054906101000a900473ffffffffffffffffffffffffffffffffffffffff1673ffffffffffffffffffffffffffffffffffffffff163373ffffffffffffffffffffffffffffffffffffffff16146102b0576040517f08c379a00000000000000000000000000000000000000000000000000000000081526004016102a790610879565b60405180910390fd5b6001600083815260200190815260200160002060009054906101000a900460ff16610310576040517f08c379a000000000000000000000000000000000000000000000000000000000815260040161030790610839565b60405180910390fd5b806002600084815260200190815260200160002090805190602001906103379291906104a7565b5060006001600084815260200190815260200160002060006101000a81548160ff0219169083151502179055507f8dc1f2ffc62c592472460b1302a765c8214f4d0b49deb1ab3498742ddfe3358e82826040516103959291906107e7565b60405180910390a15050565b60606001600083815260200190815260200160002060009054906101000a900460ff1615610404576040517f08c379a00000000000000000000000000000000000000000000000000000000081526004016103fb90610859565b60405180910390fd5b6002600083815260200190815260200160002080546104229061099e565b80601f016020809104026020016040519081016040528092919081815260200182805461044e9061099e565b801561049b5780601f106104705761010080835404028352916020019161049b565b820191906000526020600020905b81548152906001019060200180831161047e57829003601f168201915b50505050509050919050565b8280546104b39061099e565b90600052602060002090601f0160209004810192826104d5576000855561051c565b82601f106104ee57805160ff191683800117855561051c565b8280016001018555821561051c579182015b8281111561051b578251825591602001919060010190610500565b5b509050610529919061052d565b5090565b5b8082111561054657600081600090555060010161052e565b5090565b600061055d610558846108ca565b610899565b90508281526020810184848401111561057557600080fd5b61058084828561095c565b509392505050565b60008135905061059781610a7a565b92915050565b600082601f8301126105ae57600080fd5b81356105be84826020860161054a565b91505092915050565b6000602082840312156105d957600080fd5b60006105e784828501610588565b91505092915050565b6000806040838503121561060357600080fd5b600061061185828601610588565b925050602083013567ffffffffffffffff81111561062e57600080fd5b61063a8582860161059d565b9150509250929050565b61065561065082610916565b6109d0565b82525050565b61066481610928565b82525050565b6000610675826108fa565b61067f8185610905565b935061068f81856020860161096b565b61069881610a5c565b840191505092915050565b60006106b0600e83610905565b91507f4e6f7420612076616c69642069640000000000000000000000000000000000006000830152602082019050919050565b60006106f0601e83610905565b91507f446174612072657175657374206e6f742066756c66696c6c65642079657400006000830152602082019050919050565b6000610730602383610905565b91507f4f6e6c792061646d696e2063616e2066756c66696c6c2064617461207265717560008301527f65737400000000000000000000000000000000000000000000000000000000006020830152604082019050919050565b61079a61079582610952565b6109f4565b82525050565b60006107ac8285610644565b6014820191506107bc8284610789565b6020820191508190509392505050565b60006020820190506107e1600083018461065b565b92915050565b60006040820190506107fc600083018561065b565b818103602083015261080e818461066a565b90509392505050565b60006020820190508181036000830152610831818461066a565b905092915050565b60006020820190508181036000830152610852816106a3565b9050919050565b60006020820190508181036000830152610872816106e3565b9050919050565b6000602082019050818103600083015261089281610723565b9050919050565b6000604051905081810181811067ffffffffffffffff821117156108c0576108bf610a2d565b5b8060405250919050565b600067ffffffffffffffff8211156108e5576108e4610a2d565b5b601f19601f8301169050602081019050919050565b600081519050919050565b600082825260208201905092915050565b600061092182610932565b9050919050565b6000819050919050565b600073ffffffffffffffffffffffffffffffffffffffff82169050919050565b6000819050919050565b82818337600083830152505050565b60005b8381101561098957808201518184015260208101905061096e565b83811115610998576000848401525b50505050565b600060028204905060018216806109b657607f821691505b602082108114156109ca576109c96109fe565b5b50919050565b60006109db826109e2565b9050919050565b60006109ed82610a6d565b9050919050565b6000819050919050565b7f4e487b7100000000000000000000000000000000000000000000000000000000600052602260045260246000fd5b7f4e487b7100000000000000000000000000000000000000000000000000000000600052604160045260246000fd5b6000601f19601f8301169050919050565b60008160601b9050919050565b610a8381610928565b8114610a8e57600080fd5b5056fea26469706673582212209ce1b2022ca7fd2c10635ad5aaf5e635ab625be8ed595c269cc5677ef2a59aee64736f6c63430008000033",
  "linkReferences": {},
  "deployedLinkReferences": {}
}