{
  "_format": "hh-sol-artifact-1",
  "contractName": "WiFeeAccess",
  "sourceName": "contracts/WiFeeAccess.sol",
  "abi": [
    {
      "inputs": [
        {
          "internalType": "address",
          "name": "wiFeeRegistryAddress",
          "type": "address"
        },
        {
          "internalType": "address payable",
          "name": "internetTokenAddress",
          "type": "address"
        },
        {
          "internalType": "address payable",
          "name": "recompenseTokenAddress",
          "type": "address"
        }
      ],
      "stateMutability": "nonpayable",
      "type": "constructor"
    },
    {
      "anonymous": false,
      "inputs": [
        {
          "indexed": true,
          "internalType": "uint256",
          "name": "userToken",
          "type": "uint256"
        },
        {
          "indexed": false,
          "internalType": "string",
          "name": "mac",
          "type": "string"
        },
        {
          "indexed": false,
          "internalType": "uint256",
          "name": "startTime",
          "type": "uint256"
        },
        {
          "indexed": false,
          "internalType": "uint256",
          "name": "endTime",
          "type": "uint256"
        }
      ],
      "name": "Connected",
      "type": "event"
    },
    {
      "anonymous": false,
      "inputs": [
        {
          "indexed": true,
          "internalType": "uint256",
          "name": "userToken",
          "type": "uint256"
        },
        {
          "indexed": false,
          "internalType": "string",
          "name": "mac",
          "type": "string"
        },
        {
          "indexed": false,
          "internalType": "uint256",
          "name": "endTime",
          "type": "uint256"
        }
      ],
      "name": "Disconnected",
      "type": "event"
    },
    {
      "anonymous": false,
      "inputs": [
        {
          "indexed": true,
          "internalType": "uint256",
          "name": "userToken",
          "type": "uint256"
        },
        {
          "indexed": false,
          "internalType": "uint256",
          "name": "tokens",
          "type": "uint256"
        }
      ],
      "name": "TokensBought",
      "type": "event"
    },
    {
      "anonymous": false,
      "inputs": [
        {
          "indexed": false,
          "internalType": "uint256",
          "name": "userToken",
          "type": "uint256"
        }
      ],
      "name": "UserTokenCreated",
      "type": "event"
    },
    {
      "anonymous": false,
      "inputs": [
        {
          "indexed": false,
          "internalType": "uint256",
          "name": "userToken",
          "type": "uint256"
        }
      ],
      "name": "UserTokenRevoked",
      "type": "event"
    },
    {
      "inputs": [
        {
          "internalType": "uint256",
          "name": "userToken",
          "type": "uint256"
        },
        {
          "internalType": "string",
          "name": "mac",
          "type": "string"
        },
        {
          "internalType": "uint256",
          "name": "duration",
          "type": "uint256"
        }
      ],
      "name": "connect",
      "outputs": [],
      "stateMutability": "nonpayable",
      "type": "function"
    },
    {
      "inputs": [],
      "name": "createTokenForUser",
      "outputs": [],
      "stateMutability": "nonpayable",
      "type": "function"
    },
    {
      "inputs": [
        {
          "internalType": "uint256",
          "name": "userToken",
          "type": "uint256"
        }
      ],
      "name": "disconnect",
      "outputs": [],
      "stateMutability": "nonpayable",
      "type": "function"
    },
    {
      "inputs": [
        {
          "internalType": "string",
          "name": "_mac",
          "type": "string"
        }
      ],
      "name": "getAPInfo",
      "outputs": [
        {
          "components": [
            {
              "internalType": "address",
              "name": "owner",
              "type": "address"
            },
            {
              "internalType": "string",
              "name": "ssid",
              "type": "string"
            },
            {
              "internalType": "string",
              "name": "mac",
              "type": "string"
            },
            {
              "internalType": "uint256",
              "name": "price",
              "type": "uint256"
            },
            {
              "internalType": "uint256",
              "name": "maxTime",
              "type": "uint256"
            },
            {
              "internalType": "bool",
              "name": "active",
              "type": "bool"
            }
          ],
          "internalType": "struct WiFeeRegistry.AccessPoint",
          "name": "",
          "type": "tuple"
        }
      ],
      "stateMutability": "view",
      "type": "function"
    },
    {
      "inputs": [
        {
          "internalType": "string",
          "name": "_mac",
          "type": "string"
        }
      ],
      "name": "getConnectedUserTokens",
      "outputs": [
        {
          "internalType": "uint256[]",
          "name": "",
          "type": "uint256[]"
        }
      ],
      "stateMutability": "view",
      "type": "function"
    },
    {
      "inputs": [
        {
          "internalType": "uint256",
          "name": "userToken",
          "type": "uint256"
        }
      ],
      "name": "getConnectionInfo",
      "outputs": [
        {
          "components": [
            {
              "internalType": "string",
              "name": "mac",
              "type": "string"
            },
            {
              "internalType": "uint256",
              "name": "startTime",
              "type": "uint256"
            },
            {
              "internalType": "uint256",
              "name": "endTime",
              "type": "uint256"
            },
            {
              "internalType": "uint256",
              "name": "tokensPaid",
              "type": "uint256"
            },
            {
              "internalType": "bool",
              "name": "isConnected",
              "type": "bool"
            }
          ],
          "internalType": "struct WiFeeAccess.Connection",
          "name": "",
          "type": "tuple"
        }
      ],
      "stateMutability": "view",
      "type": "function"
    },
    {
      "inputs": [
        {
          "internalType": "string",
          "name": "mac",
          "type": "string"
        },
        {
          "internalType": "uint256",
          "name": "connectedTime",
          "type": "uint256"
        }
      ],
      "name": "getConnectionPrice",
      "outputs": [
        {
          "internalType": "uint256",
          "name": "",
          "type": "uint256"
        }
      ],
      "stateMutability": "view",
      "type": "function"
    },
    {
      "inputs": [
        {
          "internalType": "uint256",
          "name": "userToken",
          "type": "uint256"
        }
      ],
      "name": "getConnectionTimes",
      "outputs": [
        {
          "internalType": "uint256",
          "name": "",
          "type": "uint256"
        },
        {
          "internalType": "uint256",
          "name": "",
          "type": "uint256"
        },
        {
          "internalType": "uint256",
          "name": "",
          "type": "uint256"
        }
      ],
      "stateMutability": "view",
      "type": "function"
    },
    {
      "inputs": [],
      "name": "owner",
      "outputs": [
        {
          "internalType": "address payable",
          "name": "",
          "type": "address"
        }
      ],
      "stateMutability": "view",
      "type": "function"
    }
  ],
  "bytecode": "0x608060405260006008553480156200001657600080fd5b50604051620030023803806200300283398181016040528101906200003c919062000176565b826000806101000a81548173ffffffffffffffffffffffffffffffffffffffff021916908373ffffffffffffffffffffffffffffffffffffffff16021790555081600160006101000a81548173ffffffffffffffffffffffffffffffffffffffff021916908373ffffffffffffffffffffffffffffffffffffffff16021790555080600260006101000a81548173ffffffffffffffffffffffffffffffffffffffff021916908373ffffffffffffffffffffffffffffffffffffffff16021790555033600760006101000a81548173ffffffffffffffffffffffffffffffffffffffff021916908373ffffffffffffffffffffffffffffffffffffffff16021790555050505062000248565b600081519050620001598162000214565b92915050565b60008151905062000170816200022e565b92915050565b6000806000606084860312156200018c57600080fd5b60006200019c8682870162000148565b9350506020620001af868287016200015f565b9250506040620001c2868287016200015f565b9150509250925092565b6000620001d982620001f4565b9050919050565b6000620001ed82620001f4565b9050919050565b600073ffffffffffffffffffffffffffffffffffffffff82169050919050565b6200021f81620001cc565b81146200022b57600080fd5b50565b6200023981620001e0565b81146200024557600080fd5b50565b612daa80620002586000396000f3fe608060405234801561001057600080fd5b50600436106100935760003560e01c80632c9318e5116100665780632c9318e51461015a57806347588f1f1461017657806361f9875f146101925780638da5cb5b1461019c578063c833f472146101ba57610093565b806306300d9b146100985780630d2f6042146100c85780630f635dd4146100f85780632992c1bc14610128575b600080fd5b6100b260048036038101906100ad9190611e68565b6101ea565b6040516100bf91906126ba565b60405180910390f35b6100e260048036038101906100dd9190611e68565b610388565b6040516100ef91906128de565b60405180910390f35b610112600480360381019061010d9190611f3e565b610445565b60405161011f9190612900565b60405180910390f35b610142600480360381019061013d9190611f3e565b6105c1565b6040516101519392919061293d565b60405180910390f35b610174600480360381019061016f9190611f90565b610756565b005b610190600480360381019061018b9190611f3e565b610cee565b005b61019a611412565b005b6101a461152e565b6040516101b1919061263f565b60405180910390f35b6101d460048036038101906101cf9190611ea9565b611554565b6040516101e19190612922565b60405180910390f35b606060008060009054906101000a900473ffffffffffffffffffffffffffffffffffffffff1673ffffffffffffffffffffffffffffffffffffffff16630d2f6042846040518263ffffffff1660e01b815260040161024891906126dc565b60006040518083038186803b15801561026057600080fd5b505afa158015610274573d6000803e3d6000fd5b505050506040513d6000823e3d601f19601f8201168201806040525081019061029d9190611efd565b9050600073ffffffffffffffffffffffffffffffffffffffff16816000015173ffffffffffffffffffffffffffffffffffffffff161415610313576040517f08c379a000000000000000000000000000000000000000000000000000000000815260040161030a906127fe565b60405180910390fd5b60068360405161032391906125d0565b908152602001604051809103902080548060200260200160405190810160405280929190818152602001828054801561037b57602002820191906000526020600020905b815481526020019060010190808311610367575b5050505050915050919050565b610390611aed565b60008054906101000a900473ffffffffffffffffffffffffffffffffffffffff1673ffffffffffffffffffffffffffffffffffffffff16630d2f6042836040518263ffffffff1660e01b81526004016103e991906126dc565b60006040518083038186803b15801561040157600080fd5b505afa158015610415573d6000803e3d6000fd5b505050506040513d6000823e3d601f19601f8201168201806040525081019061043e9190611efd565b9050919050565b61044d611b3b565b81610457816116de565b610496576040517f08c379a000000000000000000000000000000000000000000000000000000000815260040161048d9061283e565b60405180910390fd5b60006104a18461174a565b9050600360008273ffffffffffffffffffffffffffffffffffffffff1673ffffffffffffffffffffffffffffffffffffffff1681526020019081526020016000206040518060a00160405290816000820180546104fd90612bdb565b80601f016020809104026020016040519081016040528092919081815260200182805461052990612bdb565b80156105765780601f1061054b57610100808354040283529160200191610576565b820191906000526020600020905b81548152906001019060200180831161055957829003601f168201915b505050505081526020016001820154815260200160028201548152602001600382015481526020016004820160009054906101000a900460ff16151515158152505092505050919050565b6000806000836105d0816116de565b61060f576040517f08c379a00000000000000000000000000000000000000000000000000000000081526004016106069061283e565b60405180910390fd5b600061061a8661174a565b90506000600360008373ffffffffffffffffffffffffffffffffffffffff1673ffffffffffffffffffffffffffffffffffffffff1681526020019081526020016000206040518060a001604052908160008201805461067890612bdb565b80601f01602080910402602001604051908101604052809291908181526020018280546106a490612bdb565b80156106f15780601f106106c6576101008083540402835291602001916106f1565b820191906000526020600020905b8154815290600101906020018083116106d457829003601f168201915b505050505081526020016001820154815260200160028201548152602001600382015481526020016004820160009054906101000a900460ff161515151581525050905060004290508160200151818360400151965096509650505050509193909250565b823373ffffffffffffffffffffffffffffffffffffffff166107778261174a565b73ffffffffffffffffffffffffffffffffffffffff16146107cd576040517f08c379a00000000000000000000000000000000000000000000000000000000081526004016107c4906128be565b60405180910390fd5b836107d7816116de565b610816576040517f08c379a000000000000000000000000000000000000000000000000000000000815260040161080d9061283e565b60405180910390fd5b60008060009054906101000a900473ffffffffffffffffffffffffffffffffffffffff1673ffffffffffffffffffffffffffffffffffffffff16630d2f6042866040518263ffffffff1660e01b815260040161087291906126dc565b60006040518083038186803b15801561088a57600080fd5b505afa15801561089e573d6000803e3d6000fd5b505050506040513d6000823e3d601f19601f820116820180604052508101906108c79190611efd565b90508060a0015161090d576040517f08c379a0000000000000000000000000000000000000000000000000000000008152600401610904906127be565b60405180910390fd5b6000600360003373ffffffffffffffffffffffffffffffffffffffff1673ffffffffffffffffffffffffffffffffffffffff16815260200190815260200160002090508060040160009054906101000a900460ff16156109a2576040517f08c379a00000000000000000000000000000000000000000000000000000000081526004016109999061289e565b60405180910390fd5b6000429050600086826109b59190612a5b565b90508360800151826109c79190612a5b565b811115610a09576040517f08c379a0000000000000000000000000000000000000000000000000000000008152600401610a00906127de565b60405180910390fd5b6000600160009054906101000a900473ffffffffffffffffffffffffffffffffffffffff1673ffffffffffffffffffffffffffffffffffffffff16637ff9b5966040518163ffffffff1660e01b815260040160206040518083038186803b158015610a7357600080fd5b505afa158015610a87573d6000803e3d6000fd5b505050506040513d601f19601f82011682018060405250810190610aab9190611f67565b856060015189610abb9190612ab1565b610ac59190612ab1565b90506000600160009054906101000a900473ffffffffffffffffffffffffffffffffffffffff1673ffffffffffffffffffffffffffffffffffffffff166370a08231336040518263ffffffff1660e01b8152600401610b249190612624565b60206040518083038186803b158015610b3c57600080fd5b505afa158015610b50573d6000803e3d6000fd5b505050506040513d601f19601f82011682018060405250810190610b749190611f67565b905081811015610bb9576040517f08c379a0000000000000000000000000000000000000000000000000000000008152600401610bb09061285e565b60405180910390fd5b600160009054906101000a900473ffffffffffffffffffffffffffffffffffffffff1673ffffffffffffffffffffffffffffffffffffffff1663a64b6e5f3330856040518463ffffffff1660e01b8152600401610c189392919061265a565b600060405180830381600087803b158015610c3257600080fd5b505af1158015610c46573d6000803e3d6000fd5b50505050610c548a8c611829565b89856000019080519060200190610c6c929190611b6c565b5083856001018190555082856002018190555081856003018190555060018560040160006101000a81548160ff0219169083151502179055508a7f24c394f60382045dbfbbafee67cffce15beaa10393e084f5487a92695360ed6e8b8686604051610cd99392919061272e565b60405180910390a25050505050505050505050565b80610cf8816116de565b610d37576040517f08c379a0000000000000000000000000000000000000000000000000000000008152600401610d2e9061283e565b60405180910390fd5b6000610d428361174a565b90506000600360008373ffffffffffffffffffffffffffffffffffffffff1673ffffffffffffffffffffffffffffffffffffffff16815260200190815260200160002090508060040160009054906101000a900460ff16610dd8576040517f08c379a0000000000000000000000000000000000000000000000000000000008152600401610dcf9061281e565b60405180910390fd5b60008054906101000a900473ffffffffffffffffffffffffffffffffffffffff1673ffffffffffffffffffffffffffffffffffffffff16630d2f6042826000016040518263ffffffff1660e01b8152600401610e34919061276c565b60006040518083038186803b158015610e4c57600080fd5b505afa158015610e60573d6000803e3d6000fd5b505050506040513d6000823e3d601f19601f82011682018060405250810190610e899190611efd565b6000015173ffffffffffffffffffffffffffffffffffffffff163373ffffffffffffffffffffffffffffffffffffffff1614610efa576040517f08c379a0000000000000000000000000000000000000000000000000000000008152600401610ef19061287e565b60405180910390fd5b60008060009054906101000a900473ffffffffffffffffffffffffffffffffffffffff1673ffffffffffffffffffffffffffffffffffffffff16630d2f6042836000016040518263ffffffff1660e01b8152600401610f59919061276c565b60006040518083038186803b158015610f7157600080fd5b505afa158015610f85573d6000803e3d6000fd5b505050506040513d6000823e3d601f19601f82011682018060405250810190610fae9190611efd565b905060004290506000836001015482610fc79190612b0b565b90506000670de0b6b3a7640000846060015183610fe49190612ab1565b610fee9190612ab1565b905061102f6040518060400160405280601181526020017f61637475616c456e6454696d653a20257300000000000000000000000000000081525084611872565b6110726040518060400160405280601a81526020017f75736572436f6e6e656374696f6e2e656e6454696d653a2025730000000000008152508660020154611872565b84600201548310156111445760008186600301546110909190612b0b565b9050600160009054906101000a900473ffffffffffffffffffffffffffffffffffffffff1673ffffffffffffffffffffffffffffffffffffffff1663a9059cbb88836040518363ffffffff1660e01b81526004016110ef929190612691565b602060405180830381600087803b15801561110957600080fd5b505af115801561111d573d6000803e3d6000fd5b505050506040513d601f19601f820116820180604052508101906111419190611e3f565b50505b600160009054906101000a900473ffffffffffffffffffffffffffffffffffffffff1673ffffffffffffffffffffffffffffffffffffffff1663a9059cbb8560000151836040518363ffffffff1660e01b81526004016111a5929190612691565b602060405180830381600087803b1580156111bf57600080fd5b505af11580156111d3573d6000803e3d6000fd5b505050506040513d601f19601f820116820180604052508101906111f79190611e3f565b50600061120886600101548561190e565b9050600260009054906101000a900473ffffffffffffffffffffffffffffffffffffffff1673ffffffffffffffffffffffffffffffffffffffff166340c10f1988836040518363ffffffff1660e01b8152600401611267929190612691565b600060405180830381600087803b15801561128157600080fd5b505af1158015611295573d6000803e3d6000fd5b5050505060008660040160006101000a81548160ff02191690831515021790555061134c8660000180546112c890612bdb565b80601f01602080910402602001604051908101604052809291908181526020018280546112f490612bdb565b80156113415780601f1061131657610100808354040283529160200191611341565b820191906000526020600020905b81548152906001019060200180831161132457829003601f168201915b50505050508a611942565b887f478bce134704bd99193a073688098bdbd5ea2ff339ed09105c7a03e979b055c4876000018660405161138192919061278e565b60405180910390a2600360008873ffffffffffffffffffffffffffffffffffffffff1673ffffffffffffffffffffffffffffffffffffffff168152602001908152602001600020600080820160006113d99190611bf2565b6001820160009055600282016000905560038201600090556004820160006101000a81549060ff02191690555050505050505050505050565b6008600081548092919061142590612c0d565b919050555060004233600854604051602001611443939291906125e7565b6040516020818303038152906040528051906020012060001c9050336004600083815260200190815260200160002060006101000a81548173ffffffffffffffffffffffffffffffffffffffff021916908373ffffffffffffffffffffffffffffffffffffffff16021790555080600560003373ffffffffffffffffffffffffffffffffffffffff1673ffffffffffffffffffffffffffffffffffffffff168152602001908152602001600020819055507fd34fd2c214fa047be7cd22a9a404a479b80f13f78364990bff299fcb8798be93816040516115239190612922565b60405180910390a150565b600760009054906101000a900473ffffffffffffffffffffffffffffffffffffffff1681565b60008060008054906101000a900473ffffffffffffffffffffffffffffffffffffffff1673ffffffffffffffffffffffffffffffffffffffff16630d2f6042856040518263ffffffff1660e01b81526004016115b091906126dc565b60006040518083038186803b1580156115c857600080fd5b505afa1580156115dc573d6000803e3d6000fd5b505050506040513d6000823e3d601f19601f820116820180604052508101906116059190611efd565b9050600073ffffffffffffffffffffffffffffffffffffffff16816000015173ffffffffffffffffffffffffffffffffffffffff16141561167b576040517f08c379a0000000000000000000000000000000000000000000000000000000008152600401611672906127fe565b60405180910390fd5b8060a001516116bf576040517f08c379a00000000000000000000000000000000000000000000000000000000081526004016116b6906127be565b60405180910390fd5b60008382606001516116d19190612ab1565b9050809250505092915050565b60008073ffffffffffffffffffffffffffffffffffffffff166004600084815260200190815260200160002060009054906101000a900473ffffffffffffffffffffffffffffffffffffffff1673ffffffffffffffffffffffffffffffffffffffff1614159050919050565b60008073ffffffffffffffffffffffffffffffffffffffff166004600084815260200190815260200160002060009054906101000a900473ffffffffffffffffffffffffffffffffffffffff1673ffffffffffffffffffffffffffffffffffffffff1614156117ee576040517f08c379a00000000000000000000000000000000000000000000000000000000081526004016117e59061283e565b60405180910390fd5b6004600083815260200190815260200160002060009054906101000a900473ffffffffffffffffffffffffffffffffffffffff169050919050565b60068260405161183991906125d0565b90815260200160405180910390208190806001815401808255809150506001900390600052602060002001600090919091909150555050565b61190a82826040516024016118889291906126fe565b6040516020818303038152906040527fb60e72cc000000000000000000000000000000000000000000000000000000007bffffffffffffffffffffffffffffffffffffffffffffffffffffffff19166020820180517bffffffffffffffffffffffffffffffffffffffffffffffffffffffff8381831617835250505050611ac4565b5050565b600080838361191d9190612b0b565b90506000670de0b6b3a7640000826119359190612ab1565b9050809250505092915050565b600060068360405161195491906125d0565b9081526020016040518091039020905060005b8180549050811015611abe57828282815481106119ad577f4e487b7100000000000000000000000000000000000000000000000000000000600052603260045260246000fd5b90600052602060002001541415611aab5781600183805490506119d09190612b0b565b81548110611a07577f4e487b7100000000000000000000000000000000000000000000000000000000600052603260045260246000fd5b9060005260206000200154828281548110611a4b577f4e487b7100000000000000000000000000000000000000000000000000000000600052603260045260246000fd5b906000526020600020018190555081805480611a90577f4e487b7100000000000000000000000000000000000000000000000000000000600052603160045260246000fd5b60019003818190600052602060002001600090559055611abe565b8080611ab690612c0d565b915050611967565b50505050565b60008151905060006a636f6e736f6c652e6c6f679050602083016000808483855afa5050505050565b6040518060c00160405280600073ffffffffffffffffffffffffffffffffffffffff168152602001606081526020016060815260200160008152602001600081526020016000151581525090565b6040518060a00160405280606081526020016000815260200160008152602001600081526020016000151581525090565b828054611b7890612bdb565b90600052602060002090601f016020900481019282611b9a5760008555611be1565b82601f10611bb357805160ff1916838001178555611be1565b82800160010185558215611be1579182015b82811115611be0578251825591602001919060010190611bc5565b5b509050611bee9190611c32565b5090565b508054611bfe90612bdb565b6000825580601f10611c105750611c2f565b601f016020900490600052602060002090810190611c2e9190611c32565b5b50565b5b80821115611c4b576000816000905550600101611c33565b5090565b6000611c62611c5d846129a5565b612974565b905082815260208101848484011115611c7a57600080fd5b611c85848285612b99565b509392505050565b6000611ca0611c9b846129a5565b612974565b905082815260208101848484011115611cb857600080fd5b611cc3848285612ba8565b509392505050565b600081519050611cda81612d2f565b92915050565b600081519050611cef81612d46565b92915050565b600082601f830112611d0657600080fd5b8135611d16848260208601611c4f565b91505092915050565b600082601f830112611d3057600080fd5b8151611d40848260208601611c8d565b91505092915050565b600060c08284031215611d5b57600080fd5b611d6560c0612974565b90506000611d7584828501611ccb565b600083015250602082015167ffffffffffffffff811115611d9557600080fd5b611da184828501611d1f565b602083015250604082015167ffffffffffffffff811115611dc157600080fd5b611dcd84828501611d1f565b6040830152506060611de184828501611e2a565b6060830152506080611df584828501611e2a565b60808301525060a0611e0984828501611ce0565b60a08301525092915050565b600081359050611e2481612d5d565b92915050565b600081519050611e3981612d5d565b92915050565b600060208284031215611e5157600080fd5b6000611e5f84828501611ce0565b91505092915050565b600060208284031215611e7a57600080fd5b600082013567ffffffffffffffff811115611e9457600080fd5b611ea084828501611cf5565b91505092915050565b60008060408385031215611ebc57600080fd5b600083013567ffffffffffffffff811115611ed657600080fd5b611ee285828601611cf5565b9250506020611ef385828601611e15565b9150509250929050565b600060208284031215611f0f57600080fd5b600082015167ffffffffffffffff811115611f2957600080fd5b611f3584828501611d49565b91505092915050565b600060208284031215611f5057600080fd5b6000611f5e84828501611e15565b91505092915050565b600060208284031215611f7957600080fd5b6000611f8784828501611e2a565b91505092915050565b600080600060608486031215611fa557600080fd5b6000611fb386828701611e15565b935050602084013567ffffffffffffffff811115611fd057600080fd5b611fdc86828701611cf5565b9250506040611fed86828701611e15565b9150509250925092565b6000612003838361259b565b60208301905092915050565b61201881612b51565b82525050565b61202781612b3f565b82525050565b61203681612b3f565b82525050565b61204d61204882612b3f565b612c56565b82525050565b600061205e826129fa565b6120688185612a1d565b9350612073836129d5565b8060005b838110156120a457815161208b8882611ff7565b975061209683612a10565b925050600181019050612077565b5085935050505092915050565b6120ba81612b63565b82525050565b60006120cb82612a05565b6120d58185612a2e565b93506120e5818560208601612ba8565b6120ee81612d11565b840191505092915050565b600061210482612a05565b61210e8185612a3f565b935061211e818560208601612ba8565b61212781612d11565b840191505092915050565b600061213d82612a05565b6121478185612a50565b9350612157818560208601612ba8565b80840191505092915050565b6000815461217081612bdb565b61217a8186612a3f565b9450600182166000811461219557600181146121a7576121da565b60ff19831686526020860193506121da565b6121b0856129e5565b60005b838110156121d2578154818901526001820191506020810190506121b3565b808801955050505b50505092915050565b60006121f0601783612a3f565b91507f41636365737320706f696e74206e6f74206163746976650000000000000000006000830152602082019050919050565b6000612230602683612a3f565b91507f4475726174696f6e20657863656564732061636365737320706f696e74206d6160008301527f782074696d6500000000000000000000000000000000000000000000000000006020830152604082019050919050565b6000612296601b83612a3f565b91507f41636365737320706f696e74206e6f74207265676973746572656400000000006000830152602082019050919050565b60006122d6601583612a3f565b91507f55736572206973206e6f7420636f6e6e656374656400000000000000000000006000830152602082019050919050565b6000612316601483612a3f565b91507f546f6b656e20646f6573206e6f742065786973740000000000000000000000006000830152602082019050919050565b6000612356601d83612a3f565b91507f4e6f7420656e6f75676820746f6b656e7320666f72207061796d656e740000006000830152602082019050919050565b6000612396602783612a3f565b91507f4f6e6c7920746865204150206f776e65722063616e20646973636f6e6e65637460008301527f20612075736572000000000000000000000000000000000000000000000000006020830152604082019050919050565b60006123fc601983612a3f565b91507f5573657220697320616c726561647920636f6e6e6563746564000000000000006000830152602082019050919050565b600061243c602483612a3f565b91507f5573657220746f6b656e20646f6573206e6f74206d617463682074686520736560008301527f6e646572000000000000000000000000000000000000000000000000000000006020830152604082019050919050565b600060c0830160008301516124ad600086018261201e565b50602083015184820360208601526124c582826120c0565b915050604083015184820360408601526124df82826120c0565b91505060608301516124f4606086018261259b565b506080830151612507608086018261259b565b5060a083015161251a60a08601826120b1565b508091505092915050565b600060a083016000830151848203600086015261254282826120c0565b9150506020830151612557602086018261259b565b50604083015161256a604086018261259b565b50606083015161257d606086018261259b565b50608083015161259060808601826120b1565b508091505092915050565b6125a481612b8f565b82525050565b6125b381612b8f565b82525050565b6125ca6125c582612b8f565b612c7a565b82525050565b60006125dc8284612132565b915081905092915050565b60006125f382866125b9565b602082019150612603828561203c565b60148201915061261382846125b9565b602082019150819050949350505050565b6000602082019050612639600083018461202d565b92915050565b6000602082019050612654600083018461200f565b92915050565b600060608201905061266f600083018661202d565b61267c602083018561202d565b61268960408301846125aa565b949350505050565b60006040820190506126a6600083018561202d565b6126b360208301846125aa565b9392505050565b600060208201905081810360008301526126d48184612053565b905092915050565b600060208201905081810360008301526126f681846120f9565b905092915050565b6000604082019050818103600083015261271881856120f9565b905061272760208301846125aa565b9392505050565b6000606082019050818103600083015261274881866120f9565b905061275760208301856125aa565b61276460408301846125aa565b949350505050565b600060208201905081810360008301526127868184612163565b905092915050565b600060408201905081810360008301526127a88185612163565b90506127b760208301846125aa565b9392505050565b600060208201905081810360008301526127d7816121e3565b9050919050565b600060208201905081810360008301526127f781612223565b9050919050565b6000602082019050818103600083015261281781612289565b9050919050565b60006020820190508181036000830152612837816122c9565b9050919050565b6000602082019050818103600083015261285781612309565b9050919050565b6000602082019050818103600083015261287781612349565b9050919050565b6000602082019050818103600083015261289781612389565b9050919050565b600060208201905081810360008301526128b7816123ef565b9050919050565b600060208201905081810360008301526128d78161242f565b9050919050565b600060208201905081810360008301526128f88184612495565b905092915050565b6000602082019050818103600083015261291a8184612525565b905092915050565b600060208201905061293760008301846125aa565b92915050565b600060608201905061295260008301866125aa565b61295f60208301856125aa565b61296c60408301846125aa565b949350505050565b6000604051905081810181811067ffffffffffffffff8211171561299b5761299a612ce2565b5b8060405250919050565b600067ffffffffffffffff8211156129c0576129bf612ce2565b5b601f19601f8301169050602081019050919050565b6000819050602082019050919050565b60008190508160005260206000209050919050565b600081519050919050565b600081519050919050565b6000602082019050919050565b600082825260208201905092915050565b600082825260208201905092915050565b600082825260208201905092915050565b600081905092915050565b6000612a6682612b8f565b9150612a7183612b8f565b9250827fffffffffffffffffffffffffffffffffffffffffffffffffffffffffffffffff03821115612aa657612aa5612c84565b5b828201905092915050565b6000612abc82612b8f565b9150612ac783612b8f565b9250817fffffffffffffffffffffffffffffffffffffffffffffffffffffffffffffffff0483118215151615612b0057612aff612c84565b5b828202905092915050565b6000612b1682612b8f565b9150612b2183612b8f565b925082821015612b3457612b33612c84565b5b828203905092915050565b6000612b4a82612b6f565b9050919050565b6000612b5c82612b6f565b9050919050565b60008115159050919050565b600073ffffffffffffffffffffffffffffffffffffffff82169050919050565b6000819050919050565b82818337600083830152505050565b60005b83811015612bc6578082015181840152602081019050612bab565b83811115612bd5576000848401525b50505050565b60006002820490506001821680612bf357607f821691505b60208210811415612c0757612c06612cb3565b5b50919050565b6000612c1882612b8f565b91507fffffffffffffffffffffffffffffffffffffffffffffffffffffffffffffffff821415612c4b57612c4a612c84565b5b600182019050919050565b6000612c6182612c68565b9050919050565b6000612c7382612d22565b9050919050565b6000819050919050565b7f4e487b7100000000000000000000000000000000000000000000000000000000600052601160045260246000fd5b7f4e487b7100000000000000000000000000000000000000000000000000000000600052602260045260246000fd5b7f4e487b7100000000000000000000000000000000000000000000000000000000600052604160045260246000fd5b6000601f19601f8301169050919050565b60008160601b9050919050565b612d3881612b3f565b8114612d4357600080fd5b50565b612d4f81612b63565b8114612d5a57600080fd5b50565b612d6681612b8f565b8114612d7157600080fd5b5056fea26469706673582212205068986de6306de878d27fd5f6576b287697767a4be48510077c9453eb9bab0964736f6c63430008000033",
  "linkReferences": {},
  "deployedLinkReferences": {}
}