{
  "_format": "hh-sol-artifact-1",
  "contractName": "WiFeeRegistry",
  "sourceName": "contracts/WiFeeRegistry.sol",
  "abi": [
    {
      "anonymous": false,
      "inputs": [
        {
          "indexed": true,
          "internalType": "address",
          "name": "_owner",
          "type": "address"
        },
        {
          "indexed": false,
          "internalType": "string",
          "name": "_ssid",
          "type": "string"
        },
        {
          "indexed": false,
          "internalType": "string",
          "name": "_mac",
          "type": "string"
        },
        {
          "indexed": false,
          "internalType": "uint256",
          "name": "_price",
          "type": "uint256"
        },
        {
          "indexed": false,
          "internalType": "uint256",
          "name": "_maxTime",
          "type": "uint256"
        },
        {
          "indexed": false,
          "internalType": "uint256",
          "name": "_dataLimit",
          "type": "uint256"
        },
        {
          "indexed": false,
          "internalType": "uint256",
          "name": "_bandwidthLimit",
          "type": "uint256"
        }
      ],
      "name": "APModified",
      "type": "event"
    },
    {
      "anonymous": false,
      "inputs": [
        {
          "indexed": true,
          "internalType": "address",
          "name": "_owner",
          "type": "address"
        },
        {
          "indexed": false,
          "internalType": "string",
          "name": "_ssid",
          "type": "string"
        },
        {
          "indexed": false,
          "internalType": "string",
          "name": "_mac",
          "type": "string"
        },
        {
          "indexed": false,
          "internalType": "uint256",
          "name": "_price",
          "type": "uint256"
        },
        {
          "indexed": false,
          "internalType": "uint256",
          "name": "_maxTime",
          "type": "uint256"
        },
        {
          "indexed": false,
          "internalType": "uint256",
          "name": "_dataLimit",
          "type": "uint256"
        },
        {
          "indexed": false,
          "internalType": "uint256",
          "name": "_bandwidthLimit",
          "type": "uint256"
        }
      ],
      "name": "APRegistered",
      "type": "event"
    },
    {
      "anonymous": false,
      "inputs": [
        {
          "indexed": true,
          "internalType": "address",
          "name": "_owner",
          "type": "address"
        },
        {
          "indexed": false,
          "internalType": "string",
          "name": "_ssid",
          "type": "string"
        },
        {
          "indexed": false,
          "internalType": "string",
          "name": "_mac",
          "type": "string"
        }
      ],
      "name": "APRemoved",
      "type": "event"
    },
    {
      "inputs": [
        {
          "internalType": "string",
          "name": "_mac",
          "type": "string"
        }
      ],
      "name": "getAPInfo",
      "outputs": [
        {
          "components": [
            {
              "internalType": "address",
              "name": "owner",
              "type": "address"
            },
            {
              "internalType": "string",
              "name": "ssid",
              "type": "string"
            },
            {
              "internalType": "string",
              "name": "mac",
              "type": "string"
            },
            {
              "internalType": "uint256",
              "name": "price",
              "type": "uint256"
            },
            {
              "internalType": "uint256",
              "name": "maxTime",
              "type": "uint256"
            },
            {
              "internalType": "uint256",
              "name": "dataLimit",
              "type": "uint256"
            },
            {
              "internalType": "uint256",
              "name": "bandwidthLimit",
              "type": "uint256"
            },
            {
              "internalType": "bool",
              "name": "active",
              "type": "bool"
            }
          ],
          "internalType": "struct WiFeeRegistry.AccessPoint",
          "name": "",
          "type": "tuple"
        }
      ],
      "stateMutability": "view",
      "type": "function"
    },
    {
      "inputs": [
        {
          "internalType": "string",
          "name": "_mac",
          "type": "string"
        }
      ],
      "name": "isOwner",
      "outputs": [
        {
          "internalType": "bool",
          "name": "",
          "type": "bool"
        }
      ],
      "stateMutability": "view",
      "type": "function"
    },
    {
      "inputs": [
        {
          "internalType": "string",
          "name": "_ssid",
          "type": "string"
        },
        {
          "internalType": "string",
          "name": "_mac",
          "type": "string"
        },
        {
          "internalType": "uint256",
          "name": "_price",
          "type": "uint256"
        },
        {
          "internalType": "uint256",
          "name": "_maxTime",
          "type": "uint256"
        },
        {
          "internalType": "uint256",
          "name": "_dataLimit",
          "type": "uint256"
        },
        {
          "internalType": "uint256",
          "name": "_bandwidthLimit",
          "type": "uint256"
        }
      ],
      "name": "registerAP",
      "outputs": [],
      "stateMutability": "nonpayable",
      "type": "function"
    },
    {
      "inputs": [
        {
          "internalType": "string",
          "name": "_mac",
          "type": "string"
        }
      ],
      "name": "removeAP",
      "outputs": [],
      "stateMutability": "nonpayable",
      "type": "function"
    },
    {
      "inputs": [
        {
          "internalType": "string",
          "name": "_mac",
          "type": "string"
        },
        {
          "internalType": "string",
          "name": "_ssid",
          "type": "string"
        },
        {
          "internalType": "uint256",
          "name": "_price",
          "type": "uint256"
        },
        {
          "internalType": "uint256",
          "name": "_maxTime",
          "type": "uint256"
        },
        {
          "internalType": "uint256",
          "name": "_dataLimit",
          "type": "uint256"
        },
        {
          "internalType": "uint256",
          "name": "_bandwidthLimit",
          "type": "uint256"
        }
      ],
      "name": "setAPInfo",
      "outputs": [],
      "stateMutability": "nonpayable",
      "type": "function"
    }
  ],
  "bytecode": "0x608060405234801561001057600080fd5b50611a25806100206000396000f3fe608060405234801561001057600080fd5b50600436106100575760003560e01c80630d2f60421461005c5780634feaad2d1461008c57806364c79697146100a8578063b85e943d146100c4578063cc782df0146100f4575b600080fd5b61007660048036038101906100719190610fa0565b610110565b60405161008391906117dd565b60405180910390f35b6100a660048036038101906100a19190610fe1565b61034e565b005b6100c260048036038101906100bd9190610fa0565b610607565b005b6100de60048036038101906100d99190610fa0565b6107d6565b6040516100eb91906115bc565b60405180910390f35b61010e60048036038101906101099190610fe1565b61084f565b005b610118610de3565b61012182610cf4565b610160576040517f08c379a00000000000000000000000000000000000000000000000000000000081526004016101579061169d565b60405180910390fd5b60008260405161017091906115a5565b9081526020016040518091039020604051806101000160405290816000820160009054906101000a900473ffffffffffffffffffffffffffffffffffffffff1673ffffffffffffffffffffffffffffffffffffffff1673ffffffffffffffffffffffffffffffffffffffff1681526020016001820180546101f090611937565b80601f016020809104026020016040519081016040528092919081815260200182805461021c90611937565b80156102695780601f1061023e57610100808354040283529160200191610269565b820191906000526020600020905b81548152906001019060200180831161024c57829003601f168201915b5050505050815260200160028201805461028290611937565b80601f01602080910402602001604051908101604052809291908181526020018280546102ae90611937565b80156102fb5780601f106102d0576101008083540402835291602001916102fb565b820191906000526020600020905b8154815290600101906020018083116102de57829003601f168201915b50505050508152602001600382015481526020016004820154815260200160058201548152602001600682015481526020016007820160009054906101000a900460ff1615151515815250509050919050565b85610358816107d6565b610397576040517f08c379a000000000000000000000000000000000000000000000000000000000815260040161038e906116bd565b60405180910390fd5b6103a087610cf4565b6103df576040517f08c379a00000000000000000000000000000000000000000000000000000000081526004016103d6906116dd565b60405180910390fd5b6103e886610d6e565b610427576040517f08c379a000000000000000000000000000000000000000000000000000000000815260040161041e906116fd565b60405180910390fd5b61043085610d89565b61046f576040517f08c379a0000000000000000000000000000000000000000000000000000000008152600401610466906117bd565b60405180910390fd5b61047884610d95565b6104b7576040517f08c379a00000000000000000000000000000000000000000000000000000000081526004016104ae9061173d565b60405180910390fd5b6104c083610db0565b6104ff576040517f08c379a00000000000000000000000000000000000000000000000000000000081526004016104f69061167d565b60405180910390fd5b61050882610dbc565b610547576040517f08c379a000000000000000000000000000000000000000000000000000000000815260040161053e9061175d565b60405180910390fd5b6000808860405161055891906115a5565b9081526020016040518091039020905086816001019080519060200190610580929190610e40565b508581600301819055508481600401819055508381600501819055508281600601819055503373ffffffffffffffffffffffffffffffffffffffff167fbf2fcd07aa9bacece56458b94260876fca74431e05371028339954442af40a32888a898989896040516105f5969594939291906115d7565b60405180910390a25050505050505050565b80610611816107d6565b610650576040517f08c379a0000000000000000000000000000000000000000000000000000000008152600401610647906116bd565b60405180910390fd5b61065982610cf4565b610698576040517f08c379a000000000000000000000000000000000000000000000000000000000815260040161068f906116dd565b60405180910390fd5b3373ffffffffffffffffffffffffffffffffffffffff167f1d4528bbaa57c275c35e5462b048aeaaea47e8e37f9d5fa09bf196803a2f5aae6000846040516106e091906115a5565b908152602001604051809103902060010184604051610700929190611646565b60405180910390a260018260405161071891906115a5565b908152602001604051809103902060006101000a81549060ff021916905560008260405161074691906115a5565b9081526020016040518091039020600080820160006101000a81549073ffffffffffffffffffffffffffffffffffffffff021916905560018201600061078c9190610ec6565b60028201600061079c9190610ec6565b60038201600090556004820160009055600582016000905560068201600090556007820160006101000a81549060ff021916905550505050565b60003373ffffffffffffffffffffffffffffffffffffffff166000836040516107ff91906115a5565b908152602001604051809103902060000160009054906101000a900473ffffffffffffffffffffffffffffffffffffffff1673ffffffffffffffffffffffffffffffffffffffff16149050919050565b600073ffffffffffffffffffffffffffffffffffffffff1660008660405161087791906115a5565b908152602001604051809103902060000160009054906101000a900473ffffffffffffffffffffffffffffffffffffffff1673ffffffffffffffffffffffffffffffffffffffff16146108ff576040517f08c379a00000000000000000000000000000000000000000000000000000000081526004016108f69061177d565b60405180910390fd5b60018560405161090f91906115a5565b908152602001604051809103902060009054906101000a900460ff161561096b576040517f08c379a00000000000000000000000000000000000000000000000000000000081526004016109629061171d565b60405180910390fd5b61097486610d6e565b6109b3576040517f08c379a00000000000000000000000000000000000000000000000000000000081526004016109aa906116fd565b60405180910390fd5b6109bc85610dc8565b6109fb576040517f08c379a00000000000000000000000000000000000000000000000000000000081526004016109f29061179d565b60405180910390fd5b610a0484610d89565b610a43576040517f08c379a0000000000000000000000000000000000000000000000000000000008152600401610a3a906117bd565b60405180910390fd5b610a4c83610d95565b610a8b576040517f08c379a0000000000000000000000000000000000000000000000000000000008152600401610a829061173d565b60405180910390fd5b610a9482610db0565b610ad3576040517f08c379a0000000000000000000000000000000000000000000000000000000008152600401610aca9061167d565b60405180910390fd5b610adc81610dbc565b610b1b576040517f08c379a0000000000000000000000000000000000000000000000000000000008152600401610b129061175d565b60405180910390fd5b60006040518061010001604052803373ffffffffffffffffffffffffffffffffffffffff16815260200188815260200187815260200186815260200185815260200184815260200183815260200160011515815250905080600087604051610b8391906115a5565b908152602001604051809103902060008201518160000160006101000a81548173ffffffffffffffffffffffffffffffffffffffff021916908373ffffffffffffffffffffffffffffffffffffffff1602179055506020820151816001019080519060200190610bf4929190610e40565b506040820151816002019080519060200190610c11929190610e40565b50606082015181600301556080820151816004015560a0820151816005015560c0820151816006015560e08201518160070160006101000a81548160ff02191690831515021790555090505060018087604051610c6e91906115a5565b908152602001604051809103902060006101000a81548160ff0219169083151502179055503373ffffffffffffffffffffffffffffffffffffffff167f992c59d0aa4992698f1cbdcf775876bfa14b3b4dade1ab6f3d5aed2082b79feb888888888888604051610ce3969594939291906115d7565b60405180910390a250505050505050565b60008073ffffffffffffffffffffffffffffffffffffffff16600083604051610d1d91906115a5565b908152602001604051809103902060000160009054906101000a900473ffffffffffffffffffffffffffffffffffffffff1673ffffffffffffffffffffffffffffffffffffffff1614159050919050565b6000808251118015610d8257506020825111155b9050919050565b60008082119050919050565b60008082118015610da95750620151808211155b9050919050565b60008082119050919050565b60008082119050919050565b6000808251118015610ddc57506014825111155b9050919050565b604051806101000160405280600073ffffffffffffffffffffffffffffffffffffffff1681526020016060815260200160608152602001600081526020016000815260200160008152602001600081526020016000151581525090565b828054610e4c90611937565b90600052602060002090601f016020900481019282610e6e5760008555610eb5565b82601f10610e8757805160ff1916838001178555610eb5565b82800160010185558215610eb5579182015b82811115610eb4578251825591602001919060010190610e99565b5b509050610ec29190610f06565b5090565b508054610ed290611937565b6000825580601f10610ee45750610f03565b601f016020900490600052602060002090810190610f029190610f06565b5b50565b5b80821115610f1f576000816000905550600101610f07565b5090565b6000610f36610f3184611830565b6117ff565b905082815260208101848484011115610f4e57600080fd5b610f598482856118f5565b509392505050565b600082601f830112610f7257600080fd5b8135610f82848260208601610f23565b91505092915050565b600081359050610f9a816119d8565b92915050565b600060208284031215610fb257600080fd5b600082013567ffffffffffffffff811115610fcc57600080fd5b610fd884828501610f61565b91505092915050565b60008060008060008060c08789031215610ffa57600080fd5b600087013567ffffffffffffffff81111561101457600080fd5b61102089828a01610f61565b965050602087013567ffffffffffffffff81111561103d57600080fd5b61104989828a01610f61565b955050604061105a89828a01610f8b565b945050606061106b89828a01610f8b565b935050608061107c89828a01610f8b565b92505060a061108d89828a01610f8b565b9150509295509295509295565b6110a3816118ad565b82525050565b6110b2816118bf565b82525050565b6110c1816118bf565b82525050565b60006110d282611875565b6110dc8185611880565b93506110ec818560208601611904565b6110f5816119c7565b840191505092915050565b600061110b82611875565b6111158185611891565b9350611125818560208601611904565b61112e816119c7565b840191505092915050565b600061114482611875565b61114e81856118a2565b935061115e818560208601611904565b80840191505092915050565b6000815461117781611937565b6111818186611891565b9450600182166000811461119c57600181146111ae576111e1565b60ff19831686526020860193506111e1565b6111b785611860565b60005b838110156111d9578154818901526001820191506020810190506111ba565b808801955050505b50505092915050565b60006111f7601783611891565b91507f496e76616c696420646174614c696d69742072616e67650000000000000000006000830152602082019050919050565b6000611237601a83611891565b91507f416363657373506f696e74206e6f7420726567697374657265640000000000006000830152602082019050919050565b6000611277602683611891565b91507f4f6e6c7920746865206f776e65722063616e20706572666f726d20746869732060008301527f616374696f6e00000000000000000000000000000000000000000000000000006020830152604082019050919050565b60006112dd601b83611891565b91507f41636365737320706f696e74206e6f74207265676973746572656400000000006000830152602082019050919050565b600061131d601383611891565b91507f496e76616c69642073736964206c656e677468000000000000000000000000006000830152602082019050919050565b600061135d601e83611891565b91507f4d4143206164647265737320616c7265616479207265676973746572656400006000830152602082019050919050565b600061139d601583611891565b91507f496e76616c6964206d617854696d652072616e676500000000000000000000006000830152602082019050919050565b60006113dd601c83611891565b91507f496e76616c69642062616e6477696474684c696d69742072616e6765000000006000830152602082019050919050565b600061141d601e83611891565b91507f416363657373506f696e7420616c7265616479207265676973746572656400006000830152602082019050919050565b600061145d601283611891565b91507f496e76616c6964206d6163206c656e67746800000000000000000000000000006000830152602082019050919050565b600061149d600d83611891565b91507f496e76616c6964207072696365000000000000000000000000000000000000006000830152602082019050919050565b6000610100830160008301516114e9600086018261109a565b506020830151848203602086015261150182826110c7565b9150506040830151848203604086015261151b82826110c7565b91505060608301516115306060860182611587565b5060808301516115436080860182611587565b5060a083015161155660a0860182611587565b5060c083015161156960c0860182611587565b5060e083015161157c60e08601826110a9565b508091505092915050565b611590816118eb565b82525050565b61159f816118eb565b82525050565b60006115b18284611139565b915081905092915050565b60006020820190506115d160008301846110b8565b92915050565b600060c08201905081810360008301526115f18189611100565b905081810360208301526116058188611100565b90506116146040830187611596565b6116216060830186611596565b61162e6080830185611596565b61163b60a0830184611596565b979650505050505050565b60006040820190508181036000830152611660818561116a565b905081810360208301526116748184611100565b90509392505050565b60006020820190508181036000830152611696816111ea565b9050919050565b600060208201905081810360008301526116b68161122a565b9050919050565b600060208201905081810360008301526116d68161126a565b9050919050565b600060208201905081810360008301526116f6816112d0565b9050919050565b6000602082019050818103600083015261171681611310565b9050919050565b6000602082019050818103600083015261173681611350565b9050919050565b6000602082019050818103600083015261175681611390565b9050919050565b60006020820190508181036000830152611776816113d0565b9050919050565b6000602082019050818103600083015261179681611410565b9050919050565b600060208201905081810360008301526117b681611450565b9050919050565b600060208201905081810360008301526117d681611490565b9050919050565b600060208201905081810360008301526117f781846114d0565b905092915050565b6000604051905081810181811067ffffffffffffffff8211171561182657611825611998565b5b8060405250919050565b600067ffffffffffffffff82111561184b5761184a611998565b5b601f19601f8301169050602081019050919050565b60008190508160005260206000209050919050565b600081519050919050565b600082825260208201905092915050565b600082825260208201905092915050565b600081905092915050565b60006118b8826118cb565b9050919050565b60008115159050919050565b600073ffffffffffffffffffffffffffffffffffffffff82169050919050565b6000819050919050565b82818337600083830152505050565b60005b83811015611922578082015181840152602081019050611907565b83811115611931576000848401525b50505050565b6000600282049050600182168061194f57607f821691505b6020821081141561196357611962611969565b5b50919050565b7f4e487b7100000000000000000000000000000000000000000000000000000000600052602260045260246000fd5b7f4e487b7100000000000000000000000000000000000000000000000000000000600052604160045260246000fd5b6000601f19601f8301169050919050565b6119e1816118eb565b81146119ec57600080fd5b5056fea2646970667358221220fb256c9e583ef40fd1d999dbbc81195029257959fde0e246cd13ff451cdd037164736f6c63430008000033",
  "linkReferences": {},
  "deployedLinkReferences": {}
}